:060000000A128A11122809
:10000800FE00030EF4000408F5000A08F600831247
:1000180003137F08F7000A168A11B42C0A128A11F2
:100028001528FC01FD018313CD308400EB300A163E
:100038008A1172240A128A11831790308400C03002
:100048000A168A1172240A128A11831603130A16D1
:100058008A116B240A128A11EB000A168A116C2481
:100068000A128A11EC000A168A116D240A128A11E2
:10007800ED000A168A116E240A128A11F8000A166F
:100088008A116F240A128A11F9000A168A1170243B
:100098000A128A11FA000A168A117124FB008301D8
:1000A8000A128A11CD2F83160313B4000030B20050
:1000B8000030B1000030B0006430AF000030AE0056
:1000C8000030AD000030AC000030AB00A601A60A3D
:1000D800B301A701A801A9012908803AFF008030CF
:1000E8007F02031D792807302802031895288316F4
:1000F800031328083407A000200884008313800114
:100108000130A8070318A90A0030A9072908803A6E
:10011800FF0080307F02031D932807302802031C4C
:100128007B28831603132E0883120313AB00831650
:1001380003132D0883120313AA00831603132C0834
:1001480083120313A900831603132B0883120313C6
:10015800A8000A168A11AC250A128A118312031301
:100168002808AE002908AF002A08B0000A168A112C
:100178007A240A128A11831203132E08B4002F0856
:10018800B5003008B6006C08B1006D08B2006E0802
:10019800B3000A128A15F7260A128A11831203136A
:1001A8003108D1003208D2003308D3008316031374
:1001B800320883120313AB0083160313310883122A
:1001C8000313AA0083160313300883120313A9002C
:1001D800831603132F0883120313A8000A168A1123
:1001E800AC250A128A11831203132808CE002908A5
:1001F800CF002A08D0000A128A158C230A128A1105
:10020800831203134E08DE004F08DF005008E00099
:100218000A128A1507210A128A11831203135E082B
:1002280083160313A00033083407A10021088400B3
:1002380020088313800033083407A00020088400B6
:100248000008A100A201A301A4012408831203133A
:10025800A30083160313230883120313A200831633
:100268000313220883120313A10083160313210822
:1002780083120313A0008316031332088312031397
:10028800A70083160313310883120313A6008316ED
:100298000313300883120313A500831603132F08D2
:1002A80083120313A4000A168A1103270A128A115B
:1002B80083120313200883160313AB078312031357
:1002C800210803110318013E03196D29831603132E
:1002D800AC0783120313220803110318013E031904
:1002E800782983160313AD07831203132308031118
:1002F8000318013E0319832983160313AE078312DB
:10030800031383160313003083120313A300003072
:10031800A2000030A1000A30A0008316031332089F
:1003280083120313A70083160313310883120313E0
:10033800A60083160313300883120313A50083163F
:1003480003132F0883120313A4000A168A11A02787
:100358000A128A1183120313230883160313B200A7
:1003680083120313220883160313B10083120313A5
:10037800210883160313B000831203132008831681
:100388000313AF002603031DD82933083407A00040
:1003980020088400831300080319DC290130A00019
:1003A8002008B307A601DC290130A0002008B30704
:1003B8003208310430042F04031D95283308A000A7
:1003C8002008A7000130A0002008B3070030B200C1
:1003D8000030B1000030B0000A30AF003308A00090
:1003E8002008A5002508A000A101A009A109A00ACC
:1003F8000319A10A33082007A20021080318210ABB
:10040800A3002308803A803C031D0E2A2208831289
:1004180003136F02031C342B831603132E08831255
:100428000313A300831603132D0883120313A200DA
:10043800831603132C0883120313A10083160313D6
:100448002B0883120313A0000030A7000030A60079
:100458000030A5000A30A4000A168A1103270A12E0
:100468008A1183120313230883160313AE00831221
:100478000313220883160313AD0083120313210804
:1004880083160313AC008312031320088316031387
:10049800AB00320883120313AB0083160313310831
:1004A80083120313AA00831603133008831203135D
:1004B800A900831603132F0883120313A8000A1632
:1004C8008A11AC250A128A11831203132808C10065
:1004D8002908C2002A08C3006C08BE006D08BF00C6
:1004E8006E08C0000A128A1544240A128A1183125F
:1004F80003133E08B4003F08B5004008B600831651
:1005080003132E0883120313AB00831603132D085D
:1005180083120313AA00831603132C0883120313F0
:10052800A900831603132B0883120313A8000A16C5
:100538008A11AC250A128A11831203132808AE0007
:100548002908AF002A08B0000A168A117A240A126C
:100558008A11831203132E08B1002F08B200300845
:10056800B3000A128A15F7260A128A118312031396
:100578003108DE003208DF003308E0000A128A156D
:1005880007210A128A11831203135E0883160313C4
:10059800A00033083407A100210884002008831331
:1005A8008000320883120313A30083160313310853
:1005B80083120313A2008316031330088312031354
:1005C800A100831603132F0883120313A000003021
:1005D800A7000030A6000030A5000A30A4000A16C3
:1005E8008A1103270A128A11831203132308831618
:1005F8000313B20083120313220883160313B100F6
:1006080083120313210883160313B0008312031304
:10061800200883160313AF0033083407A00020080E
:10062800840083130008A100A201A301A4012108EA
:10063800AB07220803110318013E031DAC0723086A
:1006480003110318013E031DAD0724080311031805
:10065800013E031DAE070130A0002008B307F629AC
:10066800013083160313B302AA012A083302031CBC
:10067800522B2A083407A00020088400831300089E
:100688003038A1002A083407A20022088400210873
:1006980080000130A0002008AA07392B2E30A000C6
:1006A80027083407A100210884002008831380004C
:1006B80033083407A0002008840080010800BB30FC
:1006C8008400B03083160313B7000408B80008305C
:1006D800B9003708840083170008BA00B70A380839
:1006E800840083133A088000B80AB90B6D2BC33015
:1006F8008400B830B7000408B8000830B9003708DB
:10070800840083170008BA00B70A380884008313E6
:100718003A088000B80AB90B832BAE2D0F30CD3EB6
:1007280084008313000883120313EC00840A000872
:10073800ED00840A0008EE00023083160313B700A8
:10074800370883120313EF00BB300A128A115720AF
:100758000A128A1100300A168A1112260A128A1100
:100768003A3083120313A5008030A6000A168A11B6
:10077800C2260A128A11BB3083120313A500003067
:10078800A6000A168A11C2260A128A11313083126B
:100798000313A5008030A6000A168A11C2260A1281
:1007A8008A1183160313670883120313EC00831658
:1007B8000313680883120313ED00831603136908F3
:1007C80083120313EE00023083160313B7003708B1
:1007D80083120313EF00C3300A128A1157200A123A
:1007E8008A1110300A168A1112260A128A11433009
:1007F80083120313A5008030A6000A168A11C226A8
:100808000A128A11C33083120313A5000030A60010
:100818000A168A11C2260A128A111D30831203137E
:10082800A5008030A6000A168A11C2260800831681
:1008380003134D0883120313EC00831603134E08A9
:1008480083120313ED00831603134F088312031357
:10085800EE00023083160313B70037088312031320
:10086800EF00BB300A128A1157200A128A11003091
:100878000A168A1112260A128A114C30831203139F
:10088800A5008030A6000A168A11C2260A128A110B
:10089800BB3083120313A5000030A6000A168A1184
:1008A800C2260A128A11313083120313A500803040
:1008B800A6000A168A11C2260A128A110330CD3EF2
:1008C80084008313000883120313EC00840A0008D1
:1008D800ED00840A0008EE00023083160313B70007
:1008E800370883120313EF00C3300A128A11572006
:1008F8000A128A1110300A168A1112260A128A114F
:10090800543083120313A5008030A6000A168A11FA
:10091800C2260A128A11C33083120313A5000030BD
:10092800A6000A168A11C2260A128A1127308312D3
:100938000313A5008030A6000A168A11C2260800F3
:100948000630CD3E84008313000883120313EC00A5
:10095800840A0008ED00840A0008EE0002308316BD
:100968000313B700370883120313EF00BB300A12D2
:100978008A1157200A128A1100300A168A11122683
:100988000A128A115C3083120313A5008030A60076
:100998000A168A11C2260A128A11BB30831203135F
:1009A800A5000030A6000A168A11C2260A128A116A
:1009B800313083120313A5008030A6000A168A116D
:1009C800C2260A128A110930CD3E8400831300081A
:1009D80083120313EC00840A0008ED00840A00085F
:1009E800EE00023083160313B7003708831203138F
:1009F800EF00C3300A128A1157200A128A111030E8
:100A08000A168A1112260A128A11643083120313F5
:100A1800A5008030A6000A168A11C2260A128A1179
:100A2800C33083120313A5000030A6000A168A11EA
:100A3800C2260A128A11273083120313A5008030B8
:100A4800A6000A168A11C22608000C30CD3E840082
:100A58008313000883120313EC00840A0008ED00D6
:100A6800840A0008EE00023083160313B700370823
:100A780083120313EF00BB300A128A1157200A129F
:100A88008A1100300A168A1112260A128A116C304D
:100A980083120313A5008030A6000A168A11C22605
:100AA8000A128A11BB3083120313A5000030A60076
:100AB8000A168A11C2260A128A11313083120313C8
:100AC800A5008030A6000A168A11C2260A128A11C9
:100AD8000F30CD3E84008313000883120313EC000B
:100AE800840A0008ED00840A0008EE00023083162C
:100AF8000313B700370883120313EF00C3300A1239
:100B08008A1157200A128A1110300A168A111226E1
:100B18000A128A11743083120313A5008030A600CC
:100B28000A168A11C2260A128A11C33083120313C5
:100B3800A5000030A6000A168A11C2260A128A11D8
:100B4800273083120313A5008030A6000A168A11E5
:100B5800C2260800831603133608003A0319B52D78
:100B6800C32D3508003A0319922B013A03191B2C9F
:100B7800033A0319A42C013A0319292DC32D08009F
:100B880083120313071508140D30E900FB30E80041
:100B9800E80BCC2DE90BCC2DD12D00300A128A158B
:100BA80095210A128A11831203135E08EA005F086E
:100BB800EB006008EC006A08BE006B08BF006C0818
:100BC800C0000030B1008030B2003F30B3000130C7
:100BD80084000A128A150A200A128A11B4000A121D
:100BE8008A150A200A128A11B5000A128A150A20E3
:100BF8000A128A11B6000A128A15F7260A128A11F1
:100C0800831203133108C1003208C2003308C3003D
:100C18000A128A1544240A128A11831203133E0801
:100C280083160313CD00831203133F08831603139F
:100C3800CE0083120313400883160313CF0001303C
:100C48000A128A1595210A128A11831203135E0863
:100C5800EA005F08EB006008EC006A08BE006B0859
:100C6800BF006C08C0000030B1008030B2003F30D7
:100C7800B300043084000A128A150A200A128A1165
:100C8800B4000A128A150A200A128A11B5000A123B
:100C98008A150A200A128A11B6000A128A15F7263E
:100CA8000A128A11831203133108C1003208C200E4
:100CB8003308C3000A128A1544240A128A118312BF
:100CC80003133E0883160313D000831203133F084F
:100CD80083160313D10083120313400883160313EA
:100CE800D20005300A128A1595210A128A11831238
:100CF80003135E08EA005F08EB006008EC006A086E
:100D0800BE006B08BF006C08C0000030B100803026
:100D1800B2003F30B300073084000A128A150A2057
:100D28000A128A11B4000A128A150A200A128A11B4
:100D3800B5000A128A150A200A128A11B6000A1288
:100D48008A15F7260A128A11831203133108C10083
:100D58003208C2003308C3000A128A1544240A1252
:100D68008A11831203133E0883160313D3008312D8
:100D780003133F0883160313D40083120313400898
:100D880083160313D50083120313081087150D303B
:100D9800E900FB30E800E80BCF2EE90BCF2ED42E6C
:100DA80006300A128A1595210A128A118312031332
:100DB8005E08EA005F08EB006008EC006A08BE0005
:100DC8006B08BF006C08C0000030B1008030B20072
:100DD8003F30B3000A3084000A128A150A200A122A
:100DE8008A11B4000A128A150A200A128A11B5005B
:100DF8000A128A150A200A128A11B6000A128A15DE
:100E0800F7260A128A11831203133108C100320827
:100E1800C2003308C3000A128A1544240A128A1130
:100E2800831203133E0883160313D6008312031399
:100E38003F0883160313D700831203134008831651
:100E48000313D80003300A128A1595210A128A1151
:100E5800831203135E08EA005F08EB006008EC00E9
:100E68006A08BE006B08BF006C08C0000030B10003
:100E78008030B2003F30B3000D3084000A128A156A
:100E88000A200A128A11B4000A128A150A200A12C4
:100E98008A11B5000A128A150A200A128A11B600A8
:100EA8000A128A15F7260A128A11831203133108C7
:100EB800C1003208C2003308C3000A128A1544244C
:100EC8000A128A11831203133E0883160313D900EA
:100ED800831203133F0883160313DA0083120313E4
:100EE800400883160313DB0004300A128A15952183
:100EF8000A128A11831203135E08EA005F08EB00E6
:100F08006008EC006A08BE006B08BF006C08C000EF
:100F18000030B1008030B2003F30B30010308400A0
:100F28000A128A150A200A128A11B4000A128A15AE
:100F38000A200A128A11B5000A128A150A200A1212
:100F48008A11B6000A128A15F7260A128A11831224
:100F580003133108C1003208C2003308C3000A1263
:100F68008A154424831203133E0883160313DC00F6
:100F7800831203133F0883160313DD008312031340
:100F8800400883160313DE00831203138711071129
:100F980008000A168A11DB250A128A118312031324
:100FA8000816C8300A168A11F6240A128A110A127B
:100FB8008A15D9220A128A110A128A1517250A12C5
:100FC8008A110A128A11C4250A128A110A168A116C
:100FD80044270A128A11831603136A08CB00CC012E
:100FE8004B08B5004C08B6000A128A1163230A128E
:040FF8008A11DB2F50
:10100000FF1B0A2883137F1883170008840A03191B
:10101000FF0A080008308A000408840A82070034A6
:10102000CD347C343F34723407344034AF349034A0
:1010300040346234D43440348134103441341F3469
:1010400032344134CD344C344034123403343E34E1
:10105000623490343F342C342034413420342034F2
:1010600020342034203420342034003420345634CA
:1010700020342034203420342034203420340034F0
:10108000203456342034203420342034203420348A
:10109000003456346F346C347434613467346534DE
:1010A0003A340034433475347234723465346E34F7
:1010B00074343A340034433465346C346C34203442
:1010C00031343A340034433465346C346C34203475
:1010D00032343A340034433465346C346C34203464
:1010E00033343A340034433465346C346C34203453
:1010F00034343A340034433465346C346C34203442
:1011000035343A340034433465346C346C34203430
:0611100036343A340034CD
:10111A0083160313811201168111073081048B167D
:10112A000B110B178B1708008312031323080319DB
:10113A00A328220821042004031DB6280030A00099
:10114A000030A1000030A20008000130A5002508E7
:10115A00A30701300310A20CA10CA00CFF3E031D33
:10116A00AF28FE3022050319D128AA280130A5008C
:10117A002508A3070130A007003003180130A10792
:10118A00003003180130A20701300310A20CA10C91
:10119A00A00CFF3E031DCA28FF3022050319E428CC
:1011AA00BB2802302302031CE6280130A3020130C7
:1011BA000310A00DA10DA20DFF3E031DDD28A11FE6
:1011CA00D6282318EE28FF30A0057F30A105FF306E
:1011DA00A2050310A30C2308A500A601A70110303D
:1011EA000310A50DA60DA70DFF3E031DF528250822
:1011FA00A0042608A1042708A20424080319080049
:10120A00A2170800831203135E08E2005F08E300D6
:10121A006008E4000310630D640DE5006508EB0047
:10122A006B08031D21290030E1000030E000003086
:10123A00DF000030DE0008005E08E2005F08E3001D
:10124A006008E40017300310E40CE30CE20CFF3EE4
:10125A00031D28296208E5006508E600DF17FF304C
:10126A00DE05FF30DF050030E0055E08E7005F08B5
:10127A00E8006008E900EA018E30EB02EB1F6329FF
:10128A006B08803A8F3E031853290030E100003082
:10129A00E0000030DF000030DE00080001300310FB
:1012AA00EA0CE90CE80CE70CFF3E031D5429013057
:1012BA00E2006208EB0703197E29532918306B02F2
:1012CA00031C7B290030E1000030E0000030DF0021
:1012DA000030DE0008000130E2000310E70DE80DDF
:1012EA00E90DEA0DE20B72290130EB026B08031DCE
:1012FA007029660803198C29E709E809E909EA0946
:10130A00E70A0319E80A0319E90A0319EA0A6A0843
:10131A00E1006908E0006808DF006708DE000800ED
:10132A0083120313E300E601E70163080A168A1130
:10133A004B260A128A1583120313E401E5011C30B5
:10134A0084000A128A150A200A128A15E100650821
:10135A00803A803C031DB32964086102031CDC291E
:10136A008312031363080A168A114B260A128A1576
:10137A00831203132008E6070318E70A2108E70780
:10138A000130E4070318E50A0030E5071C30840041
:10139A000A128A150A200A128A15E1006508803A9B
:1013AA00803C031DDA29640861020318B5291C3040
:1013BA0084000A128A150A200A128A158312031354
:1013CA00E100E2016108A0006208A1006708A30029
:1013DA006608A2000A168A1184260A128A1583123E
:1013EA0003132108E7002008E600C030CE007F3052
:1013FA00CF004430D0007808BE007908BF007A08D0
:10140A00C0006708A9006608A8000A168A11DE2427
:10141A000A128A15831203132808C1002908C20078
:10142A002A08C3000A128A1544240A128A1583124A
:10143A0003133E08D1003F08D2004008D3000A1225
:10144A008A158C23831203134E08DE004F08DF002F
:10145A005008E000080083120313061088130030B6
:10146A000A168A11C6240A128A1502308312031335
:10147A00A7000430A600BA30A500A50B422AA60B85
:10148A00422AA70B422A000030300A168A11C624C3
:10149A000A128A154E3083120313A600EB30A500F8
:1014AA00A50B552AA60B552A0A168A1193240A1245
:1014BA008A151A3083120313A600F830A500A50B6B
:1014CA00642AA60B642A00000A168A1193240A12B7
:1014DA008A151A3083120313A600F830A500A50B4B
:1014EA00742AA60B742A00000A168A1193240A1277
:1014FA008A151A3083120313A600F830A500A50B2B
:10150A00842AA60B842A000020300A168A11C624CF
:10151A000A128A150A168A1193240A128A15283081
:10152A000A168A1181250A128A151A3083120313A0
:10153A00A600F830A500A50BA02AA60BA02A000039
:10154A0010300A168A1181250A128A151A30831256
:10155A000313A600F830A500A50BB12AA60BB12AE1
:10156A0000000F300A168A1181250A128A151A30CC
:10157A0083120313A600F830A500A50BC22AA60BF6
:10158A00C22A000006300A168A1181250A128A1513
:10159A001A3083120313A600F830A500A50BD32A2C
:1015AA00A60BD32A00000800831203138814071518
:1015BA000630DF003030DE00DE0BE12ADF0BE12AE5
:1015CA00000002300A168A114B260A128A15FC01FB
:1015DA00FD0183120313E001E1011C3084000A12A9
:1015EA008A150A200A128A15DE006108803A803CB0
:1015FA00031D012B60085E02031C282B02300A1609
:10160A008A114B260A128A15831203132008FC0733
:10161A000318FD0A2108FD070130E0070318E10A53
:10162A000030E1071C3084000A128A150A200A12C7
:10163A008A15DE006108803A803C031D262B60086B
:10164A005E020318032B1C3084000A128A150A2032
:10165A000A128A1583120313DE00DF015E08A00056
:10166A005F08A1007D08A3007C08A2000A168A115F
:10167A0084260A128A15831203132108FD00200802
:10168A00FC00881007117D08A9007C08A8000A162A
:10169A008A11DE240A128A15831203132808CE003F
:1016AA002908CF002A08D000C030BE007F30BF0012
:1016BA004430C000193084000A128A150A200A121E
:1016CA008A15C1000A128A150A200A128A15C2004E
:1016DA000A128A150A200A128A15C3000A128A15E2
:1016EA0044240A128A15831203133E08D1003F08C4
:1016FA00D2004008D3000A128A158C2383120313DE
:10170A004E08F8004F08F9005008FA000800831242
:10171A0003135108D4005208D5005308D600031009
:10172A00550D560DD7005708DC005C08031DA42B85
:10173A000030CE000030CF000030D00008004E0844
:10174A00D4004F08D5005008D6000310550D560D89
:10175A00D7005708DD005D08031DBA2B0030CE0004
:10176A000030CF000030D00008000030D90000302F
:10177A00DA000030DB0089305D07D4005408DC024F
:10178A005108D4005208D5005308D600103003106F
:10179A00D60CD50CD40CFF3E031DCC2B5408D70015
:1017AA005708DD004E08D4004F08D5005008D6006F
:1017BA0010300310D60CD50CD40CFF3E031DDE2BC3
:1017CA005408D7005708DD068030D4005408DD05D8
:1017DA00D217FF30D105FF30D2050030D305CF171D
:1017EA00FF30CE05FF30CF050030D0051830D400C9
:1017FA005408D80001300310D90DDA0DDB0DFF3E75
:10180A00031D002C50085302031D112C4F085202CD
:10181A00031D112C4E085102031C1E2C4E08D10226
:10182A004F08031C4F0FD2025008031C500AD30260
:10183A00591401300310D10DD20DD30DFF3E031DF3
:10184A001F2C0130D802031DFF2B5908A0005A088B
:10185A00A1005B08A2005C08D4005408A3005D083C
:10186A00D5005508A4000A128A1599208312031379
:10187A002008CE002108CF002208D00008008312D9
:10188A0003133E08C4003F08C5004008C600031001
:10189A00450D460DC7004708C8004808031D5C2CC3
:1018AA000030BE000030BF000030C0000800410810
:1018BA00C4004208C5004308C6000310450D460D82
:1018CA00C7004708CD004D08031D722C0030BE002A
:1018DA000030BF000030C00008004D087B3EC40045
:1018EA004408C8073E08C4003F08C5004008C600AF
:1018FA0010300310C60CC50CC40CFF3E031D7E2C11
:10190A004408C7004708CD004108C4004208C50082
:10191A004308C60010300310C60CC50CC40CFF3EA9
:10192A00031D902C4408C7004708CD068030C40028
:10193A004408CD05BF17C217FF30C105FF30C205E5
:10194A000030C3050030C9000030CA000030CB00A7
:10195A000730C4004408CC003E1CC12C4108C9070A
:10196A00420803110318420A031DCA074308031158
:10197A000318430A031DCB0701300310C00CBF0C28
:10198A00BE0CFF3E031DC22C01300310C10DC20D57
:10199A00C30DFF3E031DCA2C0130CC02031DB12C1E
:1019AA000930C4004408CC003E1CE92C4108C90790
:1019BA00420803110318420A031DCA074308031108
:1019CA000318430A031DCB0701300310C00CBF0CD8
:1019DA00BE0CFF3E031DEA2C01300310CB0CCA0CCF
:1019EA00C90CFF3E031DF22C0130CC02031DD92C79
:1019FA004908A0004A08A1004B08A2004808C400F0
:101A0A004408A3004D08C5004508A4000A128A1517
:101A1A009920831203132008BE002108BF00220860
:101A2A00C000080083120313E501E601E301E401A3
:101A3A001C3084000A128A150A200A128A15DE004E
:101A4A006408803A803C031D2C2D63085E02031C47
:101A5A00532D07300A168A114B260A128A15831249
:101A6A0003132008E5070318E60A2108E6070130F0
:101A7A00E3070318E40A0030E4071C3084000A1262
:101A8A008A150A200A128A15DE006408803A803C08
:101A9A00031D512D63085E0203182E2D1C3084008D
:101AAA000A128A150A200A128A1583120313DE0003
:101ABA00DF015E08A0005F08A1006608A3006508B0
:101ACA00A2000A168A1184260A128A15831203139F
:101ADA002108E6002008E500C030CE007F30CF00A4
:101AEA004430D0007808BE007908BF007A08C000E8
:101AFA006608A9006508A8000A168A11DE240A12D7
:101B0A008A15831203132808C1002908C2002A086B
:101B1A00C3000A128A1544240A128A15831203136F
:101B2A003E08D1003F08D2004008D3000A128A15A5
:101B3A008C230A128A15831203134E08E0004F08F9
:101B4A00E1005008E200831603136B0883120313A3
:101B5A00BE00831603136C0883120313BF00831697
:101B6A0003136D0883120313C0007B080A168A1137
:101B7A000F250A128A15831203132808C10029089F
:101B8A00C2002A08C3000A128A1544240A128A15B6
:101B9A00831203133E08CE003F08CF004008D0004E
:101BAA006008D1006108D2006208D3000A128A15BF
:101BBA008C23831203134E0883160313E700831240
:101BCA0003134F0883160313E80083120313500804
:101BDA0083160313E900080083160313AC000030D0
:101BEA00B0000030AF000030AE000030AD00E32E90
:101BFA00831203130108831603135F07E3006008C7
:101C0A000318600F0310E40061080318610F031042
:101C1A00E50062080318620AE60000308312031323
:101C2A00EF000030EE000030ED000130EC0008005B
:101C3A00831603135F08A0006008A1006108A200D0
:101C4A006208A3006309A4006409A5006509A60047
:101C5A006609A700A40A0319A50A0319A60A031903
:101C6A00A70A83120313010883160313A800A90104
:101C7A00AA01AB012808A40729080318290F462E30
:101C8A00472EA5072A0803182A0F4C2E4D2EA60701
:101C9A002B0803182B0AA7072408A00725080318EE
:101CAA00250F582E592EA10726080318260F5E2E37
:101CBA005F2EA20727080318270AA3072308B000E4
:101CCA002208AF002108AE002008AD0030088312B8
:101CDA000313AB00831603132F0883120313AA00FE
:101CEA00831603132E0883120313A9008316031302
:101CFA002D0883120313A8000A168A11AC250A12AA
:101D0A008A15831203132808C1002908C2002A0869
:101D1A00C300163084000A128A150A200A128A158C
:101D2A00BE000A128A150A200A128A15BF000A1270
:101D3A008A150A200A128A15C0000A128A15442432
:101D4A000A128A15831203133E08DE003F08DF00D9
:101D5A004008E0000A128A1507210A128A1583121E
:101D6A000313610883160313B00083120313600878
:101D7A0083160313AF00831203135F08831603133A
:101D8A00AE00831203135E0883160313AD003008F6
:101D9A0083120313EF00831603132F08831203130E
:101DAA00EE00831603132E0883120313ED00831625
:101DBA0003132D0883120313EC0008008316031380
:101DCA002C08003A0319FD2D013A03191D2EED2E98
:101DDA0000308312EF000030EE000030ED000030DA
:101DEA00EC000800831203133108B7003208B80068
:101DFA003308B9000310380D390DBA003A08BD008E
:101E0A003408B7003508B8003608B9000310380D91
:101E1A00390DBA003A08BC003D080319202F3C08C6
:101E2A003D020318272F3D03FF3A3C07B70019303C
:101E3A003702031C272F3408B1003508B2003608D0
:101E4A00B30008003C08031908003D083C020318C7
:101E5A00362F3C03FF3A3D07B70019303702031803
:101E6A0008000630B7003708BB00B31BBB17B61B08
:101E7A003B17B217FF30B105FF30B2050030B3058A
:101E8A00B517FF30B405FF30B5050030B6053C087C
:101E9A003D020318762F01300310B40DB50DB60DAF
:101EAA00FF3E031D512F0130BC023C083D060319B9
:101EBA00712F0130BB023B0807390319712F502FCC
:101ECA0001300310B30CB20CB10CFF3E031D662F98
:101EDA000130B7003708BD073D083C0603199F2F9C
:101EEA00652F3D083C0203189F2F01300310B10DE6
:101EFA00B20DB30DFF3E031D7B2F0130BD023C081E
:101F0A003D0603199B2F0130BB023B080739031911
:101F1A009B2F7A2F01300310B60CB50CB40CFF3E80
:101F2A00031D902F0130B7003708BC073D083C0657
:101F3A00031D8F2FBB1FB12FFF30B106FF30B20632
:101F4A00FF30B3060130B107003003180130B20781
:101F5A00003003180130B3073B1FC32FFF30B4060C
:101F6A00FF30B506FF30B6060130B407003003185B
:101F7A000130B507003003180130B607BB0131083C
:101F8A00B407320803110318320A031DB5073308D0
:101F9A0003110318330A031DB607B61FE62FFF30D5
:101FAA00B406FF30B506FF30B6060130B40700307C
:101FBA0003180130B507003003180130B607BB011A
:101FCA00BB0A3408A0003508A1003608A2003D0863
:101FDA00B7003708A3003B08B8003808A4000A1263
:101FEA008A159920831203132008B1002108B20030
:061FFA002208B3000800FC
:1028D600D73423343C34663486344034C8346400F8
:1028E6008001840A0406031900340406732C83123B
:1028F600031330082F042E04031908008030B00695
:1029060008008130831203139F007030831603136F
:102916009F00831203139E01831603139E01080072
:102926008312031386140330A1009730A000A00B76
:102936009A2CA10B9A2C9F2C831203138610080045
:1029460083120313A20022080A168A11C6240A1645
:102956008A1183120313061088130A168A11932408
:1029660008000A168A112D250A168A11770883127D
:102976000313FF0076088A0075088400740E83002E
:10298600FE0E7E0E090083120313A000201ECD2C1E
:102996000615CE2C0611A01ED22C8615D32C861118
:1029A600201FD72C0616D82C0612A01FDC2C861644
:1029B600080086120800831203132808A0002908BD
:1029C600A100A2018E30AB002B08A300A4010A12BD
:1029D6008A159920831203132008A8002108A9004C
:1029E6002208AA00080083120313A0006430200204
:1029F600031C062D051764302006031D042D8513C0
:102A0600080085170800051319302006031D0D2D33
:102A1600851308008517080083120313AF002F08DB
:102A2600AB00AC01AD012B08A0002C08A1002D08BD
:102A3600A2008E30AE002E08A300A4010A128A1549
:102A46009920831203132008A8002108A900220850
:102A5600AA0008000B1D08008B1E0800FF30F000BE
:102A66000030F1000030F2000030F300831603134B
:102A76005F08F00760080318600F422D432DF10729
:102A860061080318610F482D492DF20762080318E3
:102A9600620AF3077308E2007208E1007108E000B9
:102AA6007008DF000B11080083120313A40024082A
:102AB6000A168A11C6240A168A11831203130614EB
:102AC6000A168A1193240A168A11831203132408FC
:102AD600A20003300310A20DFF3E031D6D2D03104F
:102AE600220DA3002308A40024080A168A11C6246E
:102AF6000A168A110A168A119324080083120313F0
:102B0600A40024080A168A11C6240A168A118312FA
:102B16000313061088130A168A1193240A168A11BB
:102B2600831203132408A20003300310A20DFF3EF4
:102B3600031D982D0310220DA3002308A4002408CA
:102B46000A168A11C6240A168A110A168A119324AD
:102B560008008E3083120313AC002C08AD00FF3042
:102B66002B050319C42D01300310AB0CAA0CA90CBC
:102B7600A80CFF3E031DB72D0130AC002C08AD0795
:102B8600B22D2808A0002908A1002A08A2002D08B5
:102B9600AC002C08A300A4010A128A1599208312FE
:102BA60003132008A8002108A9002208AA0008008B
:102BB6007030831603138F040F103F308500860193
:102BC60087016030880007308900FF30910083124A
:102BD6000313850186018701880189010730831661
:102BE60003139C048312031787010912831203132C
:102BF60097019D018316031381178312031308118E
:102C060007140A168A1184240A168A110A128A15CA
:102C16008D200A168A110A128A153022080083129C
:102C26000313A500251E312EC0300A168A11A324CF
:102C36000A168A11831203132508A3000330031012
:102C4600A30DFF3E031D222E0310230DA40024080E
:102C5600A50025080A168A11A324080080300A1642
:102C66008A11A3240A168A11831203132508A300C6
:102C760003300310A30DFF3E031D3C2E0310230D4E
:102C8600A4002408A50025080A168A11A324080012
:102C960083120313A4002408A200A20DA20D1F088C
:102CA6002206E33922069F001F140630A200A20B5B
:102CB6005A2E0000831203139F14A501A6019F1824
:102CC600622E1E08A200A3012208A5002308A60062
:102CD6002508A300A2012208A5002308A6002508AE
:102CE600831603131E0483120313A2002608A300EF
:102CF6002208A5002308A6002608A1002508A00092
:102D0600080083120313A501A60120082104031954
:102D1600BD2EA701A70AA11B9C2E01300310A00DF2
:102D2600A10DFF3E031D912E0130A4002408A70724
:102D36008E2E01300310A50DA60DFF3E031D9D2E00
:102D460021082302031DA92E20082202031CB22EED
:102D56002008A2022108031CA303A30225140130A4
:102D66000310A10CA00CFF3E031DB32E0130A702D9
:102D7600031D9C2E2608A1002508A000080083122A
:102D86000313AA01AB012A082507A8002608A700F5
:102D96000318A70AAA1BA703831203132708A9006F
:102DA6002908FF00280884000A128A1500200A163E
:102DB6008A11003A031908002A082507A8002608E0
:102DC600A7000318A70AAA1BA70383120313270841
:102DD600A9002908FF00280884000A128A15002085
:102DE6000A168A110A168A1157250A168A110130FF
:102DF60083120313AA070318AB0A0030AB07C62ECB
:102E0600003083120313AC000030AB000030AA0080
:102E16000030A900201C232F2408A9072508031128
:102E26000318013E031DAA07260803110318013ED5
:102E3600031DAB07270803110318013E031DAC074A
:102E46000130A8000310A40DA50DA60DA70DA80B13
:102E5600252F01300310A30CA20CA10CA00CFF3EE1
:102E6600031D2D2F2308220421042004031D0D2FEA
:102E76002C08A3002B08A2002A08A1002908A000FC
:102E8600080083120313881A08008230831603137E
:102E9600B200DD30B100B10B4E2FB20B4E2F532FC7
:102EA60083120313881A080000300A128A15F125C6
:102EB6000A168A1183120313881A942F01300A12F4
:102EC6008A15F1250A168A11831203136F08031D4A
:102ED600792F6E08031D792F03306D02031D772F9E
:102EE600E8306C02031D772F031C5D2F0A128A152A
:102EF60030220A168A1183120313871402308316AE
:102F06000313B3000430B200BA30B100B10B892FFD
:102F1600B20B892FB30B892F00008312031387107E
:102F26000800013083160313B1003108EA070430A4
:102F36006A02031C0800EA0108000030831203132A
:102F4600AC000030AB000030AA000030A900230816
:102F56002204210420040319F72FAD01AD0AA31B97
:102F6600C22F0130A8000310A00DA10DA20DA30DC4
:102F7600A80BB62F0130A8002808AD07B22F0130E4
:102F8600A8000310A90DAA0DAB0DAC0DA80BC42FFC
:102F960023082702031DD92F22082602031DD92F35
:102FA60021082502031DD92F20082402031CEA2F1D
:102FB6002008A4022108031C210FA5022208031CD5
:102FC600220FA6022308031C230FA702291401308F
:102FD6000310A30CA20CA10CA00CFF3E031DEB2FAB
:102FE6000130AD02031DC22F2C08A3002B08A2003E
:0A2FF6002A08A1002908A000080025
:02400E00F4E4D8
:00000001FF
