:060000000A128A11C62F4E
:100EB400D73423343C34663486344034C834640034
:100EC4008001840A0406031900340406622FF90021
:100ED40064307902031C792F8312031305176430DD
:100EE4007906031D772F85130800851708008312E0
:100EF4000313051319307906031D822F8513080087
:100F0400851708003F308316031385008601870187
:100F14002030880007308900831203130815073036
:100F2400831603139C04831203178701FF3083166F
:100F34000313910070309F04831203139F179F3093
:100F44009F051F14C8300A128A1169270A128A11D0
:100F54008312031308128312031387148230FB00D5
:100F6400DD30FA00FA0BB42FFB0BB42FB92F831228
:100F7400031387108230FB00DD30FA00FA0BC02F18
:100F8400FB0BC02FC52FAD2FF001F101F201F301CE
:100F9400F40183132030840032300A128A1161274D
:100FA4000A128A110A128A115A270A128A11B200E5
:100FB4000A128A115B270A128A11B3000A128A11D3
:100FC4005C270A128A11B4000A128A115D270A12D8
:100FD4008A11F5000A128A115E270A128A11F60094
:100FE4000A128A115F270A128A11F7000A128A115B
:100FF4006027F80083010A128A11842FFF1B0A2834
:1010040083137F1883170008840A0319FF0A080052
:101014007F087F398A000408840A0319FF0A8200C2
:1010240001340034003400340A3400340034003411
:101034006434003400340034E834033400340034BD
:101044001034273400340034A0348634013400349E
:10105400403442340F3400348034963498340034AD
:101064000034E134F53405340034CA349A343B3462
:10107400003480343F34CD34CC343D34D73423343D
:101084003C34123483343A34B734D1343834C6342B
:1010940027343734383486343534C034D634333492
:1010A400CC342B343234703489343034E734DB3488
:1010B4002E34E5343C341E344234A2340D3400342E
:1010C40080343F340034203441340034C834423452
:1010D40000347A34443440341C3446345034C334F9
:1010E4004734243474344934973418344B34BC347E
:1010F400BE344C346B346E344E34033415345034B3
:101104007934AD346034F33449347134803409347F
:101114004534803409344534803409344534E0346A
:101124009234453480340934453440341C344634D4
:10113400803409344534B034653446348034093459
:10114400453440349C344634803409344534F834CE
:10115400C0344634B234FD343F34433475347234CD
:10116400723465346E3474343A3425342E34333462
:1011740066344134003456346F346C34743461341E
:10118400673465343A3425346934203456340034B1
:10119400433465346C346C34203431343A3425347B
:1011A4002E34323466340034433465346C346C3455
:1011B400203432343A3425342E3432346634003414
:1011C400433465346C346C34203433343A34253449
:1011D4002E34323466340034433465346C346C3425
:1011E400203434343A3425342E34323466340034E2
:1011F400433465346C346C34203435343A34253417
:101204002E34323466340034433465346C346C34F4
:10121400203436343A3425342E34323466340034AF
:0C12240025346434003425346634003472
:02400E00F4F4C8
:00000001FF
