:100000000A128A111228C834FE00030EF0000408F8
:10001000F1000A08F200831203137F08F3000A16A6
:100020008A15772A0A128A111528F601F701F801B4
:100030008313A0308400C5300A168A1565220A127F
:100040008A11831790308400A0300A168A15652221
:100050000A128A11831603130A168A1100200A1243
:100060008A11E3000A168A1101200A128A11E4009B
:100070000A168A1102200A128A11E5000A168A114C
:1000800003200A128A11E6000A168A1104200A12B5
:100090008A11E7000A168A1105200A128A11E8005F
:1000A0000A128A110320F90083010A168A15912F7A
:1000B0006B3083160313C5004508CE0083126A080F
:1000C00083160313C60083120313690883160313F0
:1000D000C50083120313E90A0319EA0A83160313FE
:1000E000460883120313FF00831603134508840098
:1000F000831203130A168A1500200A128A11831626
:100100000313C7004708E00060080319B92F253022
:10011000600603199A288312031367088400831367
:100120006818831783160313600880000130831258
:100130000313B52F83160313CF01D00183120313CA
:100140006A08FF00690884000A168A1500200A124E
:100150008A112E3A031D0629831603135017013006
:1001600083120313E9070318EA0A83160313DB015A
:10017000DC0183126A08FF00690884000A168A15E8
:1001800000200A128A110A168A1582220A128A117E
:10019000031C0E29831603135C0883120313A100AA
:1001A000831603135B0883120313A0000A30A20016
:1001B0000030A3000A168A1106200A128A1183123F
:1001C00003136A08FF00690884000A168A150020D4
:1001D0000A128A11200783160313C5000030031882
:1001E000013083120313210783160313C600450849
:1001F000D03EDB0046080318013EFF3EDC00013024
:1002000083120313E9070318EA0AB92883160313B4
:10021000DB01DC0150160E2950153A298312031315
:100220006A0883160313C600831203136908831632
:100230000313C50083120313E90A0319EA0A83169C
:100240000313460883120313FF00831603134508A4
:100250008400831203130A168A1500200A128A11D9
:1002600083160313E000003A0319B92F663A031905
:100270000C295E2800304F05C50007305005C60028
:100280004508460403195D2F501E4A290630DB003D
:100290000030DC004E08840083130008DD00840A6F
:1002A0000008DE00840A0008DF000330C5004508AE
:1002B000CE075D0883120313A000831603135E08A4
:1002C00083120313A100831603135F088312031321
:1002D000A2000030A3000030A4000030A5000A16E0
:1002E0008A1559260A128A110318A32983160313A3
:1002F0005D0883120313A000831603135E088312A4
:100300000313A100831603135F0883120313A200D3
:100310000A168A156D220A128A1183120313200805
:1003200083160313DD0083120313210883160313BE
:10033000DE0083120313220883160313DF00033049
:10034000CF040030D00483160313D501D6015F0813
:100350005E045D040319C32ADD30840083130008A2
:10036000C500840A0008C600840A0008C700840A81
:100370000008C8000F300310C80CC70CC60CC50C11
:10038000FF3E031DBB29FF304505C900003046056F
:10039000CA004908823ED5004A080318013EFF3EC4
:1003A000D600FF30D5070318D60AFF30D607033032
:1003B00083120313A0000030A10083160313560814
:1003C00083120313A3008316031355088312031328
:1003D000A2000A168A1106200A128A118312031338
:1003E000210883160313D6008312031320088316F3
:1003F0000313D5000A3083120313A6000030A700B0
:1004000083160313560883120313A90083160313DC
:10041000550883120313A8000A168A15FE250A122E
:100420008A1183120313270883160313D60083123D
:100430000313260883160313D500D61F252AFF3081
:10044000D5070318D60AFF30D6075503FF3A0A121C
:100450008A151E220A128A11831203134208831678
:100460000313D70083120313430883160313D80022
:1004700083120313440883160313D9005D08831203
:100480000313B200831603135E0883120313B30031
:10049000831603135F0883120313B4008316031338
:1004A000570883120313B5008316031358088312E9
:1004B0000313B60083160313590883120313B700FE
:1004C0000A168A1171230A128A1183120313320841
:1004D00083160313D7008312031333088316031301
:1004E000D80083120313340883160313D900570866
:1004F00083120313A00083160313580883120313F7
:10050000A10083160313590883120313A2000030BD
:10051000A3008030A4003F30A5000A168A15592692
:100520000A128A1103189C2AFF3083160313D50779
:100530000318D60AFF30C22A831603135708831202
:100540000313A00083160313580883120313A1009A
:1005500083160313590883120313A2000030A3006B
:100560002030A4004130A5000A168A1559260A1227
:100570008A11031CC32A013083160313D5070318FD
:10058000D60A0030D607831603135C08803AFF00B2
:1005900080307F02031DCE2A0D305B020318092B29
:1005A000831603135B080A128A1560200A128A1147
:1005B000831203134208D2004308D3004408D40036
:1005C000831603135D0883120313D50083160313E8
:1005D0005E0883120313D600831603135F08831289
:1005E0000313D7000A168A1144240A128A118312AF
:1005F0000313520883160313DD00831203135308F9
:1006000083160313DE0083120313540883160313A7
:10061000DF00831603135608803AFF0080307F0204
:10062000031D142B0A3055020318472B831603139E
:100630005F085E045D040319CE2B5D08831203136B
:10064000CB00831603135E0883120313CC008316BA
:1006500003135F0883120313CD000A168A112920A1
:100660000A128A11831203134E084D044C044B04E2
:10067000031DCE2B831603135608803AFF008030EB
:100680007F02031D452B02305502031CCE2B83161F
:100690000313570883120313A0008316031358088B
:1006A00083120313A1008316031359088312031343
:1006B000A2007030A3008930A4004030A5000A16C3
:1006C0008A1559260A128A110318682BF730692BEC
:1006D000F83083160313D5070318D60AFF30D60760
:1006E00055080A128A151E220A128A118312031350
:1006F000420883160313D70083120313430883169B
:100700000313D80083120313440883160313D9007C
:100710005D0883120313A000831603135E0883127F
:100720000313A100831603135F0883120313A200AF
:1007300083160313570883120313A30083160313AE
:10074000580883120313A400831603135908831255
:100750000313A5000A168A11AE220A128A11831207
:100760000313230883160313D400831203132208F0
:1007700083160313D3008312031321088316031374
:10078000D20083120313200883160313D100003014
:10079000DD000030DE000030DF004B2C8316031339
:1007A0005D0883120313CB00831603135E088312C4
:1007B0000313CC00831603135F0883120313CD00C9
:1007C0000A168A1129200A128A11831203134E086D
:1007D00083160313D400831203134D0883160313E7
:1007E000D300831203134C0883160313D200831221
:1007F00003134B0883160313D10054088312031309
:10080000AB0083160313530883120313AA00831645
:100810000313520883120313A9008316031351080C
:1008200083120313A8000A168A15B6230A128A1126
:10083000831203132808DF002908E0002A08E100DA
:10084000831603135D0883120313E2008316031358
:100850005E0883120313E300831603135F088312F9
:100860000313E4000A168A1540230A128A11831220
:1008700003135F0883160313DD008312031360085C
:1008800083160313DE008312031361088316031318
:10089000DF00D501D601E001E00A0A306006031945
:1008A000A12C6008C50001300310C50DFF3E031DDB
:1008B000542C0310450D123E840098300318013E5D
:1008C00083120313FF000A168A1500200A128A11E8
:1008D00083160313C600831203130A168A15002019
:1008E0000A128A1183160313C700831203130A1610
:1008F0008A1500200A128A1183160313C800831276
:1009000003130A168A1500200A128A11831603138C
:10091000C90049085402031D972C48085302031DBF
:10092000972C47085202031D972C46085102031CBE
:10093000A12C0130C5004508E0070A306006031D00
:10094000512C03304F05C50000305005C600450846
:1009500046040319B82C8312031367088400831319
:10096000681883172D3080000130E7070318E80A64
:10097000FF3083160313C5004508E007600A03191A
:10098000882D831603136008C50001300310C50DC0
:10099000FF3E031DC62C0310450D123E8400983007
:1009A0000318013E83120313FF000A168A15002064
:1009B0000A128A11A0000A168A1500200A128A114A
:1009C000A1000A168A1500200A128A11A2000A162E
:1009D0008A1500200A128A11A300831603135408F3
:1009E00083120313A7008316031353088312031300
:1009F000A60083160313520883120313A50083165F
:100A00000313510883120313A4000A128A1500204D
:100A10000A128A1183120313230883160313DA00C0
:100A200083120313220883160313D90083120313BE
:100A3000210883160313D80083120313200883169A
:100A40000313D700003083120313A3000030A20069
:100A50000030A1000A30A000831603135A08831245
:100A60000313A70083160313590883120313A60068
:100A700083160313580883120313A5008316031368
:100A8000570883120313A4000A168A1558250A1260
:100A90008A1183120313230883160313DA008312C7
:100AA0000313220883160313D900831203132108AA
:100AB00083160313D800831203132008831603132D
:100AC000D7005708303EC50083120313670884001F
:100AD00083136818831783160313450880000130B9
:100AE00083120313B52C8312031367088400831346
:100AF00068188317303080000130E7070318E80AD0
:100B0000FF3083160313D5070318D60AFF30D60724
:100B10005608803AFF0080307F02031D912D01307E
:100B200055020318732D831603135C08803AFF00E7
:100B300080307F02031D9E2D09305B02031CA42D13
:100B4000083083160313A72D831603135B08C50013
:100B50004508E0006008C500C601C51BC60345087E
:100B6000DB024608031CDC03DC0260080319C52D08
:100B700083120313670884008313681883172E30C9
:100B800080000130E7070318E80A831603136008A2
:100B90000A128A151E220A128A11831203134208AE
:100BA00083160313CB008312031343088316031326
:100BB000CC0083120313440883160313CD004B08A3
:100BC00083120313B500831603134C088312031317
:100BD000B600831603134D0883120313B700831660
:100BE00003135D0883120313B200831603135E0818
:100BF00083120313B300831603135F0883120313D6
:100C0000B4000A168A1171230A128A11831203137F
:100C10003208CB003308CC003408CD000A168A1104
:100C200029200A128A11831203134E088316031314
:100C3000D400831203134D0883160313D3008312C9
:100C400003134C0883160313D200831203134B08BB
:100C500083160313D100FF30C5004508E007600A82
:100C60000319582F6008C50001300310C50DFF3E61
:100C7000031D352E0310450D123E840098300318D5
:100C8000013E83120313FF000A168A1500200A1280
:100C90008A11A0000A168A1500200A128A11A100E2
:100CA0000A168A1500200A128A11A2000A168A154D
:100CB00000200A128A11A30083160313540883121A
:100CC0000313A70083160313530883120313A6000C
:100CD00083160313520883120313A500831603130C
:100CE000510883120313A4000A128A1500200A1265
:100CF0008A1183120313230883160313DA00831265
:100D00000313220883160313D90083120313210847
:100D100083160313D80083120313200883160313CA
:100D2000D700003083120313A3000030A20000306C
:100D3000A1000A30A000831603135A08831203137C
:100D4000A70083160313590883120313A600831602
:100D50000313580883120313A500831603135708BF
:100D600083120313A4000A168A1558250A128A1141
:100D700083120313230883160313DA008312031369
:100D8000220883160313D900831203132108831644
:100D90000313D80083120313200883160313D7000C
:100DA0005708303EC500831203136708840083137D
:100DB00068188317831603134508800001308312D7
:100DC0000313E7070318E80A831603136008C50036
:100DD00001300310C50DFF3E031DE92E0310450D24
:100DE000123E840098300318013E83120313FF0063
:100DF0000A168A1500200A128A11A0000A168A15FE
:100E000000200A128A11A1000A168A1500200A126F
:100E10008A11A2000A168A1500200A128A11A3005C
:100E200083160313540883120313A70083160313B6
:100E3000530883120313A600831603135208831268
:100E40000313A50083160313510883120313A40090
:100E50000A168A1558250A128A11831203132308C9
:100E600083160313D400831203132208831603137B
:100E7000D30083120313210883160313D2008312B5
:100E800003132008282E831203136708840083139A
:100E900068188317303080000130E7070318E80A2C
:100EA000FF3083160313DB070318DC0AFF30DC076F
:100EB0005B085C0403195E28432F5B085C04031D78
:100EC0006D2F5408530452045104031D6D2F01303B
:100ED000DB070318DC0A0030DC076008C500C60128
:100EE000C51BC6034608803AC7005C08803A470223
:100EF000031D7C2F5B0845020318852F83160313FF
:100F00005B08C5004508E0009F2F831603136008A7
:100F1000C500C601C51BC6035C08803AC700460869
:100F2000803A4702031D962F45085B0203189F2F46
:100F3000831603136008DB00DC01DB1BDC030330DA
:100F4000831603134F05C50000305005C600450841
:100F5000460403195E288312031367088400831371
:100F6000681883172D3080000130E7070318E80A5E
:100F70005E2883120313670884008317681C831399
:100F80008001080083120313A501A6012008210493
:100F90000319FB2FA401A40AA11BDA2F01300310AF
:100FA000A00DA10DFF3E031DCF2F0130F4007408EA
:100FB000A407CC2F01300310A50DA60DFF3E031D85
:100FC000DB2F21082302031DE72F20082202031C28
:100FD000F02F2008A2022108031CA303A30225145A
:100FE00001300310A10CA00CFF3E031DF12F0130B6
:100FF000A402031DDA2F2608A1002508A00008007E
:10100000003083120313AB000030AA000030A900A7
:101010000030A800230822042104200403195728C3
:10102000AC01AC0AA31B22280130F4000310A00D70
:10103000A10DA20DA30DF40B16280130F4007408C5
:10104000AC0712280130F4000310A80DA90DAA0D59
:10105000AB0DF40B242823082702031D392822088E
:101060002602031D392821082502031D39282008DE
:101070002402031C4A282008A4022108031C210F73
:10108000A5022208031C220FA6022308031C230F1B
:10109000A702281401300310A30CA20CA10CA00C71
:1010A000FF3E031D4B280130AC02031D22282B08F4
:1010B000A3002A08A2002908A1002808A00008000F
:1010C00083120313D1006E305102031C52290330E6
:1010D000C5004508AE000A30A6000030A700510840
:1010E000C600C7014608A2004708A3006430A0005C
:1010F0000030A1000A168A150B250A128A158312E0
:1011000003132108A9002008A8000A168A15FE2545
:101110000A128A15831203132608093E0A168A1535
:10112000C0220A128A153A3E840098300318013E04
:1011300083120313FF000A168A1500200A128A156B
:10114000B2000A168A1500200A128A15B3000A1680
:101150008A1500200A128A15B4000330C800480816
:10116000AE006430A6000030A7005108C900CA01D3
:101170004908A8004A08A9000A168A15FE250A127D
:101180008A15831203132608123E0A168A15C022F6
:101190000A128A153A3E840098300318013E8312E1
:1011A0000313FF000A168A1500200A128A15B500DB
:1011B0000A168A1500200A128A15B6000A168A1520
:1011C00000200A128A15B7000A168A1171230A1222
:1011D0008A15831203133208CE003308CF00340877
:1011E000D0000330C5004508AE005108C600C70155
:1011F0004608A2004708A3000A30A0000030A10062
:101200000A168A150B250A128A1583120313200861
:101210000A168A15C0220A128A153A3E84009830AE
:101220000318013E83120313FF000A168A150020DB
:101230000A128A15B2000A168A1500200A128A15A7
:10124000B3000A168A1500200A128A15B4004E0847
:10125000B5004F08B6005008B7000A168A1171236E
:101260000A128A15831203133208CB003308CC000C
:101270003408CD000030B2000030B3003F30B4007D
:101280004B08B5004C08B6004D08B7000A168A1185
:101290007123831203133208C2003308C3003408D9
:1012A000C40008000B305102031CE8290330C500BC
:1012B0004508AE005108C600C7014608A20047080D
:1012C000A3000A30A0000030A1000A168A150B25E1
:1012D0000A128A158312031320080A168A15C022DF
:1012E0000A128A153A3E840098300318013E831290
:1012F0000313FF000A168A1500200A128A15B2008D
:101300000A168A1500200A128A15B3000A168A15D1
:1013100000200A128A15B4000330C8004808AE0045
:101320000A30A6000030A7005108C900CA014908C8
:10133000A8004A08A9000A168A15FE250A128A156D
:10134000831203132608093E0A168A15C0220A12C0
:101350008A153A3E840098300318013E8312031325
:10136000FF000A168A1500200A128A15B5000A160F
:101370008A1500200A128A15B6000A168A1500205E
:101380000A128A15B7000A168A1171230A128A15E1
:10139000831203133208CE003308CF003408D00084
:1013A0000030B2000030B3003F30B4004E08B5004A
:1013B0004F08B6005008B7000A168A11712383122D
:1013C00003133208C2003308C3003408C400080005
:1013D0000030B2000030B3003F30B4000330C5002D
:1013E0004508AE0051080A168A15C0220A128A154D
:1013F0003A3E840098300318013E83120313FF0025
:101400000A168A1500200A128A15B5000A168A15CE
:1014100000200A128A15B6000A168A1500200A1240
:101420008A15B7000A168A11712383120313320832
:10143000C2003308C3003408C40008008312031339
:10144000CA00CA1F932BCA09CA0A4A08803A123E28
:10145000031CF62A0330C5004508AE000A30A6007A
:101460000030A7004A08A200A301A21BA303643016
:10147000A0000030A1000A168A150B250A128A1551
:10148000831203132108A9002008A8000A168A1550
:10149000FE250A128A15831203132608093E0A162E
:1014A0008A15C0220A128A153A3E84009830031821
:1014B000013E83120313FF000A168A1500200A1248
:1014C0008A15B2000A168A1500200A128A15B3007E
:1014D0000A168A1500200A128A15B4000330C600C5
:1014E0004608AE006430A6000030A7004A08A800F5
:1014F000A901A81BA9030A168A15FE250A128A1536
:10150000831203132608123E0A168A15C0220A12F5
:101510008A153A3E840098300318013E8312031363
:10152000FF000A168A1500200A128A15B5000A164D
:101530008A1500200A128A15B6000A168A1500209C
:101540000A128A15B7000A168A1171230A128A151F
:10155000831203133208C7003308C8003408C900D7
:101560000330C5004508AE004A08A200A301A21B33
:10157000A3030A30A0000030A1000A168A150B252B
:101580000A128A158312031320080A168A15C0222C
:101590000A128A153A3E840098300318013E8312DD
:1015A0000313FF000A168A1500200A128A15B200DA
:1015B0000A168A1500200A128A15B3000A168A151F
:1015C00000200A128A15B4004708B5004808B60082
:1015D0004908B7000A168A117123831203133208CF
:1015E000C2003308C3003408C40008004A08803A27
:1015F000753E031C702B0330C5004508AE004A0839
:10160000A200A301A21BA3030A30A0000030A10086
:101610000A168A150B250A128A158312031320084D
:101620000A168A15C0220A128A153A3E840098309A
:101630000318013E83120313FF000A168A150020C7
:101640000A128A15B2000A168A1500200A128A1593
:10165000B3000A168A1500200A128A15B400033056
:10166000C6004608AE000A30A6000030A7004A08AF
:10167000A800A901A81BA9030A168A15FE250A12AB
:101680008A15831203132608093E0A168A15C022FA
:101690000A128A153A3E840098300318013E8312DC
:1016A0000313FF000A168A1500200A128A15B500D6
:1016B0000A168A1500200A128A15B6000A168A151B
:1016C00000200A128A15B7000A168A1171238312A4
:1016D00003133208C2003308C3003408C4000800F2
:1016E0000330C5004508AE004A080A168A15C02214
:1016F0000A128A153A3E840098300318013E83127C
:101700000313FF000A168A1500200A128A15C20068
:101710000A168A1500200A128A15C3000A168A15AD
:101720000020C40008004A08803A123E031C642CC2
:101730000330C5004508AE000A30A6000030A700FF
:101740004A08A200A301A21BA3036430A00000303A
:10175000A1000A168A150B250A128A158312031393
:101760002108A9002008A8000A168A15FE250A12D9
:101770008A15831203132608093E0A168A15C02209
:101780000A128A15613E840098300318013E8312C4
:101790000313FF000A168A1500200A128A15B200E8
:1017A0000A168A1500200A128A15B3000A168A152D
:1017B00000200A128A15B4000330C6004608AE00A5
:1017C0006430A6000030A7004A08A800A901A81BA1
:1017D000A9030A168A15FE250A128A158312031315
:1017E0002608123E0A168A15C0220A128A15613E80
:1017F000840098300318013E83120313FF000A1679
:101800008A1500200A128A15B5000A168A150020CA
:101810000A128A15B6000A168A1500200A128A15BD
:10182000B7000A168A1171230A128A15831203134C
:101830003208C7003308C8003408C9000330C500A7
:101840004508AE004A08A200A301A21BA3030A3068
:10185000A0000030A1000A168A150B250A128A156D
:101860008312031320080A168A15C0220A128A1549
:10187000613E840098300318013E83120313FF0079
:101880000A168A1500200A128A15B2000A168A154D
:1018900000200A128A15B3000A168A1500200A12BF
:1018A0008A15B4004708B5004808B6004908B700D3
:1018B0000A168A117123831203133208C2003308F7
:1018C000C3003408C40008004A08803A753E031C6F
:1018D000DE2C0330C5004508AE004A08A200A30173
:1018E000A21BA3030A30A0000030A1000A168A152B
:1018F0000B250A128A158312031320080A168A156B
:10190000C0220A128A15613E840098300318013EF5
:1019100083120313FF000A168A1500200A128A1583
:10192000B2000A168A1500200A128A15B3000A1698
:101930008A1500200A128A15B4000330C600460832
:10194000AE000A30A6000030A7004A08A800A9018E
:10195000A81BA9030A168A15FE250A128A158312E6
:1019600003132608093E0A168A15C0220A128A1590
:10197000613E840098300318013E83120313FF0078
:101980000A168A1500200A128A15B5000A168A1549
:1019900000200A128A15B6000A168A1500200A12BB
:1019A0008A15B7000A168A117123831203133208AD
:1019B000C2003308C3003408C40008000330C50067
:1019C0004508AE004A080A168A15C0220A128A156E
:1019D000613E840098300318013E83120313FF0018
:1019E0000A168A1500200A128A15C2000A168A15DC
:1019F00000200A128A15C3000A168A150020C400A6
:101A0000080083120313071508140330D900973018
:101A1000D800D80B092DD90B092D0E2D00300A1630
:101A20008A15A6250A128A15831203135208DC00B0
:101A30005308DD005408DE005C08B2005D08B30006
:101A40005E08B400973084009830FF000A168A15AB
:101A500000200A128A15A0000A168A1500200A1210
:101A60008A15A100973084009830FF000A168A1565
:101A700000200A128A15D8000A168A1500200A12B8
:101A80008A15D9008B3084009830FF000A168A1519
:101A900000200A128A15DA000A168A1500200A1296
:101AA0008A15DB0058085A07A20059080318590A7A
:101AB0005B07A3000A128A11C2270A128A15831231
:101AC00003132108A9002008A8000A168A15D322AA
:101AD0000A128A15831203132808B5002908B600D4
:101AE0002A08B7000A168A1171230A128A1583126E
:101AF0000313320883160313A00083120313330861
:101B000083160313A10083120313340883160313EF
:101B1000A20001300A168A15A6250A128A15831218
:101B200003135208DC005308DD005408DE005C0893
:101B3000B2005D08B3005E08B400973084009830AE
:101B4000FF000A168A1500200A128A15A0000A163C
:101B50008A1500200A128A15A10097308400983057
:101B6000FF000A168A1500200A128A15D8000A16E4
:101B70008A1500200A128A15D9008D308400983009
:101B8000FF000A168A1500200A128A15DA000A16C2
:101B90008A1500200A128A15DB0058085A07A2008D
:101BA00059080318590A5B07A3000A128A11C227B1
:101BB0000A128A15831203132108A9002008A8001D
:101BC0000A168A15D3220A128A15831203132808CB
:101BD000B5002908B6002A08B7000A168A11712331
:101BE0000A128A1583120313320883160313A30003
:101BF00083120313330883160313A4008312031301
:101C0000340883160313A50005300A168A15A62585
:101C10000A128A15831203135208DC005308DD00F0
:101C20005408DE005C08B2005D08B3005E08B40032
:101C3000973084009830FF000A168A1500200A1297
:101C40008A15A0000A168A1500200A128A15A1001A
:101C5000973084009830FF000A168A1500200A1277
:101C60008A15D8000A168A1500200A128A15D9008A
:101C70008F3084009830FF000A168A1500200A125F
:101C80008A15DA000A168A1500200A128A15DB0066
:101C900058085A07A20059080318590A5B07A300FD
:101CA0000A128A11C2270A128A1583120313210805
:101CB000A9002008A8000A168A15D3220A128A153C
:101CC000831203132808B5002908B6002A08B700B4
:101CD0000A168A1171230A128A1583120313320815
:101CE00083160313A600831203133308831603130A
:101CF000A70083120313340883160313A80083126A
:101D00000313081087150330D9009730D800D80B7B
:101D1000872ED90B872E8C2E06300A168A15A625FB
:101D20000A128A15831203135208DC005308DD00DF
:101D30005408DE005C08B2005D08B3005E08B40021
:101D4000973084009830FF000A168A1500200A1286
:101D50008A15A0000A168A1500200A128A15A10009
:101D6000973084009830FF000A168A1500200A1266
:101D70008A15D8000A168A1500200A128A15D90079
:101D8000913084009830FF000A168A1500200A124C
:101D90008A15DA000A168A1500200A128A15DB0055
:101DA00058085A07A20059080318590A5B07A300EC
:101DB0000A128A11C2270A128A15831203132108F4
:101DC000A9002008A8000A168A15D3220A128A152B
:101DD000831203132808B5002908B6002A08B700A3
:101DE0000A168A1171230A128A1583120313320804
:101DF00083160313A90083120313330883160313F6
:101E0000AA0083120313340883160313AB000330B4
:101E10000A168A15A6250A128A1583120313520878
:101E2000DC005308DD005408DE005C08B2005D08E9
:101E3000B3005E08B400973084009830FF000A16A3
:101E40008A1500200A128A15A0000A168A15002099
:101E50000A128A15A100973084009830FF000A16F4
:101E60008A1500200A128A15D8000A168A15002041
:101E70000A128A15D900933084009830FF000A16A0
:101E80008A1500200A128A15DA000A168A1500201F
:101E90000A128A15DB0058085A07A20059080318CD
:101EA000590A5B07A3000A128A11C2270A128A156F
:101EB000831203132108A9002008A8000A168A1516
:101EC000D3220A128A15831203132808B5002908A1
:101ED000B6002A08B7000A168A1171230A128A1559
:101EE00083120313320883160313AC008312031307
:101EF000330883160313AD008312031334088316CB
:101F00000313AE0004300A168A15A6250A128A1594
:101F1000831203135208DC005308DD005408DE006E
:101F20005C08B2005D08B3005E08B400973084001E
:101F30009830FF000A168A1500200A128A15A000A0
:101F40000A168A1500200A128A15A100973084000B
:101F50009830FF000A168A1500200A128A15D80048
:101F60000A168A1500200A128A15D90095308400B5
:101F70009830FF000A168A1500200A128A15DA0026
:101F80000A168A1500200A128A15DB0058085A071B
:101F9000A20059080318590A5B07A3000A128A1104
:101FA000C2270A128A15831203132108A9002008E8
:101FB000A8000A168A15D3220A128A15831203135F
:101FC0002808B5002908B6002A08B7000A168A11A1
:101FD000712383120313320883160313AF00831295
:101FE0000313330883160313B0008312031334085A
:101FF00083160313B100831203138711071108001E
:10200000D73423343C34663486344034F401F5014B
:1020100083120313201C12282208F4070318F50A60
:102020002308F50701300310A20DA30DFF3E031D89
:10203000132801300310A10CA00CFF3E031D1A2829
:1020400020082104031D08287508A1007408A000B9
:102050000800831203134B08CF004C08D0004D0832
:10206000D1000310500D510DD2005208D80058086D
:10207000031D43280030CE000030CD000030CC00DE
:102080000030CB0008004B08CF004C08D0004D08B2
:10209000D10017300310D10CD00CCF0CFF3E031D24
:1020A0004A284F08D2005208D300CC17FF30CB0586
:1020B000FF30CC050030CD054B08D4004C08D500CE
:1020C0004D08D600D7018E30D802D81F8528580871
:1020D000803A8F3E031875280030CE000030CD00C6
:1020E0000030CC000030CB00080001300310D70CCA
:1020F000D60CD50CD40CFF3E031D76280130CF0042
:102100004F08D8070319A028752818305802031C57
:102110009D280030CE000030CD000030CC000030D3
:10212000CB0008000130CF000310D40DD50DD60D23
:10213000D70DCF0B94280130D8025808031D9228E0
:1021400053080319AE28D409D509D609D709D40AEA
:102150000319D50A0319D60A0319D70A5708CE005E
:102160005608CD005508CC005408CB000800C030FC
:1021700083120313C2007F30C3004430C4008316AF
:102180000313660883120313B20083160313670850
:1021900083120313B3008316031368088312031317
:1021A000B40007300A168A1552240A168A117508D7
:1021B00083120313A9007408A8000A168A15D322F3
:1021C0000A168A11831203132808B5002908B600DD
:1021D0002A08B7000A168A1171230A168A11831277
:1021E00003133208C5003308C6003408C7000A16B6
:1021F0008A11F6210A168A11831203134208D200AB
:102200004308D3004408D4008316031363088312E1
:102210000313B20083160313640883120313B3007D
:1022200083160313650883120313B40079080A1692
:102230008A1522230A168A11831203132808B5006F
:102240002908B6002A08B7000A168A1171230A164F
:102250008A11831203133208C2003308C300340802
:10226000C4005208C5005308C6005408C7000A1627
:102270008A11F62183120313420883160313B20056
:1022800083120313430883160313B300831203134B
:10229000440883160313B4000800831203130610C6
:1022A000881300300A168A15EB220A168A110230AA
:1022B00083120313A5000430A400BA30A300A30BBB
:1022C0005F29A40B5F29A50B5F29000030300A1697
:1022D0008A15EB220A168A114E3083120313A400CA
:1022E000EB30A300A30B7229A40B72290A168A15DE
:1022F0009F220A168A111A3083120313A400F830A1
:10230000A300A30B8129A40B812900000A168A15BA
:102310009F220A168A111A3083120313A400F83080
:10232000A300A30B9129A40B912900000A168A157A
:102330009F220A168A111A3083120313A400F83060
:10234000A300A30BA129A40BA129000020300A1689
:102350008A15EB220A168A110A168A159F220A1676
:102360008A1128300A168A158B230A168A111A3008
:1023700083120313A400F830A300A30BBD29A40B00
:10238000BD29000010300A168A158B230A168A11FF
:102390001A3083120313A400F830A300A30BCE2934
:1023A000A40BCE2900000F300A168A158B230A16BB
:1023B0008A111A3083120313A400F830A300A30B70
:1023C000DF29A40BDF29000006300A168A158B23AB
:1023D0000A168A111A3083120313A400F830A300DE
:1023E000A30BF029A40BF0290000080083120313AB
:1023F0004508C8004608C9004708CA000310490D2F
:102400004A0DCB004B08D0005008031D0E2A0030A7
:10241000C2000030C3000030C40008004208C800F9
:102420004308C9004408CA000310490D4A0DCB00F7
:102430004B08D1005108031D242A0030C20000308F
:10244000C3000030C40008000030CD000030CE00D2
:102450000030CF0089305107C8004808D002450835
:10246000C8004608C9004708CA0010300310CA0C4B
:10247000C90CC80CFF3E031D362A4808CB004B0888
:10248000D1004208C8004308C9004408CA001030FF
:102490000310CA0CC90CC80CFF3E031D482A48088B
:1024A000CB004B08D1068030C8004808D105C617BC
:1024B000FF30C505FF30C6050030C705C317FF3024
:1024C000C205FF30C3050030C4051830C8004808F5
:1024D000CC0001300310CD0DCE0DCF0DFF3E031DFE
:1024E0006A2A44084702031D7B2A43084602031D4B
:1024F0007B2A42084502031C882A4208C502430879
:10250000031C430FC6024408031C440AC7024D14AF
:1025100001300310C50DC60DC70DFF3E031D892AEE
:102520000130CC02031D692A4D08A0004E08A1000D
:102530004F08A2005008C8004808A3005108C9006D
:102540004908A4000A168A152327831203132008BA
:10255000C2002108C3002208C4000800831203132C
:102560002008A6002108A7002208A8000310270DB4
:10257000280DA9002908AF002F08031DC82A003024
:10258000A3000030A2000030A1000030A00008002D
:102590002308A6002408A7002508A8000310270D7B
:1025A000280DA9002908AE002E08031DE02A0030DE
:1025B000A3000030A2000030A1000030A0000800FD
:1025C000A117FF30A005FF30A1050030A205A41718
:1025D000FF30A305FF30A4050030A5050030AD0095
:1025E0000030AC000030AB000030AA007F30AF02FA
:1025F00098302E07A6002608AF021830A60026083D
:10260000AE000130A6000310AA0DAB0DAC0DAD0D50
:10261000A60B032B25082202031D142B24082102DC
:10262000031D142B23082002031C212B2308A002C6
:102630002408031C240FA1022508031C250AA2025A
:102640002A1401300310A00DA10DA20DFF3E031DA1
:10265000222B0130AE02031D012BAF1F4D2B2F0883
:10266000803A973E03183D2B0030A3000030A200B3
:102670000030A1000030A000080001300310AD0CB4
:10268000AC0CAB0CAA0CFF3E031D3E2B0130A60088
:102690002608AF070319682B3D2B18302F02031CA7
:1026A000652B0030A3000030A2000030A1000030F4
:1026B000A00008000130A6000310AA0DAB0DAC0D60
:1026C000AD0DA60B5C2B0130AF022F08031D5A2B5A
:1026D0002D08A3002C08A2002B08A1002A08A000A6
:1026E0000800831203133208B8003308B900340815
:1026F000BA000310390D3A0DBB003B08BC003C0882
:10270000031D892B0030B2000030B3000030B4004C
:1027100008003508B8003608B9003708BA000310B9
:10272000390D3A0DBB003B08C1004108031D9F2B2A
:102730000030B2000030B3000030B400080041089F
:102740007B3EB8003808BC073208B8003308B9002F
:102750003408BA0010300310BA0CB90CB80CFF3EA4
:10276000031DAB2B3808BB003B08C1003508B8007F
:102770003608B9003708BA0010300310BA0CB90C8B
:10278000B80CFF3E031DBD2B3808BB003B08C1063B
:102790008030B8003808C105B317B617FF30B5054B
:1027A000FF30B6050030B7050030BD000030BE0078
:1027B0000030BF000730B8003808C000321CEE2BD4
:1027C0003508BD07360803110318360A031DBE0776
:1027D000370803110318370A031DBF070130031020
:1027E000B40CB30CB20CFF3E031DEF2B01300310F1
:1027F000B50DB60DB70DFF3E031DF72B0130C0021E
:10280000031DDE2B0930B8003808C000321C162C1E
:102810003508BD07360803110318360A031DBE0725
:10282000370803110318370A031DBF0701300310CF
:10283000B40CB30CB20CFF3E031D172C0130031077
:10284000BF0CBE0CBD0CFF3E031D1F2C0130C0028F
:10285000031D062C3D08A0003E08A1003F08A20071
:102860003C08B8003808A3004108B9003908A400A2
:102870000A168A152327831203132008B2002108A1
:10288000B3002208B4000800831203135208D800D2
:102890005308D9005408DA000310590D5A0DDB0013
:1028A0005B08DE005508D8005608D9005708DA0042
:1028B0000310590D5A0DDB005B08DD005E0803199B
:1028C0006D2C5D085E020318742C5E03FF3A5D07F1
:1028D000D80019305802031C742C5508D200560831
:1028E000D3005708D40008005D08031908005E08EB
:1028F0005D020318832C5D03FF3A5E07D800193090
:102900005802031808000630D8005808DC00D41B11
:10291000DC17D71B5C17D317FF30D205FF30D30568
:102920000030D405D617FF30D505FF30D60500306E
:10293000D7055D085E020318C32C01300310D50DC6
:10294000D60DD70DFF3E031D9E2C0130DD025D0824
:102950005E060319BE2C0130DC025C08073903193E
:10296000BE2C9D2C01300310D40CD30CD20CFF3E96
:10297000031DB32C0130D8005808DE075E085D0641
:102980000319EC2CB22C5E085D020318EC2C01300C
:102990000310D20DD30DD40DFF3E031DC82C013002
:1029A000DE025D085E060319E82C0130DC025C08DB
:1029B00007390319E82CC72C01300310D70CD60CAB
:1029C000D50CFF3E031DDD2C0130D8005808DD0773
:1029D0005E085D06031DDC2CDC1FFE2CFF30D206DA
:1029E000FF30D306FF30D4060130D2070030031881
:1029F0000130D307003003180130D4075C1F102DBD
:102A0000FF30D506FF30D606FF30D7060130D50798
:102A1000003003180130D607003003180130D70703
:102A2000DC015208D507530803110318530A031D8C
:102A3000D607540803110318540A031DD707D71FDC
:102A4000332DFF30D506FF30D606FF30D7060130D4
:102A5000D507003003180130D607003003180130C5
:102A6000D707DC01DC0A5508A0005608A10057086A
:102A7000A2005E08D8005808A3005C08D9005908D5
:102A8000A4000A168A152327831203132008D200F4
:102A90002108D3002208D4000800203084008313CA
:102AA000000883120313A600840A0008A700840A02
:102AB0000008A800840A0008A9000310280D290DA9
:102AC000AA002A08B3003308031D6F2D0030A300AD
:102AD0000030A2000030A1000030A0000800233028
:102AE00084000008A600840A0008A700840A0008E1
:102AF000A800840A0008A9000310280D290DAA00C7
:102B00002A08B2003208031D8E2D0030A3000030C9
:102B1000A2000030A1000030A00008002030840096
:102B200000308004840A00308004840A80308004ED
:102B3000840A0030800420308400FF308005840A3D
:102B4000FF308005840AFF308005840A003080054C
:102B50002330840000308004840A00308004840A1A
:102B600080308004840A0030800423308400FF30E9
:102B70008005840AFF308005840AFF308005840ABE
:102B8000003080050030B1000030B0000030AF00F0
:102B90000030AE007F30B302A0303207A600260816
:102BA000B3022030A6002608B2000130A6000310B0
:102BB000AE0DAF0DB00DB10DA60BD72D2330840097
:102BC0000008A600840A0008A700840A0008A800DC
:102BD000840A0008A900203084000008AA00840AA2
:102BE0000008AB00840A0008AC00840A0008AD00AD
:102BF00029082D02031D062E28082C02031D062E6F
:102C000027082B02031D062E26082A02031C2B2E42
:102C1000233084000008A600840A0008A700840A64
:102C20000008A800840A0008A900203084002608B3
:102C30008002840A2708031C270F8002840A2808C0
:102C4000031C280F8002840A2908031C290A800219
:102C5000033084022E14203084000310800D840A77
:102C6000800D840A800D840A800D8403840384030C
:102C70000130B202031DD52DB31F5C2E3308803AFC
:102C80009F3E03184C2E0030A3000030A2000030FD
:102C9000A1000030A000080001300310B10CB00CFE
:102CA000AF0CAE0CFF3E031D4D2E0130A6002608D2
:102CB000B3070319772E4C2E20303302031C742ED9
:102CC0000030A3000030A2000030A1000030A000BE
:102CD00008000130A6000310AE0DAF0DB00DB10D10
:102CE000A60B6B2E0130B3023308031D692E310889
:102CF000A3003008A2002F08A1002E08A0000800A1
:102D0000EA2FB53083120313E7000030E800993052
:102D1000E9009830EA000A168A15C5240A168A11B5
:102D2000831203135F08EB006008EC006108ED00FC
:102D30000A128A1158200A168A1100300A168A15BA
:102D400019240A168A11B53083120313A300003028
:102D5000A4000A168A158B240A168A119030831251
:102D60000313E7000130E800AE30E9009830EA00D4
:102D700083160313320883120313EB008316031325
:102D8000330883120313EC008316031334088312F1
:102D90000313ED000A128A1158200A168A11103006
:102DA0000A168A1519240A168A1190308312031301
:102DB000A3000130A4000A168A158B240800B53040
:102DC00083120313E7000030E800D330E9009830A5
:102DD000EA0083160313200883120313EB00831603
:102DE0000313210883120313EC0083160313220834
:102DF00083120313ED000A128A1158200A168A1151
:102E000000300A168A1519240A168A11B530831261
:102E10000313A3000030A4000A168A158B240A1697
:102E20008A11903083120313E7000130E800E43088
:102E3000E9009830EA000330A03E840083130008C4
:102E4000EB00840A0008EC00840A0008ED000A1276
:102E50008A1158200A168A1110300A168A15192468
:102E60000A168A11903083120313A3000130A400C4
:102E70000A168A158B240800B53083120313E70065
:102E80000030E800F530E9009830EA000630A03E56
:102E9000840083130008EB00840A0008EC00840A15
:102EA0000008ED000A128A1158200A168A11003013
:102EB0000A168A1519240A168A11B53083120313CB
:102EC000A3000030A4000A168A158B240A168A1162
:102ED000903083120313E7000130E8000630E90068
:102EE0009930EA000930A03E840083130008EB000B
:102EF000840A0008EC00840A0008ED000A128A1116
:102F000058200A168A1110300A168A1519240A1632
:102F10008A11903083120313A3000130A4000A1613
:102F20008A158B240800B53083120313E7000030A4
:102F3000E8001730E9009930EA000C30A03E840028
:102F400083130008EB00840A0008EC00840A0008E0
:102F5000ED000A128A1158200A168A1100300A164A
:102F60008A1519240A168A11B53083120313A30097
:102F70000030A4000A168A158B240A168A11903094
:102F800083120313E7000130E8002830E90099308C
:102F9000EA000F30A03E840083130008EB00840A8F
:102FA0000008EC00840A0008ED000A128A1158207B
:102FB0000A168A1110300A168A1519240A168A115F
:102FC000903083120313A3000130A4000A168A155F
:102FD0008B240800831203136F08003A0319F12FA2
:102FE000FF2F6E08003A0319812E013A0319DF2ED4
:102FF000033A03193C2F013A0319932FFF2F0800BE
:10300000FF1B0A2883137F1883170008840A0319FB
:10301000FF0A08007F087F398A000408840A031920
:10302000FF0A820001340034003400340A340034D2
:10303000003400346434003400340034E8340334A1
:10304000003400341034273400340034A034863483
:1030500001340034403442340F3400348034963428
:10306000983400340034E134F53405340034CA3483
:103070009A343B34003480343F34CD34CC343D3446
:10308000D73423343C34123483343A34B734D13413
:103090003834C63427343734383486343534C03481
:1030A000D6343334CC342B34323470348934303425
:1030B000E734DB342E34E5343C341E344234A2345D
:1030C0000D34003480343F34003420344134003433
:1030D000C834423400347A34443440341C344634E6
:1030E0005034C33447342434743449349734183456
:1030F0004B34BC34BE344C346B346E344E340334F5
:10310000153450347934AD346034F3344934713487
:103110009E348F343F34983408345C341234103485
:1031200027346C34393420344E347C346034983451
:10313000083456346F346C34743461346734653415
:103140003A3425342E343334663420345634203423
:103150002034203420342034203400344334753477
:103160007234723465346E3474343A3425342E3407
:103170003334663441342034203420342034203435
:1031800020340034203420342034203420342034BF
:10319000203420342034203420342034203420348F
:1031A000203420340034433465346C346C3420349F
:1031B00031343A3425342E343234663420342034D9
:1031C0002034203420340034433465346C346C347F
:1031D000203432343A3425342E34323466342034B8
:1031E00020342034203420340034433465346C34AB
:1031F0006C34203433343A3425342E34323466344B
:1032000020342034203420342034003443346534D6
:103210006C346C34203434343A3425342E34323423
:1032200066342034203420342034203400344334B5
:1032300065346C346C34203435343A3425342E34CF
:1032400032346634203420342034203420340034A6
:10325000433465346C346C34203436343A34253499
:103260002E34323466342034203420342034203458
:02327000003428
:1034CA0064008001840A0406031900340406662A8B
:1034DA0083120313220821042004031908008030F0
:1034EA00A20608007308FF0072088A0071088400A7
:1034FA00700E8300FE0E7E0E0900F500F4013A30CC
:10350A00750203188E2A30307502031C8E2AF401C4
:10351A00F40A740C08008130831203139F00703080
:10352A00831603139F00831203139E01831603134A
:10353A009E0108008312031386140330F5009730A6
:10354A00F400F40BA62AF50BA62AAB2A831203135E
:10355A008610080083120313A00020080A168A1591
:10356A00EB220A168A1583120313061088130A1609
:10357A008A159F22080083120313B100B001311C7F
:10358A00CA2A2E08AF002F08B0070310AE0D031089
:10359A00B10C3108031DC42A300808008312031332
:1035AA002808A0002908A100A2018E30AB002B0830
:1035BA00A300A4010A168A152327831203132008DD
:1035CA00A8002108A9002208AA000800F400741E15
:1035DA00F22A831203130615F52A8312031306111E
:1035EA00F41EF92A8615FA2A8611741FFE2A06166F
:1035FA00FF2A0612F41F032B8616080086120800FB
:10360A0083120313881A08008230F500DD30F400B3
:10361A00F40B0D2BF50B0D2B122B83120313881AA7
:10362A000800881E162B0130F4007408F8070430CD
:10363A007802031C0800F8010800F40074088312D9
:10364A000313AB00AC01AD012B08A0002C08A100AC
:10365A002D08A2008E30AE002E08A300A4010A167F
:10366A008A152327831203132008A8002108A9001A
:10367A002208AA00080083120313610860045F0489
:10368A000319492B8030E1066208D2006308D3008F
:10369A006408D4005F08D5006008D6006108D70026
:1036AA000A168A114424831203135208DF005308AE
:1036BA00E0005408E100080083120313A200220864
:1036CA000A168A15EB220A168A15831203130614A0
:1036DA000A168A159F220A168A15831203132208CC
:1036EA00A00003300310A00DFF3E031D772B03102B
:1036FA00200DA1002108A20022080A168A15EB2231
:10370A000A168A150A168A159F22080083120313BD
:10371A00A20022080A168A15EB220A168A158312B3
:10372A000313061088130A168A159F220A168A1589
:10373A00831203132208A00003300310A00DFF3EDA
:10374A00031DA22B0310200DA1002108A2002208AC
:10375A000A168A15EB220A168A150A168A159F2254
:10376A0008008E30F4007408F500FF30831203134A
:10377A002B050319D02B0130031083120313AB0C52
:10378A00AA0CA90CA80CFF3E031DC12B0130F400A2
:10379A007408F507BA2B2808A0002908A1002A08EE
:1037AA00A2007508F4007408A300A4010A168A1579
:1037BA002327831203132008A8002108A90022083E
:1037CA00AA0008007030831603138F040F103F30CD
:1037DA008500860187012030880007308900FF3084
:1037EA0091008312031385018601870188018901EB
:1037FA000730831603139C048312031787010912E7
:10380A008312031397019D018316031381178312F1
:10381A000313081108130A168A1590220A168A1524
:10382A000A168A114D21080083120313A300231ECE
:10383A00382CC0300A168A15AF220A168A15831246
:10384A0003132308A10003300310A10DFF3E031D3B
:10385A00292C0310210DA2002208A30023080A160E
:10386A008A15AF22080080300A168A15AF220A1676
:10387A008A15831203132308A10003300310A10D34
:10388A00FF3E031D432C0310210DA2002208A300B2
:10389A0023080A168A15AF22080083120313A2000E
:1038AA002208A000A00DA00D1F082006E33920065B
:1038BA009F001F140630A000A00B612C0000831289
:1038CA0003139F14A301A4019F18692C1E08A000CA
:1038DA00A1012008A3002108A4002308A100A00137
:1038EA002008A3002108A4002308831603131E043A
:1038FA0083120313A0002408A1002008A3002108B2
:10390A00A4002408F5002308F40008008312031316
:10391A00A801A90128082307A6002408A50003185E
:10392A00A50AA81BA503831203132508A7002608C6
:10393A0084008317271C831300080319080028082A
:10394A002307A6002408A5000318A50AA81BA50397
:10395A00831203132508A700260884008317271C4F
:10396A00831300080A168A1561230A168A1501307C
:10397A0083120313A8070318A90A0030A9078F2C7A
:10398A00003083120313E3000030E4000030E50046
:10399A00E601063066020318042D0330E2006208CD
:1039AA00AE0066080A168A15C0220A168A15A03EB3
:1039BA0084008313000883120313D200840A0008C8
:1039CA00D300840A0008D4006308D5006408D6002E
:1039DA006508D7000A168A1144240A168A15831222
:1039EA0003135208E3005308E4005408E5000130C9
:1039FA00E2006208E60706306602031CD22C63085E
:103A0A00DF006408E0006508E10008008312031380
:103A1A00A501A31F172DA209A309A20A0319A30A24
:103A2A00A501A50AA11F1E2DA009A109A00A031913
:103A3A00A10A2008210403194B2DA401A40AA11BE1
:103A4A00322D01300310A00DA10DFF3E031D272DBD
:103A5A000130F4007408A407242D21082302031D51
:103A6A00382D20082202031C402D2008A20221081A
:103A7A00031CA303A30201300310A10CA00CFF3EF8
:103A8A00031D412D0130A402031D322D25080319FF
:103A9A00532DA209A309A20A0319A30A2308A10004
:103AAA002208A00008008312031323082204210419
:103ABA00200403199D2DF501F50AA31B722D01306F
:103ACA00F4000310A00DA10DA20DA30DF40B662D99
:103ADA000130F4007408F507622D23082702031D3C
:103AEA00802D22082602031D802D21082502031D90
:103AFA00802D20082402031C902D2008A4022108EE
:103B0A00031C210FA5022208031C220FA602230868
:103B1A00031C230FA70201300310A30CA20CA10C53
:103B2A00A00CFF3E031D912D0130F502031D722DDD
:103B3A002708A3002608A2002508A1002408A0003F
:103B4A00080083120313D7000D30D600FB30D500CE
:103B5A00D50BAD2DD60BAD2DB22DC030831203136C
:103B6A00C2007F30C3004430C400831603136608C2
:103B7A0083120313B2008316031367088312031315
:103B8A00B30083160313680883120313B40057089B
:103B9A000A168A1552240A168A15750883120313FF
:103BAA00A9007408A8000A168A15D3220A168A15CB
:103BBA00831203132808B5002908B6002A08B7009B
:103BCA000A168A1171230A168A15831203133208F8
:103BDA00C5003308C6003408C7000A168A11F62140
:103BEA00831203134208D2004308D3004408D400C6
:103BFA00080083120313AB01A71F0A2EA609A709FF
:103C0A00A60A0319A70AAB01AB0AA91F152EA80910
:103C1A00A909A80A0319A90A0130F5007508AB0613
:103C2A00AC01AD012608270403194C2EAA01AA0AE1
:103C3A00A71B2B2E01300310A60DA70DFF3E031D57
:103C4A00202E0130F5007508AA071D2E0130031039
:103C5A00AC0DAD0DFF3E031D2C2E27082902031DB6
:103C6A00382E26082802031C412E2608A8022708F7
:103C7A00031CA903A9022C1401300310A70CA60CDB
:103C8A00FF3E031D422E0130AA02031D2B2E2B08D4
:103C9A000319542EAC09AD09AC0A0319AD0A2D0853
:103CAA00A7002C08A600080083120313A21F822E65
:103CBA000030A6000030A7008030A8002009A90023
:103CCA002109AA002209AB00A90A0319AA0A0319A1
:103CDA00AB0A2908A6072A0803182A0F752E762E7A
:103CEA00A7072B0803182B0F7B2E7C2EA807260864
:103CFA00A0002708A1002808A200A51FA92E0030AD
:103D0A00A6000030A7008030A8002309A9002409D2
:103D1A00AA002509AB00A90A0319AA0A0319AB0AC2
:103D2A002908A6072A0803182A0F9C2E9D2EA707E2
:103D3A002B0803182B0FA22EA32EA8072608A300D0
:103D4A002708A4002808A5008030A2068030A5060E
:103D5A0025082202031D080024082102031D080069
:103D6A0023082002080083120313881407150D3054
:103D7A00D300FB30D200D20BC02ED30BC02EC52EDF
:103D8A0002300A168A1552240A168A157508F7008F
:103D9A007408F60083120313881007117708A90024
:103DAA007608A8000A168A15D3220A168A158312DB
:103DBA0003132808C2002908C3002A08C400C03017
:103DCA00B2007F30B3004430B400883084009830A9
:103DDA00FF000A168A1500200A168A15B5000A1667
:103DEA008A1500200A168A15B6000A168A150020B6
:103DFA000A168A15B7000A168A1171230A168A1535
:103E0A00831203133208C5003308C6003408C700FA
:103E1A000A168A11F6218312031342088316031322
:103E2A00E60083120313430883160313E700831281
:103E3A000313440883160313E800080083120313CC
:103E4A00230803192D2F220821042004031D402FC3
:103E5A000030A0000030A1000030A20008000130AC
:103E6A00A5002508A30701300310A20CA10CA00C81
:103E7A00FF3E031D392FFE30220503195B2F342F15
:103E8A000130A5002508A3070130A0070030031858
:103E9A000130A107003003180130A20701300310D6
:103EAA00A20CA10CA00CFF3E031D542FFF302205CB
:103EBA0003196E2F452F02302302031C702F013085
:103ECA00A30201300310A00DA10DA20DFF3E031D98
:103EDA00672FA11F602F2318782FFF30A0057F308E
:103EEA00A105FF30A2050310A30C2308A500A60113
:103EFA00A70110300310A50DA60DA70DFF3E031D47
:103F0A007F2F2508A0042608A1042708A204240854
:103F1A0003190800A21708000A168A15E7230A16C9
:103F2A008A15831203130816B530E7000030E8003B
:103F3A00C230E9009830EA000A128A1158200A169B
:103F4A008A1500300A168A1519240A168A15B530F8
:103F5A0083120313A3000030A4000A168A158B24C7
:103F6A000A168A15903083120313E7000130E8001D
:103F7A00C230E9009830EA000A128A1158200A165B
:103F8A008A1510300A168A1519240A168A159030CD
:103F9A0083120313A3000130A4000A168A158B2486
:103FAA000A168A150A168A15B8260A168A150A16CC
:103FBA008A11B7200A168A150A128A1501250A16C5
:103FCA008A150A168A1505230A168A157808831689
:103FDA000313E100E201610883120313EE00831662
:103FEA000313620883120313EF000A168A1180264C
:063FFA000A168A15D72FFC
:02400E00F4E4D8
:00000001FF
