:100000000A128A11FC2F00308A000408840A820731
:10001000003401340034003400340A340034003435
:1000200000346434003400340034E83403340034E1
:1000300000341034273400340034A03486340134C2
:100040000034403442340F340034803496349834D1
:1000500000340034E134F53405340034CA349A34C1
:100060003B34003480343F34CD34CC343D34D73449
:1000700023343C34123483343A34B734D1343834F2
:10008000C63427343734383486343534C034D63423
:100090003334CC342B343234703489343034E73454
:1000A000DB342E34E5343C341E344234A2340D3477
:1000B000003480343F340034203441340034C834B8
:1000C000423400347A34443440341C34463450349E
:1000D000C3344734243474344934973418344B349B
:1000E000BC34BE344C346B346E344E34033415346B
:1000F00050347934AD346034F334493471342534B8
:0A0100006434003425346634003402
:0A0FF600FB2F83010A128A11FB2F62
:02400E00F4F4C8
:00000001FF
