:060000000A128A11122809
:10000800FE00030EF4000408F5000A08F600831247
:1000180003137F08F7000A168A111A2E0A128A118A
:100028001528FC01FD01EF018313CB308400E83073
:100038000A168A11D6250A128A118317903084006D
:10004800C0300A168A11D6250A128A11831603139C
:100058000A168A11CF250A128A11E8000A168A118F
:10006800D0250A128A11E9000A168A11D1250A1226
:100078008A11EA000A168A11D2250A128A11F80092
:100088000A168A11D3250A128A11F9000A168A114A
:10009800D4250A128A11FA000A168A11D525FB00FE
:1000A80083010A168A11232F83160313B100003027
:1000B800B0000030AF000030AE006430AD0000305A
:1000C800AC000030AB000030AA000030A900A60147
:1000D800A60AB201A701A8012808803AFF008030CB
:1000E8007F02031D792807302702031895288316F5
:1000F800031327083107A000200884008313800118
:100108000130A7070318A80A0030A8072808803A72
:10011800FF0080307F02031D932807302702031C4D
:100128007B28831603132C0883120313AB00831652
:1001380003132B0883120313AA00831603132A0838
:1001480083120313A90083160313290883120313C8
:10015800A8000A168A11F4260A128A1183120313B8
:100168002808AE002908AF002A08B0000A128A152C
:1001780049200A128A11831203132E08C3002F087C
:10018800C4003008C5006B08C0006C08C1006D08C9
:10019800C2000A128A1137260A128A11831203131F
:1001A8004008D0004108D1004208D200831603134A
:1001B800300883120313AB00831603132F0883122E
:1001C8000313AA00831603132E0883120313A9002E
:1001D800831603132D0883120313A8000A168A1125
:1001E800F4260A128A11831203132808CD0029085D
:1001F800CE002A08CF000A128A15AA240A128A11E8
:10020800831203134D08DD004E08DE004F08DF009F
:100218000A128A15DB220A128A11831203135D0857
:1002280083160313A00032083107A10021088400B7
:1002380020088313800032083107A00020088400BA
:100248000008A100A201A301A4012408831203133A
:10025800A30083160313230883120313A200831633
:100268000313220883120313A10083160313210822
:1002780083120313A0008316031330088312031399
:10028800A700831603132F0883120313A6008316EF
:1002980003132E0883120313A500831603132D08D6
:1002A80083120313A4000A128A15F0200A128A1175
:1002B80083120313200883160313A9078312031359
:1002C800210803110318013E03196D29831603132E
:1002D800AA0783120313220803110318013E031906
:1002E800782983160313AB0783120313230803111A
:1002F8000318013E0319832983160313AC078312DD
:10030800031383160313003083120313A300003072
:10031800A2000030A1000A30A000831603133008A1
:1003280083120313A700831603132F0883120313E2
:10033800A600831603132E0883120313A500831641
:1003480003132D0883120313A4000A128A158F21A0
:100358000A128A1183120313230883160313B000A9
:1003680083120313220883160313AF0083120313A7
:10037800210883160313AE00831203132008831683
:100388000313AD002603031DD82932083107A00046
:1003980020088400831300080319DC290130A00019
:1003A8002008B207A601DC290130A0002008B20706
:1003B80030082F042E042D04031D95283E30A0007C
:1003C80032083107A1002108840020088313800027
:1003D8000030B0000030AF000030AE000A30AD0091
:1003E8003208A0002008A5002508A000A101A00946
:1003F800A109A00A0319A10A32082007A2002108AE
:100408000318210AA3002308803A803C031D102A00
:100418002208831203136E02031C362B8316031360
:100428002C0883120313A300831603132B088312CB
:100438000313A200831603132A0883120313A100CF
:1004480083160313290883120313A0000030A700A2
:100458000030A6000030A5000A30A4000A128A1550
:10046800F0200A128A118312031323088316031338
:10047800AC0083120313220883160313AB00831204
:100488000313210883160313AA00831203132008F9
:1004980083160313A900300883120313AB008316D5
:1004A80003132F0883120313AA00831603132E08BD
:1004B80083120313A900831603132D088312031351
:1004C800A8000A168A11F4260A128A118312031345
:1004D8002808B3002908B4002A08B5006B08B00042
:1004E8006C08B1006D08B2000A128A1527260A1294
:1004F8008A11831203133008C3003108C40032087C
:10050800C500831603132C0883120313AB0083164C
:1005180003132B0883120313AA00831603132A0854
:1005280083120313A90083160313290883120313E4
:10053800A8000A168A11F4260A128A1183120313D4
:100548002808AE002908AF002A08B0000A128A1548
:1005580049200A128A11831203132E08C0002F089B
:10056800C1003008C2000A128A1137260A128A11FD
:10057800831203134008DD004108DE004208DF0053
:100588000A128A15DB220A128A11831203135D08E4
:1005980083160313A00032083107A1002108840044
:1005A800200883138000300883120313A3008316E6
:1005B80003132F0883120313A200831603132E08B4
:1005C80083120313A100831603132D088312031348
:1005D800A0000030A7000030A6000030A5000A30B7
:1005E800A4000A128A15F0200A128A118312031332
:1005F800230883160313B0008312031322088316FB
:100608000313AF0083120313210883160313AE00EC
:1006180083120313200883160313AD003208310731
:10062800A0002008840083130008A100A201A301F0
:10063800A4012108A907220803110318013E031D7C
:10064800AA07230803110318013E031DAB0724085A
:1006580003110318013E031DAC070130A000200858
:10066800B207F8298316031332080319502B3208EE
:100678003107A00020088400831300083F39A10037
:1006880032083107A20022088400210880000130C6
:10069800B2023208031D3B2B0130A0002008B2072C
:1006A80032083107A1002108840083138001080063
:1006B80083120313071508140D30E700FB30E6001A
:1006C800E60B642BE70B642B692B00300A128A15A2
:1006D8005D220A128A11831203135D08EA005E087C
:1006E800EB005F08EC006A08B0006B08B1006C080A
:1006F800B200133084000A128A150A200A128A11DD
:10070800A0000A128A150A200A128A11A1001330C1
:1007180084000A128A150A200A128A11E6000A12AF
:100728008A150A200A128A11E700073084000A1283
:100738008A150A200A128A11E8000A128A150A2064
:100748000A128A11E90066086807A20067080318F8
:10075800670A6907A3000A128A1571200A128A110A
:10076800831203132108A9002008A8000A168A1179
:1007780044260A128A11831203132808B300290891
:10078800B4002A08B5000A128A1527260A128A1107
:1007980083120313300883160313CB008312031349
:1007A800310883160313CC0083120313320883160F
:1007B8000313CD0001300A128A155D220A128A112C
:1007C800831203135D08EA005E08EB005F08EC0083
:1007D8006A08B0006B08B1006C08B20013308400DE
:1007E8000A128A150A200A128A11A0000A128A150A
:1007F8000A200A128A11A100133084000A128A15ED
:100808000A200A128A11E6000A128A150A200A1218
:100818008A11E700093084000A128A150A200A1290
:100828008A11E8000A128A150A200A128A11E900B8
:1008380066086807A20067080318670A6907A30023
:100848000A128A1571200A128A11831203132108C9
:10085800A9002008A8000A168A1144260A128A113B
:10086800831203132808B3002908B4002A08B50026
:100878000A128A1527260A128A11831203133008CE
:1008880083160313CE008312031331088316031350
:10089800CF0083120313320883160313D0000530E8
:1008A8000A128A155D220A128A11831203135D083F
:1008B800EA005E08EB005F08EC006A08B0006B080D
:1008C800B1006C08B200133084000A128A150A209D
:1008D8000A128A11A0000A128A150A200A128A111D
:1008E800A100133084000A128A150A200A128A11FC
:1008F800E6000A128A150A200A128A11E7000B304C
:1009080084000A128A150A200A128A11E8000A12BB
:100918008A150A200A128A11E90066086807A200E7
:1009280067080318670A6907A3000A128A15712065
:100938000A128A11831203132108A9002008A800AB
:100948000A168A1144260A128A11831203132808E8
:10095800B3002908B4002A08B5000A128A15272608
:100968000A128A1183120313300883160313D10065
:1009780083120313310883160313D200831203135F
:10098800320883160313D300831203130810871544
:100998000D30E700FB30E600E60BD02CE70BD02C3F
:1009A800D52C06300A128A155D220A128A11831282
:1009B80003135D08EA005E08EB005F08EC006A08B4
:1009C800B0006B08B1006C08B200133084000A1242
:1009D8008A150A200A128A11A0000A128A150A200A
:1009E8000A128A11A100133084000A128A150A20FB
:1009F8000A128A11E6000A128A150A200A128A11B6
:100A0800E7000D3084000A128A150A200A128A119A
:100A1800E8000A128A150A200A128A11E9006608F3
:100A28006807A20067080318670A6907A3000A1283
:100A38008A1571200A128A11831203132108A9004A
:100A48002008A8000A168A1144260A128A1183125D
:100A580003132808B3002908B4002A08B5000A12AD
:100A68008A1527260A128A1183120313300883165F
:100A78000313D40083120313310883160313D5001C
:100A880083120313320883160313D60003300A12A5
:100A98008A155D220A128A11831203135D08EA007F
:100AA8005E08EB005F08EC006A08B0006B08B10054
:100AB8006C08B200133084000A128A150A200A1240
:100AC8008A11A0000A128A150A200A128A11A100A6
:100AD800133084000A128A150A200A128A11E600C5
:100AE8000A128A150A200A128A11E7000F308400B8
:100AF8000A128A150A200A128A11E8000A128A15AF
:100B08000A200A128A11E90066086807A200670825
:100B18000318670A6907A3000A128A1571200A12C6
:100B28008A11831203132108A9002008A8000A16B5
:100B38008A1144260A128A11831203132808B30063
:100B48002908B4002A08B5000A128A1527260A12AD
:100B58008A1183120313300883160313D7008312F4
:100B68000313310883160313D800831203133208C2
:100B780083160313D90004300A128A155D220A125B
:100B88008A11831203135D08EA005E08EB005F0810
:100B9800EC006A08B0006B08B1006C08B2001330B2
:100BA80084000A128A150A200A128A11A0000A1261
:100BB8008A150A200A128A11A100133084000A1229
:100BC8008A150A200A128A11E6000A128A150A20D2
:100BD8000A128A11E700113084000A128A150A20C5
:100BE8000A128A11E8000A128A150A200A128A11C2
:100BF800E90066086807A20067080318670A69071A
:100C0800A3000A128A1571200A128A11831203138B
:100C18002108A9002008A8000A168A1144260A12E9
:100C28008A11831203132808B3002908B4002A087C
:100C3800B5000A128A152726831203133008831673
:100C48000313DA0083120313310883160313DB003E
:100C580083120313320883160313DC008312031371
:100C6800871107110800831203134008C6004108C2
:100C7800C7004208C8000310470D480DC9004908BD
:100C8800CC004308C6004408C7004508C800031044
:100C9800470D480DC9004908CB004C080319602EC0
:100CA8004B084C020318672E4C03FF3A4B07C6004B
:100CB80019304602031C672E4308C0004408C100CF
:100CC8004508C20008004B08031908004C084B02ED
:100CD8000318762E4B03FF3A4C07C600193046021C
:100CE800031808000630C6004608CA00C21BCA1707
:100CF800C51B4A17C117FF30C005FF30C1050030BA
:100D0800C205C417FF30C305FF30C4050030C50550
:100D18004B084C020318B62E01300310C30DC40D46
:100D2800C50DFF3E031D912E0130CB024B084C062A
:100D38000319B12E0130CA024A0807390319B12E26
:100D4800902E01300310C20CC10CC00CFF3E031DD5
:100D5800A62E0130C6004608CC074C084B060319DE
:100D6800DF2EA52E4C084B020318DF2E013003108E
:100D7800C00DC10DC20DFF3E031DBB2E0130CC02BC
:100D88004B084C060319DB2E0130CA024A08073902
:100D98000319DB2EBA2E01300310C50CC40CC30C8A
:100DA800FF3E031DD02E0130C6004608CB074C0875
:100DB8004B06031DCF2ECA1FF12EFF30C006FF3091
:100DC800C106FF30C2060130C007003003180130E9
:100DD800C107003003180130C2074A1F032FFF3034
:100DE800C306FF30C406FF30C5060130C307003014
:100DF80003180130C407003003180130C507CA01C1
:100E08004008C307410803110318410A031DC4071A
:100E1800420803110318420A031DC507C51F262FE0
:100E2800FF30C306FF30C406FF30C5060130C307D4
:100E3800003003180130C407003003180130C5071B
:100E4800CA01CA0A4308A0004408A1004508A20034
:100E58004C08C6004608A3004A08C7004708A40073
:100E68000A128A15EF21831203132008C0002108F3
:100E7800C1002208C2000800B9308400B0308316CF
:100E88000313B5000408B6000830B700350884001D
:100E980083170008B800B50A360884008313380899
:100EA8008000B60AB70B4A2FC1308400B830B500AD
:100EB8000408B6000830B700350884008317000816
:100EC800B800B50A36088400831338088000B60ACB
:100ED800B70B602FE82F853083120313EB004530E2
:100EE800EC004130ED00033083160313B5003508DC
:100EF80083120313EE00B9300A128A1158200A121D
:100F08008A1100300A168A118E270A128A1128308F
:100F180083120313A5008030A6000A128A15AF2099
:100F28000A128A11B93083120313A5000030A600F3
:100F38000A128A15AF200A128A111F30831203136E
:100F4800A5008030A6000A128A15AF200A128A115D
:100F5800CD3083120313EB000730EC004430ED0072
:100F6800033083160313B500350883120313EE000C
:100F7800C1300A128A1158200A128A1110300A1632
:100F88008A118E270A128A11313083120313A500A1
:100F98008030A6000A128A15AF200A128A11C130C1
:100FA80083120313A5000030A6000A128A15AF2089
:100FB8000A128A11153083120313A5008030A60087
:100FC8000A128A15AF200800831603133408003A62
:100FD8000319EF2FFD2F3308003A03196F2F013A39
:100FE8000319FD2F033A0319FD2F013A0319FD2FA9
:040FF800FD2F0800C1
:10100000FF1B0A2883137F1883170008840A03191B
:10101000FF0A080008308A000408840A82070034A6
:10102000123403343E349E348F343F3498340834C1
:101030005C341234103427346C34393420344E3458
:101040007C346034983408342034413420342034E3
:1010500020342034203420342034003420345634DA
:1010600020342034203420342034203400345634CA
:101070006F346C3474346134673465343A3400341A
:10108000433475347234723465346E3474343A34A3
:1010900000348312031330082F042E0403190800B0
:1010A0008030B006080083120313AF002F08AB0096
:1010B000AC01AD012B08A0002C08A1002D08A20056
:1010C0008E30AE002E08A300A4010A128A15EF216B
:1010D000831203132008A8002108A9002208AA00EF
:1010E000080083120313A501A60120082104031997
:1010F000AA28A701A70AA11B892801300310A00D67
:10110000A10DFF3E031D7E280130A4002408A7077F
:101110007B2801300310A50DA60DFF3E031D8A2874
:1011200021082302031D962820082202031C9F2861
:101130002008A2022108031CA303A30225140130E6
:101140000310A10CA00CFF3E031DA0280130A70234
:10115000031D89282608A1002508A0000800831285
:101160000313AA01AB012A082507A8002608A70037
:101170000318A70AAA1BA703831203132708A900B1
:101180002908FF00280884000A128A1500200A1284
:101190008A15003A031908002A082507A80026081E
:1011A000A7000318A70AAA1BA70383120313270883
:1011B000A9002908FF00280884000A128A150020C7
:1011C0000A128A150A168A119F260A128A150130F8
:1011D00083120313AA070318AB0A0030AB07B32826
:1011E000003083120313AC000030AB000030AA00C3
:1011F0000030A900201C10292408A9072508031184
:101200000318013E031DAA07260803110318013E17
:10121000031DAB07270803110318013E031DAC078C
:101220000130A8000310A40DA50DA60DA70DA80B55
:10123000122901300310A30CA20CA10CA00CFF3E3C
:10124000031D1A292308220421042004031DFA285F
:101250002C08A3002B08A2002A08A1002908A0003E
:10126000080083120313881A0800823083160313C0
:10127000B200DD30B100B10B3B29B20B3B29402954
:1012800083120313881A080000300A128A15FA26FE
:101290000A128A1583120313881A812901300A124F
:1012A0008A15FA260A128A15831203136E08031D83
:1012B00066296D08031D662903306C02031D64292D
:1012C000E8306B02031D6429031C4A290A128A159F
:1012D00001240A128A15831203138714023083161D
:1012E0000313B3000430B200BA30B100B10B762959
:1012F000B20B7629B30B76290000831203138710F3
:101300000800013083160313B10031088312031360
:10131000EF0704306F02031C0800EF0108000030E3
:1013200083120313AC000030AB000030AA00003081
:10133000A90023082204210420040319E629AD0191
:10134000AD0AA31BB1290130A8000310A00DA10D07
:10135000A20DA30DA80BA5290130A8002808AD07F0
:10136000A1290130A8000310A90DAA0DAB0DAC0DE9
:10137000A80BB32923082702031DC8292208260227
:10138000031DC82921082502031DC829200824029D
:10139000031CD9292008A4022108031C210FA5023F
:1013A0002208031C220FA6022308031C230FA702F6
:1013B000291401300310A30CA20CA10CA00CFF3EB9
:1013C000031DDA290130AD02031DB1292C08A30049
:1013D0002B08A2002A08A1002908A00008008312F7
:1013E000031323080319F929220821042004031DEB
:1013F0000C2A0030A0000030A1000030A20008003C
:101400000130A5002508A30701300310A20CA10C90
:10141000A00CFF3E031D052AFE3022050319272AD2
:10142000002A0130A5002508A3070130A0070030DD
:1014300003180130A107003003180130A207013062
:101440000310A20CA10CA00CFF3E031D202AFF30AC
:10145000220503193A2A112A02302302031C3C2ACE
:101460000130A30201300310A00DA10DA20DFF3E1B
:10147000031D332AA11F2C2A2318442AFF30A0055C
:101480007F30A105FF30A2050310A30C2308A5009F
:10149000A601A70110300310A50DA60DA70DFF3E54
:1014A000031D4B2A2508A0042608A1042708A2042E
:1014B000240803190800A217080083120313E1008F
:1014C000E401E501E201E3016308803AFF008030B6
:1014D0007F02031D6D2A0B3062020318902A8312CB
:1014E000031361080A168A11C7270A128A15831284
:1014F00003132008E4070318E50A2108E507013073
:10150000E2070318E30A0030E3076308803AFF00AC
:1015100080307F02031D8E2A0B306202031C6F2A6B
:101520000A3083120313A0000030A1006508A30055
:101530006408A2000A128A1571200A128A15831201
:1015400003132108E5002008E400C030CD007F30FF
:10155000CE004430CF007808B0007908B1007A0896
:10156000B2006508A9006408A8000A168A1144267A
:101570000A128A15831203132808B3002908B4003D
:101580002A08B5000A128A1527260A128A1583121C
:1015900003133008D0003108D1003208D2000A12FB
:1015A0008A15AA24831203134D08DD004E08DE00BD
:1015B0004F08DF000800831203135D08E1005E0896
:1015C000E2005F08E3000310620D630DE4006408AD
:1015D000EA006A08031DF52A0030E0000030DF0051
:1015E0000030DE000030DD0008005D08E1005E082C
:1015F000E2005F08E30017300310E30CE20CE10C9B
:10160000FF3E031DFC2A6108E4006408E500DE17C4
:10161000FF30DD05FF30DE050030DF055D08E60048
:101620005E08E7005F08E800E9018E30EA02EA1F81
:10163000372B6A08803A8F3E0318272B0030E000D2
:101640000030DF000030DE000030DD000800013037
:101650000310E90CE80CE70CE60CFF3E031D282BF9
:101660000130E1006108EA070319522B272B1830DB
:101670006A02031C4F2B0030E0000030DF00003016
:10168000DE000030DD0008000130E1000310E60D4F
:10169000E70DE80DE90DE10B462B0130EA026A087F
:1016A000031D442B65080319602BE609E709E809C7
:1016B000E909E60A0319E70A0319E80A0319E90A1E
:1016C0006908E0006808DF006708DE006608DD00E2
:1016D000080083120313881407150D30DE00FB3059
:1016E000DD00DD0B712BDE0B712B762BFC01FD0178
:1016F00083120313DF01E0016008803AFF008030AD
:101700007F02031D852B0B305F020318A62B0230CE
:101710000A168A11C7270A128A1583120313200892
:10172000FC070318FD0A2108FD070130DF07031835
:10173000E00A0030E0076008803AFF0080307F0256
:10174000031DA42B0B305F02031C872B0A3083126E
:101750000313A0000030A1007D08A3007C08A200B4
:101760000A128A1571200A128A158312031321089E
:10177000FD002008FC00881007117D08A9007C08E6
:10178000A8000A168A1144260A128A158312031326
:101790002808CD002908CE002A08CF00C030B000AC
:1017A0007F30B1004430B200043084000A128A1540
:1017B0000A200A128A15B3000A128A150A200A1290
:1017C0008A15B4000A128A150A200A128A15B50071
:1017D0000A128A1527260A128A1583120313300863
:1017E000D0003108D1003208D2000A128A15AA248A
:1017F000831203134D08F8004E08F9004F08FA0051
:101800000800831203130610881300300A168A1189
:101810002C260A128A15023083120313A700043003
:10182000A600BA30A500A50B132CA60B132CA70BF2
:10183000132C000030300A168A112C260A128A1541
:101840004E3083120313A600EB30A500A50B262C07
:10185000A60B262C0A168A11F9250A128A151A30A7
:1018600083120313A600F830A500A50B352CA60B98
:10187000352C00000A168A11F9250A128A151A3029
:1018800083120313A600F830A500A50B452CA60B68
:10189000452C00000A168A11F9250A128A151A30F9
:1018A00083120313A600F830A500A50B552CA60B38
:1018B000552C000020300A168A112C260A128A158F
:1018C0000A168A11F9250A128A1528300A168A1171
:1018D000C9260A128A151A3083120313A600F8309B
:1018E000A500A50B712CA60B712C000010300A1658
:1018F0008A11C9260A128A151A3083120313A60008
:10190000F830A500A50B822CA60B822C00000F300E
:101910000A168A11C9260A128A151A30831203136D
:10192000A600F830A500A50B932CA60B932C000065
:1019300006300A168A11C9260A128A151A3083122D
:101940000313A600F830A500A50BA42CA60BA42C0D
:1019500000000800831203135008D3005108D4007C
:101960005208D5000310540D550DD6005608DB0063
:101970005B08031DC22C0030CD000030CE000030CB
:10198000CF0008004D08D3004E08D4004F08D50002
:101990000310540D550DD6005608DC005C08031DDD
:1019A000D82C0030CD000030CE000030CF00080031
:1019B0000030D8000030D9000030DA0089305C07F0
:1019C000D3005308DB025008D3005108D40052085A
:1019D000D50010300310D50CD40CD30CFF3E031DE2
:1019E000EA2C5308D6005608DC004D08D3004E08F8
:1019F000D4004F08D50010300310D50CD40CD30CF4
:101A0000FF3E031DFC2C5308D6005608DC06803030
:101A1000D3005308DC05D117FF30D005FF30D105C6
:101A20000030D205CE17FF30CD05FF30CE05003097
:101A3000CF051830D3005308D70001300310D80D5C
:101A4000D90DDA0DFF3E031D1E2D4F085202031D56
:101A50002F2D4E085102031D2F2D4D085002031C3F
:101A60003C2D4D08D0024E08031C4E0FD1024F08EA
:101A7000031C4F0AD202581401300310D00DD10DAF
:101A8000D20DFF3E031D3D2D0130D702031D1D2D3C
:101A90005808A0005908A1005A08A2005B08D3000A
:101AA0005308A3005C08D4005408A4000A128A1545
:101AB000EF21831203132008CD002108CE00220855
:101AC000CF00080083120313E201E301E001E1010A
:101AD0006108803AFF0080307F02031D712D0B30BA
:101AE00060020318922D07300A168A11C7270A12BE
:101AF0008A15831203132008E2070318E30A21085A
:101B0000E3070130E0070318E10A0030E10761084C
:101B1000803AFF0080307F02031D902D0B30600261
:101B2000031C732D0A3083120313A0000030A100A0
:101B30006308A3006208A2000A128A1571200A1223
:101B40008A15831203132108E3002008E200C03045
:101B5000CD007F30CE004430CF007808B000790847
:101B6000B1007A08B2006308A9006208A8000A164A
:101B70008A1144260A128A15831203132808B30017
:101B80002908B4002A08B5000A128A1527260A1265
:101B90008A15831203133008D0003108D1003208AF
:101BA000D2000A128A15AA240A128A158312031374
:101BB0004D08DD004E08DE004F08DF0083160313DA
:101BC000680883120313B000831603136908831295
:101BD0000313B100831603136A0883120313B200C0
:101BE0007B080A128A1553200A128A1583120313DE
:101BF0002808B3002908B4002A08B5000A128A157B
:101C000027260A128A15831203133008CD003108E3
:101C1000CE003208CF005D08D0005E08D1005F081A
:101C2000D2000A128A15AA24831203134D088316C0
:101C30000313E500831203134E0883160313E60013
:101C4000831203134F0883160313E700080083125F
:101C500003133008B6003108B7003208B80003108B
:101C6000370D380DB9003908BA003A08031D3F2E68
:101C70000030B0000030B1000030B200080033087E
:101C8000B6003408B7003508B8000310370D380D1A
:101C9000B9003908BF003F08031D552E0030B000C1
:101CA0000030B1000030B20008003F087B3EB600B3
:101CB0003608BA073008B6003108B7003208B80055
:101CC00010300310B80CB70CB60CFF3E031D612E8C
:101CD0003608B9003908BF003308B6003408B70029
:101CE0003508B80010300310B80CB70CB60CFF3E26
:101CF000031D732E3608B9003908BF068030B600C0
:101D00003608BF05B117B417FF30B305FF30B4056F
:101D10000030B5050030BB000030BC000030BD0015
:101D20000730B6003608BE00301CA42E3308BB07AF
:101D3000340803110318340A031DBC0735080311C6
:101D40000318350A031DBD0701300310B20CB10C96
:101D5000B00CFF3E031DA52E01300310B30DB40DD2
:101D6000B50DFF3E031DAD2E0130BE02031D942EA6
:101D70000930B6003608BE00301CCC2E3308BB0735
:101D8000340803110318340A031DBC073508031176
:101D90000318350A031DBD0701300310B20CB10C46
:101DA000B00CFF3E031DCD2E01300310BD0CBC0C4A
:101DB000BB0CFF3E031DD52E0130BE02031DBC2E01
:101DC0003B08A0003C08A1003D08A2003A08B6006C
:101DD0003608A3003F08B7003708A4000A128A1586
:101DE000EF21831203132008B0002108B10022085C
:101DF000B200080083160313AC000030B0000030BE
:101E0000AF000030AE000030AD00EC2F83120313A2
:101E10000108831603135D07E1005E0803185E0FD7
:101E20000310E2005F0803185F0F0310E30060086F
:101E30000318600AE400003083120313EE00003040
:101E4000ED000030EC000130EB00080083160313B6
:101E50005D08A0005E08A1005F08A2006008A30062
:101E60006109A4006209A5006309A6006409A7002E
:101E7000A40A0319A50A0319A60A0319A70A8312BB
:101E80000313010883160313A800A901AA01AB01DB
:101E90002808A40729080318290F4F2F502FA5073A
:101EA0002A0803182A0F552F562FA6072B080318A8
:101EB0002B0AA7072408A00725080318250F612F60
:101EC000622FA10726080318260F672F682FA20785
:101ED00027080318270AA3072308B0002208AF0029
:101EE0002108AE002008AD00300883120313AB00B8
:101EF000831603132F0883120313AA0083160313F8
:101F00002E0883120313A900831603132D088312CE
:101F10000313A8000A168A11F4260A128A158312DE
:101F200003132808B3002908B4002A08B5000130BB
:101F300084000A128A150A200A128A15B0000A12B1
:101F40008A150A200A128A15B1000A128A150A2077
:101F50000A128A15B2000A128A1527260A128A1551
:101F6000831203133008DD003108DE003208DF0081
:101F70000A128A15DB220A128A15831203136008DB
:101F800083160313B000831203135F088316031331
:101F9000AF00831203135E0883160313AE0083128F
:101FA00003135D0883160313AD0030088312031377
:101FB000EE00831603132F0883120313ED0083161C
:101FC00003132E0883120313EC00831603132D084A
:101FD00083120313EB000800831603132C08003A46
:101FE0000319062F013A0319262FF62F003083120A
:101FF000EE000030ED000030EC000030EB00080097
:102B9E00D73423343C34663486344034C83464002D
:102BAE008001840A0406031900340406D72D831607
:102BBE000313811201168111073081048B160B113C
:102BCE000B178B1708008130831203139F00703090
:102BDE00831603139F00831203139E0183160313A0
:102BEE009E0108008312031386140330A100973050
:102BFE00A000A00B002EA10B002E052E8312031396
:102C0E008610080083120313A20022080A168A11E6
:102C1E002C260A168A1183120313061088130A161D
:102C2E008A11F92508000A168A1175260A168A11C4
:102C3E00770883120313FF0076088A007508840054
:102C4E00740E8300FE0E7E0E090083120313A00085
:102C5E00201E332E0615342E0611A01E382E861574
:102C6E00392E8611201F3D2E06163E2E0612A01F4F
:102C7E00422E8616080086120800831203132808B7
:102C8E00A0002908A100A2018E30AB002B08A300E2
:102C9E00A4010A128A15EF21831203132008A8003B
:102CAE002108A9002208AA00080083120313A0001D
:102CBE0064302002031C6C2E051764302006031DA1
:102CCE006A2E851308008517080005131930200693
:102CDE00031D732E85130800851708000B1D0800B1
:102CEE008B1E0800FF30F0000030F1000030F200C3
:102CFE000030F300831603135D08F0075E08031817
:102D0E005E0F8A2E8B2EF1075F0803185F0F902E31
:102D1E00912EF20760080318600AF3077308E000AB
:102D2E007208DF007108DE007008DD000B1108006C
:102D3E0083120313A40024080A168A112C260A16DD
:102D4E008A118312031306140A168A11F9250A161C
:102D5E008A11831203132408A20003300310A20D5C
:102D6E00FF3E031DB52E0310220DA3002308A40061
:102D7E0024080A168A112C260A168A110A168A1196
:102D8E00F925080083120313A40024080A168A11D9
:102D9E002C260A168A1183120313061088130A169C
:102DAE008A11F9250A168A11831203132408A20028
:102DBE0003300310A20DFF3E031DE02E0310220D63
:102DCE00A3002308A40024080A168A112C260A162A
:102DDE008A110A168A11F92508008E308312031300
:102DEE00AC002C08AD00FF302B0503190C2F013061
:102DFE000310AB0CAA0CA90CA80CFF3E031DFF2E52
:102E0E000130AC002C08AD07FA2E2808A0002908C6
:102E1E00A1002A08A2002D08AC002C08A300A401D2
:102E2E000A128A15EF21831203132008A800210825
:102E3E00A9002208AA0008000A168A1156270A16A7
:102E4E008A11831203130816C8300A168A115C26DB
:102E5E000A168A110A128A1569230A168A110A128B
:102E6E008A1562250A168A110A128A115C230A161D
:102E7E008A110A128A1531210A168A118312031336
:102E8E006F0883160313C900CA014908B3004A0824
:102E9E00B4000A128A1140270A168A11312F703097
:102EAE00831603138F040F103F30850086018701B0
:102EBE002030880007308900FF3091008312031301
:102ECE008501860187018801890107308316031366
:102EDE009C048312031787010912831203139701AF
:102EEE009D01831603138117831203130811081310
:102EFE0007140A168A11EA250A168A110A168A1169
:102F0E00DE250A168A110A128A1501240800831278
:102F1E000313A500251EAD2FC0300A168A110926EF
:102F2E000A168A11831203132508A3000330031017
:102F3E00A30DFF3E031D9E2F0310230DA400240896
:102F4E00A50025080A168A110926080080300A16DF
:102F5E008A1109260A168A11831203132508A30063
:102F6E0003300310A30DFF3E031DB82F0310230DD6
:102F7E00A4002408A50025080A168A1109260800AF
:102F8E0083120313A4002408A200A20DA20D1F0891
:102F9E002206E33922069F001F140630A200A20B60
:102FAE00D62F0000831203139F14A501A6019F18AC
:102FBE00DE2F1E08A200A3012208A5002308A600EA
:102FCE002508A300A2012208A5002308A6002508B3
:102FDE00831603131E0483120313A2002608A300F4
:102FEE002208A5002308A6002608A1002508A00097
:022FFE000800C9
:02400E00F4E4D8
:00000001FF
