:060000000A128A11122809
:10000800FE00030EF4000408F5000A08F600831247
:1000180003137F08F7000A128A11EA2F0A128A11BD
:100028001528FC01FD018313CD308400EB300A163E
:100038008A1157230A128A11831790308400C0301E
:100048000A168A1157230A128A11831603130A16ED
:100058008A1154230A128A11EB000A168A115523B1
:100068000A128A11EC000A168A1156230A128A11FA
:10007800ED000A128A11FC270A128A11F8000A12E6
:100088008A11FD270A128A11F9000A128A11FE271D
:100098000A128A11FA000A128A11FF27FB0083014B
:1000A8000A168A11AE2C83120313071508140D3093
:1000B800E900FB30E800E80B5F28E90B5F286428BB
:1000C80000300A128A150E200A128A1183120313AD
:1000D8005E08EA005F08EB006008EC006A08BE00F2
:1000E8006B08BF006C08C0000030B1008030B2005F
:1000F8003F30B3000B3084000A168A110A200A1216
:100108008A11B4000A168A110A200A128A11B50047
:100118000A168A110A200A128A11B6000A128A15CA
:1001280096240A128A11831203133108C100320877
:10013800C2003308C3000A128A15BD220A128A11A6
:10014800831203133E08ED003F08EE004008EF005D
:100158006630BE006630BF003F30C0008316031310
:100168004D0883120313C100831603134E0883122C
:100178000313C200831603134F0883120313C3002B
:100188000A128A15BD220A128A11831203133E0825
:10019800B1003F08B2004008B300CD30BE00CC30FB
:1001A800BF003D30C0006D08C1006E08C2006F0876
:1001B800C3000A128A15BD220A128A118312031378
:1001C8003E08B4003F08B5004008B6000A128A1578
:1001D80096240A128A118312031331088316031313
:1001E800CD0083120313320883160313CE00831243
:1001F8000313330883160313CF0001300A128A153C
:100208000E200A128A11831203135E08EA005F089F
:10021800EB006008EC006A08BE006B08BF006C08C1
:10022800C0000030B1008030B2003F30B3000E3063
:1002380084000A168A110A200A128A11B4000A16C2
:100248008A110A200A128A11B5000A168A110A2090
:100258000A128A11B6000A128A1596240A128A11FD
:10026800831203133108C1003208C2003308C300E7
:100278000A128A15BD220A128A11831203133E0834
:10028800ED003F08EE004008EF006630BE00663023
:10029800BF003F30C0000330CD3E84008313000808
:1002A800C100840A0008C200840A0008C3000A12B8
:1002B8008A15BD220A128A11831203133E08B1005F
:1002C8003F08B2004008B300CD30BE00CC30BF00BC
:1002D8003D30C0006D08C1006E08C2006F08C30041
:1002E8000A128A15BD220A128A11831203133E08C4
:1002F800B4003F08B5004008B6000A128A159624D3
:100308000A128A1183120313310883160313D000CB
:1003180083120313320883160313D10083120313C5
:10032800330883160313D20005300A128A150E20EB
:100338000A128A11831203135E08EA005F08EB00B1
:100348006008EC006A08BE006B08BF006C08C000BB
:100358000030B1008030B2003F30B300113084006B
:100368000A168A110A200A128A11B4000A168A117A
:100378000A200A128A11B5000A168A110A200A12DE
:100388008A11B6000A128A1596240A128A11831253
:1003980003133108C1003208C2003308C3000A122F
:1003A8008A15BD220A128A11831203133E08ED0032
:1003B8003F08EE004008EF006630BE006630BF0020
:1003C8003F30C0000630CD3E840083130008C100D2
:1003D800840A0008C200840A0008C3000A128A15A9
:1003E800BD220A128A11831203133E08B1003F0886
:1003F800B2004008B300CD30BE00CC30BF003D3065
:10040800C0006D08C1006E08C2006F08C3000A1260
:100418008A15BD220A128A11831203133E08B400FA
:100428003F08B5004008B6000A128A1596240A1239
:100438008A1183120313310883160313D30083121E
:100448000313320883160313D400831203133308EB
:1004580083160313D50083120313081087150D3074
:10046800E900FB30E800E80B372AE90B372A3C2A79
:1004780006300A128A150E200A128A1183120313F3
:100488005E08EA005F08EB006008EC006A08BE003E
:100498006B08BF006C08C0000030B1008030B200AB
:1004A8003F30B300143084000A168A110A200A1259
:1004B8008A11B4000A168A110A200A128A11B50094
:1004C8000A168A110A200A128A11B6000A128A1517
:1004D80096240A128A11831203133108C1003208C4
:1004E800C2003308C3000A128A15BD220A128A11F3
:1004F800831203133E08ED003F08EE004008EF00AA
:100508006630BE006630BF003F30C0000930CD3EC7
:10051800840083130008C100840A0008C200840A0A
:100528000008C3000A128A15BD220A128A11831212
:1005380003133E08B1003F08B2004008B300CD30B5
:10054800BE00CC30BF003D30C0006D08C1006E0851
:10055800C2006F08C3000A128A15BD220A128A1146
:10056800831203133E08B4003F08B5004008B600E4
:100578000A128A1596240A128A1183120313310863
:1005880083160313D600831203133208831603134A
:10059800D70083120313330883160313D8000330DC
:1005A8000A128A150E200A128A11831203135E0892
:1005B800EA005F08EB006008EC006A08BE006B0800
:1005C800BF006C08C0000030B1008030B2003F307E
:1005D800B300173084000A168A110A200A128A11F9
:1005E800B4000A168A110A200A128A11B5000A16DE
:1005F8008A110A200A128A11B6000A128A1596244C
:100608000A128A11831203133108C1003208C2008A
:100618003308C3000A128A15BD220A128A118312EE
:1006280003133E08ED003F08EE004008EF00663077
:10063800BE006630BF003F30C0000C30CD3E8400A5
:1006480083130008C100840A0008C200840A000855
:10065800C3000A128A15BD220A128A1183120313D3
:100668003E08B1003F08B2004008B300CD30BE00DC
:10067800CC30BF003D30C0006D08C1006E08C2001C
:100688006F08C3000A128A15BD220A128A11831242
:1006980003133E08B4003F08B5004008B6000A122C
:1006A8008A1596240A128A118312031331088316B5
:1006B8000313D90083120313320883160313DA00D5
:1006C80083120313330883160313DB0004300A1262
:1006D8008A150E200A128A11831203135E08EA0093
:1006E8005F08EB006008EC006A08BE006B08BF00FA
:1006F8006C08C0000030B1008030B2003F30B30059
:100708001A3084000A168A110A200A128A11B400C3
:100718000A168A110A200A128A11B5000A168A11C5
:100728000A200A128A11B6000A128A1596240A1299
:100738008A11831203133108C1003208C20033083A
:10074800C3000A128A15BD220A128A1183120313E2
:100758003E08ED003F08EE004008EF006630BE009E
:100768006630BF003F30C0000F30CD3E8400831399
:100778000008C100840A0008C200840A0008C300F7
:100788000A128A15BD220A128A11831203133E081F
:10079800B1003F08B2004008B300CD30BE00CC30F5
:1007A800BF003D30C0006D08C1006E08C2006F0870
:1007B800C3000A128A15BD220A128A118312031372
:1007C8003E08B4003F08B5004008B6000A128A1572
:1007D800962483120313310883160313DC00831253
:1007E8000313320883160313DD008312031333083F
:1007F80083160313DE008312031387110711080001
:1008080083160313B4000030B2000030B10000308A
:10081800B0006430AF000030AE000030AD000030F2
:10082800AC000030AB00A601A60AB301A701A801DD
:10083800A9012908803AFF0080307F02031D262C79
:10084800073028020318422C83160313280834079C
:10085800A00020088400831380010130A807031832
:10086800A90A0030A9072908803AFF0080307F02D2
:10087800031D402C07302802031C282C8316031361
:100888002E0883120313AB00831603132D0883125B
:100898000313AA00831603132C0883120313A90059
:1008A800831603132B0883120313A8000A168A1150
:1008B8007F240A128A11831203132808AE0029081C
:1008C800AF002A08B0000A168A115F230A128A119B
:1008D800831203132E08B4002F08B5003008B600A1
:1008E8006C08B1006D08B2006E08B3000A128A15D0
:1008F80096240A128A11831203133108D100320890
:10090800D2003308D300831603133208831203136B
:10091800AB0083160313310883120313AA0083164E
:100928000313300883120313A900831603132F0837
:1009380083120313A8000A168A117F240A128A1147
:10094800831203132808CE002908CF002A08D000F4
:100958000A128A1505220A128A11831203134E08F5
:10096800DE004F08DF005008E0000A168A117227DF
:100978000A128A11831203135E0883160313A00058
:1009880033083407A100210884002008831380005D
:1009980033083407A000200884000008A100A20141
:1009A800A301A401240883120313A30083160313CD
:1009B800230883120313A200831603132208831249
:1009C8000313A10083160313210883120313A00045
:1009D80083160313320883120313A7008316031325
:1009E800310883120313A6008316031330088312F9
:1009F8000313A500831603132F0883120313A400FF
:100A08000A168A1107260A128A118312031320086C
:100A180083160313AB07831203132108031103186A
:100A2800013E03191A2D83160313AC07831203130F
:100A3800220803110318013E0319252D83160313F9
:100A4800AD0783120313230803110318013E03198A
:100A5800302D83160313AE07831203138316031373
:100A6800003083120313A3000030A2000030A1005D
:100A78000A30A00083160313320883120313A70059
:100A880083160313310883120313A6008316031376
:100A9800300883120313A500831603132F0883124B
:100AA8000313A4000A168A11A4260A128A118312B3
:100AB8000313230883160313B200831203132208B7
:100AC80083160313B100831203132108831603133B
:100AD800B00083120313200883160313AF00260304
:100AE800031D852D33083407A000200884008313D4
:100AF80000080319892D0130A0002008B307A601BA
:100B0800892D0130A0002008B307320831043004D1
:100B18002F04031D422C3308A0002008A700013031
:100B2800A0002008B3070030B2000030B100003048
:100B3800B0000A30AF003308A0002008A50025083F
:100B4800A000A101A009A109A00A0319A10A33085C
:100B58002007A20021080318210AA3002308803ACD
:100B6800803C031DBB2D2208831203136F02031C54
:100B7800E12E831603132E0883120313A300831692
:100B880003132D0883120313A200831603132C08E2
:100B980083120313A100831603132B088312031374
:100BA800A0000030A7000030A6000030A5000A30E1
:100BB800A4000A168A1107260A128A11831203133F
:100BC800230883160313AE00831203132208831627
:100BD8000313AD0083120313210883160313AC001B
:100BE80083120313200883160313AB003208831201
:100BF8000313AB0083160313310883120313AA00EF
:100C080083160313300883120313A90083160313F2
:100C18002F0883120313A8000A168A117F240A12C8
:100C28008A11831203132808C1002908C2002A0860
:100C3800C3006C08BE006D08BF006E08C0000A1231
:100C48008A15BD220A128A11831203133E08B400C2
:100C58003F08B5004008B600831603132E08831218
:100C68000313AB00831603132D0883120313AA0082
:100C7800831603132C0883120313A9008316031386
:100C88002B0883120313A8000A168A117F240A125C
:100C98008A11831203132808AE002908AF002A0816
:100CA800B0000A168A115F230A128A1183120313ED
:100CB8002E08B1002F08B2003008B3000A128A15B6
:100CC80096240A128A11831203133108DE003208AF
:100CD800DF003308E0000A168A1172270A128A1107
:100CE800831203135E0883160313A0003308340726
:100CF800A100210884002008831380003208831291
:100D08000313A30083160313310883120313A200ED
:100D180083160313300883120313A10083160313E9
:100D28002F0883120313A0000030A7000030A6008C
:100D38000030A5000A30A4000A168A1107260A12F4
:100D48008A1183120313230883160313B200831234
:100D58000313220883160313B10083120313210817
:100D680083160313B000831203132008831603139A
:100D7800AF0033083407A00020088400831300085C
:100D8800A100A201A301A4012108AB0722080311B5
:100D98000318013E031DAC07230803110318013E85
:100DA800031DAD07240803110318013E031DAE07F8
:100DB8000130A0002008B307A32D013083160313C8
:100DC800B302AA012A083302031CFF2E2A0834079B
:100DD800A00020088400831300083038A1002A08E6
:100DE8003407A20022088400210880000130A000F6
:100DF8002008AA07E62E2E30A00027083407A100F5
:100E08002108840020088313800033083407A000D9
:100E1800200884008001080083120313E501E6011D
:100E2800E301E4010A3084000A168A110A200A1232
:100E38008A11DE006408803A803C031D252F630870
:100E48005E02031C4C2F07300A168A114F250A121E
:100E58008A11831203132008E5070318E60A2108FC
:100E6800E6070130E3070318E40A0030E4070A3014
:100E780084000A168A110A200A128A11DE00640800
:100E8800803A803C031D4A2F63085E020318272F0F
:100E98000A3084000A168A110A200A128A1183125B
:100EA8000313DE00DF015E08A0005F08A1006608EA
:100EB800A3006508A2000A168A1188250A128A1159
:100EC800831203132108E6002008E500C030CE0095
:100ED8007F30CF004430D0007808BE007908BF00CA
:100EE8007A08C0006608A9006508A8000A168A11D1
:100EF800B1230A128A11831203132808C100290892
:100F0800C2002A08C3000A128A15BD220A128A11D1
:100F1800831203133E08D1003F08D2004008D300D3
:100F28000A128A1505220A128A11831203134E081F
:100F3800E0004F08E1005008E200831603136B0835
:100F480083120313BE00831603136C088312031362
:100F5800BF00831603136D0883120313C0007B08B8
:100F68000A168A11E2230A128A1183120313280827
:100F7800C1002908C2002A08C3000A128A15BD2226
:100F88000A128A11831203133E08CE003F08CF00CD
:100F98004008D0006008D1006108D2006208D30080
:100FA8000A128A150522831203134E0883160313A7
:100FB800E700831203134F0883160313E800831214
:100FC8000313500883160313E90008000A168A1150
:100FD80000240A128A11770883120313FF00760887
:100FE8008A0075088400740E8300FE0E7E0E0900C8
:080FF800663486344034C8342D
:1010040083160313811201168111073081048B1694
:101014000B110B178B17080083120313E300E6016F
:10102400E70163080A168A114F250A128A158312EA
:101034000313E401E5010A3084000A168A110A2028
:101044000A128A15E1006508803A803C031D2C28A9
:1010540064086102031C55288312031363080A16EB
:101064008A114F250A128A15831203132008E607F2
:101074000318E70A2108E7070130E4070318E50A23
:101084000030E5070A3084000A168A110A200A1281
:101094008A15E1006508803A803C031D53286408E2
:1010A400610203182E280A3084000A168A110A20C5
:1010B4000A128A1583120313E100E2016108A000F9
:1010C4006208A1006708A3006608A2000A168A1134
:1010D40088250A128A15831203132108E7002008C1
:1010E400E600C030CE007F30CF004430D000780816
:1010F400BE007908BF007A08C0006708A900660826
:10110400A8000A168A11B1230A128A15831203133E
:101114002808C1002908C2002A08C3000A128A1537
:10112400BD220A128A15831203133E08D1003F0818
:10113400D2004008D3000A128A1505228312031331
:101144004E08DE004F08DF005008E000080083125C
:1011540003130610881300300A168A1199230A1201
:101164008A15023083120313A7000430A600BA3094
:10117400A500A50BBB28A60BBB28A70BBB2800000A
:1011840030300A168A1199230A128A154E308312B6
:101194000313A600EB30A500A50BCE28A60BCE2882
:1011A4000A168A1178230A128A151A308312031335
:1011B400A600F830A500A50BDD28A60BDD2800004D
:1011C4000A168A1178230A128A151A308312031315
:1011D400A600F830A500A50BED28A60BED2800000D
:1011E4000A168A1178230A128A151A3083120313F5
:1011F400A600F830A500A50BFD28A60BFD280000CD
:1012040020300A168A1199230A128A150A168A119D
:1012140078230A128A1528300A168A1154240A12CD
:101224008A151A3083120313A600F830A500A50B03
:101234001929A60B1929000010300A168A11542402
:101244000A128A151A3083120313A600F830A50077
:10125400A50B2A29A60B2A2900000F300A168A1189
:1012640054240A128A151A3083120313A600F83084
:10127400A500A50B3B29A60B3B29000006300A1646
:101284008A1154240A128A151A3083120313A600F1
:10129400F830A500A50B4C29A60B4C29000008002A
:1012A40083120313881407150630DF003030DE0084
:1012B400DE0B5A29DF0B5A29000002300A168A1164
:1012C4004F250A128A15FC01FD0183120313E00164
:1012D400E1010A3084000A168A110A200A128A15CA
:1012E400DE006108803A803C031D7A2960085E02B2
:1012F400031CA12902300A168A114F250A128A15E5
:10130400831203132008FC070318FD0A2108FD07B4
:101314000130E0070318E10A0030E1070A308400D5
:101324000A168A110A200A128A15DE006108803A18
:10133400803C031D9F2960085E0203187C290A3043
:1013440084000A168A110A200A128A1583120313CA
:10135400DE00DF015E08A0005F08A1007D08A30095
:101364007C08A2000A168A1188250A128A1583129B
:1013740003132108FD002008FC00881007117D08D4
:10138400A9007C08A8000A168A11B1230A128A153A
:10139400831203132808CE002908CF002A08D0009E
:1013A400C030BE007F30BF004430C000073084002E
:1013B4000A168A110A200A128A15C1000A168A110D
:1013C4000A200A128A15C2000A168A110A200A1271
:1013D4008A15C3000A128A15BD220A128A158312BD
:1013E40003133E08D1003F08D2004008D3000A127C
:1013F4008A150522831203134E08F8004F08F900DA
:101404005008FA000800831203135108D40052084C
:10141400D5005308D6000310550D560DD7005708B4
:10142400DC005C08031D1D2A0030CE000030CF0014
:101434000030D00008004E08D4004F08D5005008F2
:10144400D6000310550D560DD7005708DD005D0872
:10145400031D332A0030CE000030CF000030D0000E
:1014640008000030D9000030DA000030DB00893099
:101474005D07D4005408DC025108D4005208D5009A
:101484005308D60010300310D60CD50CD40CFF3EF4
:10149400031D452A5408D7005708DD004E08D40020
:1014A4004F08D5005008D60010300310D60CD50CC8
:1014B400D40CFF3E031D572A5408D7005708DD06F5
:1014C4008030D4005408DD05D217FF30D105FF3039
:1014D400D2050030D305CF17FF30CE05FF30CF053E
:1014E4000030D0051830D4005408D800013003105F
:1014F400D90DDA0DDB0DFF3E031D792A5008530286
:10150400031D8A2A4F085202031D8A2A4E085102DB
:10151400031C972A4E08D1024F08031C4F0FD20216
:101524005008031C500AD302591401300310D10D82
:10153400D20DD30DFF3E031D982A0130D802031D9E
:10154400782A5908A0005A08A1005B08A2005C0888
:10155400D4005408A3005D08D5005508A4000A1659
:101564008A110427831203132008CE002108CF0018
:101574002208D0000800831203133E08C4003F0869
:10158400C5004008C6000310450D460DC7004708B6
:10159400C8004808031DD52A0030BE000030BF0033
:1015A4000030C00008004108C4004208C5004308D8
:1015B400C6000310450D460DC7004708CD004D0871
:1015C400031DEB2A0030BE000030BF000030C00015
:1015D40008004D087B3EC4004408C8073E08C40008
:1015E4003F08C5004008C60010300310C60CC50CE7
:1015F400C40CFF3E031DF72A4408C7004708CD006A
:101604004108C4004208C5004308C6001030031056
:10161400C60CC50CC40CFF3E031D092B4408C700AF
:101624004708CD068030C4004408CD05BF17C21753
:10163400FF30C105FF30C2050030C3050030C900CA
:101644000030CA000030CB000730C4004408CC008E
:101654003E1C3A2B4108C907420803110318420AE9
:10166400031DCA07430803110318430A031DCB07CC
:1016740001300310C00CBF0CBE0CFF3E031D3B2BFE
:1016840001300310C10DC20DC30DFF3E031D432BDA
:101694000130CC02031D2A2B0930C4004408CC00BD
:1016A4003E1C622B4108C907420803110318420A71
:1016B400031DCA07430803110318430A031DCB077C
:1016C40001300310C00CBF0CBE0CFF3E031D632B86
:1016D40001300310CB0CCA0CC90CFF3E031D6B2B4D
:1016E4000130CC02031D522B4908A0004A08A10076
:1016F4004B08A2004808C4004408A3004D08C500D4
:101704004508A4000A168A1104278312031320082B
:10171400BE002108BF002208C0000800831603137E
:10172400AC000030B0000030AF000030AE0000303C
:10173400AD00822C831203130108831603135F0781
:10174400E30060080318600F0310E4006108031845
:10175400610F0310E50062080318620AE600003016
:1017640083120313EF000030EE000030ED0001306F
:10177400EC000800831603135F08A0006008A100B2
:101784006108A2006208A3006309A4006409A5001B
:101794006509A6006609A700A40A0319A50A031986
:1017A400A60A0319A70A8312031301088316031355
:1017B400A800A901AA01AB012808A4072908031855
:1017C400290FE52BE62BA5072A0803182A0FEB2B74
:1017D400EC2BA6072B0803182B0AA7072408A0073D
:1017E40025080318250FF72BF82BA1072608031843
:1017F400260FFD2BFE2BA20727080318270AA30791
:101804002308B0002208AF002108AE002008AD0074
:10181400300883120313AB00831603132F088312BB
:101824000313AA00831603132E0883120313A900BB
:10183400831603132D0883120313A8000A168A11B2
:101844007F240A128A15831203132808C100290869
:10185400C2002A08C300043084000A168A110A2030
:101864000A128A15BE000A168A110A200A128A155B
:10187400BF000A168A110A200A128A15C0000A1229
:101884008A15BD220A128A15831203133E08DE004C
:101894003F08DF004008E0000A168A1172270A1286
:1018A4008A1583120313610883160313B00083128D
:1018B4000313600883160313AF00831203135F0836
:1018C40083160313AE00831203135E0883160313F7
:1018D400AD00300883120313EF00831603132F089F
:1018E40083120313EE00831603132E0883120313CB
:1018F400ED00831603132D0883120313EC00080074
:10190400831603132C08003A03199C2B013A03197C
:10191400BC2B8C2C00308312EF000030EE00003022
:10192400ED000030EC000800831203133108B70007
:101934003208B8003308B9000310380D390DBA0065
:101944003A08BD003408B7003508B8003608B900B5
:101954000310380D390DBA003A08BC003D080319CC
:10196400BF2C3C083D020318C62C3D03FF3A3C073C
:10197400B70019303702031CC62C3408B1003508EF
:10198400B2003608B30008003C08031908003D08FB
:101994003C020318D52C3C03FF3A3D07B70019302D
:1019A4003702031808000630B7003708BB00B31B22
:1019B400BB17B61B3B17B217FF30B105FF30B2059A
:1019C4000030B305B517FF30B405FF30B50500305E
:1019D400B6053C083D020318152D01300310B40D63
:1019E400B50DB60DFF3E031DF02C0130BC023C08C2
:1019F4003D060319102D0130BB023B0807390319BA
:101A0400102DEF2C01300310B30CB20CB10CFF3EBF
:101A1400031D052D0130B7003708BD073D083C06FE
:101A240003193E2D042D3D083C0203183E2D0130C0
:101A34000310B10DB20DB30DFF3E031D1A2D01307D
:101A4400BD023C083D0603193A2D0130BB023B0898
:101A5400073903193A2D192D01300310B60CB50CB2
:101A6400B40CFF3E031D2F2D0130B7003708BC070F
:101A74003D083C06031D2E2DBB1F502DFF30B10623
:101A8400FF30B206FF30B3060130B107003003184F
:101A94000130B207003003180130B3073B1F622D39
:101AA400FF30B406FF30B506FF30B6060130B40788
:101AB400003003180130B507003003180130B607B1
:101AC400BB013108B407320803110318320A031D9D
:101AD400B507330803110318330A031DB607B61FED
:101AE400852DFF30B406FF30B506FF30B606013051
:101AF400B407003003180130B50700300318013073
:101B0400B607BB01BB0A3408A0003508A10036089B
:101B1400A2003D08B7003708A3003B08B800380806
:101B2400A4000A168A110427831203132008B100A3
:101B34002108B2002208B3000800BB308400B03092
:101B440083160313B7000408B8000830B900370837
:101B5400840083170008BA00B70A38088400831386
:101B64003A088000B80AB90BA92DC3308400B830F4
:101B7400B7000408B8000830B90037088400831798
:101B84000008BA00B70A3808840083133A088000B2
:101B9400B80AB90BBF2DEA2F0F30CD3E8400831352
:101BA400000883120313EC00840A0008ED00840A81
:101BB4000008EE00023083160313B70037088312BF
:101BC4000313EF00BB300A128A1104240A128A1587
:101BD40000300A168A1116250A128A153A30831221
:101BE4000313A5008030A6000A168A11C6250A121E
:101BF4008A15BB3083120313A5000030A6000A1611
:101C04008A11C6250A128A15313083120313A500DE
:101C14008030A6000A168A11C6250A128A15831670
:101C24000313670883120313EC0083160313680875
:101C340083120313ED00831603136908831203133D
:101C4400EE00023083160313B70037088312031320
:101C5400EF00C3300A128A1104240A128A151030C4
:101C64000A168A1116250A128A15433083120313A1
:101C7400A5008030A6000A168A11C6250A128A1504
:101C8400C33083120313A5000030A6000A168A117C
:101C9400C6250A128A151D3083120313A50080304D
:101CA400A6000A168A11C6250800831603134D08D8
:101CB40083120313EC00831603134E0883120313D9
:101CC400ED00831603134F0883120313EE00023052
:101CD40083160313B700370883120313EF00BB30D6
:101CE4000A128A1104240A128A1500300A168A116B
:101CF40016250A128A154C3083120313A50080306E
:101D0400A6000A168A11C6250A128A15BB30831248
:101D14000313A5000030A6000A168A11C6250A126C
:101D24008A15313083120313A5008030A6000A16E9
:101D34008A11C6250A128A150330CD3E8400831306
:101D4400000883120313EC00840A0008ED00840ADF
:101D54000008EE00023083160313B700370883121D
:101D64000313EF00C3300A128A1104240A128A15DD
:101D740010300A168A1116250A128A155430831255
:101D84000313A5008030A6000A168A11C6250A127C
:101D94008A15C33083120313A5000030A6000A1667
:101DA4008A11C6250A128A15273083120313A50047
:101DB4008030A6000A168A11C62508000630CD3EDA
:101DC40084008313000883120313EC00840A0008C0
:101DD400ED00840A0008EE00023083160313B700F6
:101DE400370883120313EF00BB300A128A1104244C
:101DF4000A128A1500300A168A1116250A128A1543
:101E04005C3083120313A5008030A6000A168A11E1
:101E1400C6250A128A15BB3083120313A5000030AD
:101E2400A6000A168A11C6250A128A1531308312B1
:101E34000313A5008030A6000A168A11C6250A12CB
:101E44008A150930CD3E84008313000883120313DE
:101E5400EC00840A0008ED00840A0008EE00023059
:101E640083160313B700370883120313EF00C3303C
:101E74000A128A1104240A128A1510300A168A11C9
:101E840016250A128A15643083120313A5008030C4
:101E9400A6000A168A11C6250A128A15C3308312AF
:101EA4000313A5000030A6000A168A11C6250A12DB
:101EB4008A15273083120313A5008030A6000A1662
:101EC4008A11C62508000C30CD3E84008313000817
:101ED40083120313EC00840A0008ED00840A00084E
:101EE400EE00023083160313B7003708831203137E
:101EF400EF00BB300A128A1104240A128A1500303A
:101F04000A168A1116250A128A156C3083120313D5
:101F1400A5008030A6000A168A11C6250A128A1561
:101F2400BB3083120313A5000030A6000A168A11E1
:101F3400C6250A128A15313083120313A500803096
:101F4400A6000A168A11C6250A128A150F30CD3E3C
:101F540084008313000883120313EC00840A00082E
:101F6400ED00840A0008EE00023083160313B70064
:101F7400370883120313EF00C3300A128A110424B2
:101F84000A128A1510300A168A1116250A128A15A1
:101F9400743083120313A5008030A6000A168A1138
:101FA400C6250A128A15C33083120313A500003014
:101FB400A6000A168A11C6250A128A15273083122A
:101FC4000313A5008030A6000A168A11C62508004E
:101FD400831603133608003A0319F12FFF2F35082F
:101FE400003A0319CE2D013A0319572E033A031967
:101FF400E02E013A0319652FFF2F0800FF1B0A2862
:1020040083137F1883170008840A0319FF0A080042
:1020140010308A000408840A82070034CD344C341A
:102024004034123403343E34623490343F340A343E
:10203400CD347C343F34723407344034AF3490347C
:1020440040346234D43440348134103441341F3445
:102054003234413420344134203420342034203488
:1020640020342034203400342034563420342034B6
:1020740020342034203420342034003420345634A6
:102084002034203420342034203420340034563496
:102094006F346C3474346134673465343A340034E6
:1020A400433475347234723465346E3474343A346F
:1020B4000034433465346C346C34203431343A3471
:1020C4000034433465346C346C34203432343A3460
:1020D4000034433465346C346C34203433343A344F
:1020E4000034433465346C346C34203434343A343E
:1020F4000034433465346C346C34203435343A342D
:102104000034433465346C346C34203436343A341B
:02211400003495
:1026A800D73423343C3464008001840A04060319B7
:1026B80000340406582B8312031330082F042E0409
:1026C800031908008030B006080081308312031314
:1026D8009F007030831603139F00831203139E011B
:1026E800831603139E010800831203138614033014
:1026F800A1009730A000A00B7F2BA10B7F2B842B70
:10270800831203138610080083120313A200220801
:102718000A168A1199230A168A11831203130610BE
:1027280088130A168A117823080083120313A0005D
:10273800201EA02B0615A12B0611A01EA52B861561
:10274800A62B8611201FAA2B0616AB2B0612A01F3C
:10275800AF2B861608008612080083120313280878
:10276800A0002908A100A2018E30AB002B08A3000D
:10277800A4010A168A110427831203132008A8004B
:102788002108A9002208AA00080083120313A00048
:1027980064302002031CD92B051764302006031D62
:1027A800D72B851308008517080005131930200654
:1027B800031DE02B851308008517080083120313F7
:1027C800AF002F08AB00AC01AD012B08A0002C080E
:1027D800A1002D08A2008E30AE002E08A300A4018F
:1027E8000A168A110427831203132008A800210857
:1027F800A9002208AA0008000B1D08008B1E08006B
:10280800FF30F0000030F1000030F2000030F3003B
:10281800831603135F08F00760080318600F152C70
:10282800162CF10761080318610F1B2C1C2CF207EA
:1028380062080318620AF3077308E2007208E100ED
:102848007108E0007008DF000B1108008312031301
:10285800A40024080A168A1199230A168A118312D9
:10286800031306140A168A1178230A168A1183128A
:1028780003132408A20003300310A20DFF3E031D1A
:10288800402C0310220DA3002308A40024080A16D4
:102898008A1199230A168A110A168A1178230800C0
:1028A80083120313A40024080A168A1199230A160E
:1028B8008A1183120313061088130A168A117823C3
:1028C8000A168A11831203132408A2000330031086
:1028D800A20DFF3E031D6B2C0310220DA30023083D
:1028E800A40024080A168A1199230A168A110A16BE
:1028F8008A11782308008E3083120313AC002C0849
:10290800AD00FF302B050319972C01300310AB0CD9
:10291800AA0CA90CA80CFF3E031D8A2C0130AC00A0
:102928002C08AD07852C2808A0002908A1002A0832
:10293800A2002D08AC002C08A300A4010A168A11D5
:102948000427831203132008A8002108A9002208DD
:10295800AA0008000A168A11DF240A168A118312AF
:1029680003130816C8300A168A11C9230A168A11D1
:102978000A128A1552210A168A110A128A11102778
:102988000A168A110A128A1157200A168A110A167B
:102998008A1148260A168A11831603136A08CB007F
:1029A800CC014B08B5004C08B6000A128A159F25C1
:1029B8000A168A11BC2C7030831603138F040F106B
:1029C8003F30850086018701603088000730890024
:1029D800FF30910083120313850186018701880166
:1029E80089010730831603139C0483120317870198
:1029F80009128312031397019D018316031381178C
:102A080083120313081107140A168A1169230A1678
:102A18008A110A128A1502200A168A110A128A15C0
:102A2800A920080083120313A500251E352DC030E8
:102A38000A168A1188230A168A1183120313250895
:102A4800A30003300310A30DFF3E031D262D031022
:102A5800230DA4002408A50025080A168A11882336
:102A6800080080300A168A1188230A168A118312F0
:102A780003132508A30003300310A30DFF3E031D15
:102A8800402D0310230DA4002408A50025080A16CC
:102A98008A118823080083120313A4002408A200C3
:102AA800A20DA20D1F082206E33922069F001F145B
:102AB8000630A200A20B5E2D0000831203139F14A0
:102AC800A501A6019F18662D1E08A200A3012208D1
:102AD800A5002308A6002508A300A2012208A50036
:102AE8002308A6002508831603131E048312031364
:102AF800A2002608A3002208A5002308A60026088D
:102B0800A1002508A000080083120313A501A6014F
:102B1800200821040319C12DA701A70AA11BA02D74
:102B280001300310A00DA10DFF3E031D952D0130AE
:102B3800A4002408A707922D01300310A50DA60DA7
:102B4800FF3E031DA12D21082302031DAD2D2008E2
:102B58002202031CB62D2008A2022108031CA3038D
:102B6800A302251401300310A10CA00CFF3E031D85
:102B7800B72D0130A702031DA02D2608A1002508A6
:102B8800A000080083120313AA01AB012A08250735
:102B9800A8002608A7000318A70AAA1BA7038312E0
:102BA80003132708A9002908FF00280884000A162B
:102BB8008A1100200A168A11003A031908002A0807
:102BC8002507A8002608A7000318A70AAA1BA70319
:102BD800831203132708A9002908FF002808840086
:102BE8000A168A1100200A168A110A168A112A243E
:102BF8000A168A11013083120313AA070318AB0AB5
:102C08000030AB07CA2D003083120313AC0000302C
:102C1800AB000030AA000030A900201C272E240891
:102C2800A907250803110318013E031DAA07260852
:102C380003110318013E031DAB07270803110318EE
:102C4800013E031DAC070130A8000310A40DA50D1B
:102C5800A60DA70DA80B292E01300310A30CA20C5A
:102C6800A10CA00CFF3E031D312E230822042104D1
:102C78002004031D112E2C08A3002B08A2002A08EB
:102C8800A1002908A000080083120313881A08006D
:102C9800823083160313B200DD30B100B10B522E1F
:102CA800B20B522E572E83120313881A08000030D5
:102CB8000A128A1590230A168A1183120313881A96
:102CC800982E01300A128A1590230A168A11831247
:102CD80003136F08031D7D2E6E08031D7D2E033020
:102CE8006D02031D7B2EE8306C02031D7B2E031C36
:102CF800612E0A128A15A9200A168A118312031353
:102D08008714023083160313B3000430B200BA30BC
:102D1800B100B10B8D2EB20B8D2EB30B8D2E000092
:102D28008312031387100800013083160313B100C0
:102D38003108EA0704306A02031C0800EA010800A7
:102D4800003083120313AC000030AB000030AA003F
:102D58000030A90023082204210420040319FB2EB3
:102D6800AD01AD0AA31BC62E0130A8000310A00DAB
:102D7800A10DA20DA30DA80BBA2E0130A80028089A
:102D8800AD07B62E0130A8000310A90DAA0DAB0D92
:102D9800AC0DA80BC82E23082702031DDD2E220820
:102DA8002602031DDD2E21082502031DDD2E200825
:102DB8002402031CEE2E2008A4022108031C210F64
:102DC800A5022208031C220FA6022308031C230FB6
:102DD800A702291401300310A30CA20CA10CA00C0B
:102DE800FF3E031DEF2E0130AD02031DC62E2C0839
:102DF800A3002B08A2002A08A1002908A0000800A7
:102E080083120313230803190E2F22082104200418
:102E1800031D212F0030A0000030A1000030A200C7
:102E280008000130A5002508A30701300310A20CF3
:102E3800A10CA00CFF3E031D1A2FFE30220503191A
:102E48003C2F152F0130A5002508A3070130A00746
:102E5800003003180130A107003003180130A20721
:102E680001300310A20CA10CA00CFF3E031D352F4E
:102E7800FF30220503194F2F262F02302302031C8F
:102E8800512F0130A30201300310A00DA10DA20D96
:102E9800FF3E031D482FA11F412F2318592FFF3034
:102EA800A0057F30A105FF30A2050310A30C23085D
:102EB800A500A601A70110300310A50DA60DA70DAA
:102EC800FF3E031D602F2508A0042608A10427083B
:102ED800A204240803190800A21708008312031388
:102EE8005E08E2005F08E3006008E4000310630D79
:102EF800640DE5006508EB006B08031D8C2F00309E
:102F0800E1000030E0000030DF000030DE000800A3
:102F18005E08E2005F08E3006008E4001730031071
:102F2800E40CE30CE20CFF3E031D932F6208E5005E
:102F38006508E600DF17FF30DE05FF30DF050030EB
:102F4800E0055E08E7005F08E8006008E900EA01BC
:102F58008E30EB02EB1FCE2F6B08803A8F3E0318A2
:102F6800BE2F0030E1000030E0000030DF0000300C
:102F7800DE00080001300310EA0CE90CE80CE70C4D
:102F8800FF3E031DBF2F0130E2006208EB07031963
:102F9800E92FBE2F18306B02031CE62F0030E1002A
:102FA8000030E0000030DF000030DE0008000130B3
:102FB800E2000310E70DE80DE90DEA0DE20BDD2F45
:102FC8000130EB026B08031DDB2F66080319F72F8E
:102FD800E709E809E909EA09E70A0319E80A031908
:102FE800E90A0319EA0A6A08E1006908E0006808C2
:082FF800DF006708DE0008009D
:02400E00F4E4D8
:00000001FF
