:100000000A128A111228C834FE00030EF4000408F4
:10001000F5000A08F600831203137F08F7000A169A
:100020008A15FB280A128A111528F801F901FA012C
:10003000FB018313CA308400E6300A128A11F827C4
:100040000A128A11831790308400B0300A128A1184
:10005000F8270A128A11831603130A168A15AB2091
:100060000A128A11E6000A168A15AC200A128A11B1
:10007000E7000A168A15AD200A128A11E8000A164E
:100080008A15AE200A128A11E9000A168A15AF20D5
:100090000A128A11EA000A168A15B0200A128A1179
:1000A000EB000A128A110320FC0083010A168A154C
:1000B000872A83120313071508140D30DE00FB3066
:1000C000DD00DD0B6128DE0B6128662800300A1692
:1000D0008A1587250A128A11831203135408E10036
:1000E0005508E2005608E3006108B4006208B50054
:1000F0006308B600893084000A168A1500200A12A7
:100100008A11A0000A168A1500200A128A11A1007D
:10011000893084000A168A1500200A128A11DD002F
:100120000A168A1500200A128A11DE007D3084002A
:100130000A168A1500200A128A11DF000A168A158B
:1001400000200A128A11E0005D085F07A2005E0825
:1001500003185E0A6007A3000A128A150D200A120E
:100160008A11831203132108A9002008A8000A1687
:100170008A1525210A128A11831203132808B70051
:100180002908B8002A08B9000A168A116C220A1236
:100190008A1183120313340883160313CA008312CF
:1001A0000313350883160313CB0083120313360899
:1001B00083160313CC0001300A168A1587250A120C
:1001C0008A11831203135408E1005508E20056080F
:1001D000E3006108B4006208B5006308B600893026
:1001E00084000A168A1500200A128A11A0000A1635
:1001F0008A1500200A128A11A100893084000A168B
:100200008A1500200A128A11DD000A168A150020BC
:100210000A128A11DE007F3084000A168A15002037
:100220000A128A11DF000A168A1500200A128A11A2
:10023000E0005D085F07A2005E0803185E0A600721
:10024000A3000A128A150D200A128A1183120313C1
:100250002108A9002008A8000A168A1525210A12DB
:100260008A11831203132808B7002908B8002A0846
:10027000B9000A168A116C220A128A11831203131A
:10028000340883160313CD00831203133508831635
:100290000313CE0083120313360883160313CF0013
:1002A00005300A168A1587250A128A11831203134C
:1002B0005408E1005508E2005608E3006108B40064
:1002C0006208B5006308B600893084000A168A15F2
:1002D00000200A128A11A0000A168A1500200A12AC
:1002E0008A11A100893084000A168A1500200A129A
:1002F0008A11DD000A168A1500200A128A11DE0012
:10030000813084000A168A1500200A128A11DF0043
:100310000A168A1500200A128A11E0005D085F079C
:10032000A2005E0803185E0A6007A3000A128A157D
:100330000D200A128A11831203132108A900200834
:10034000A8000A168A1525210A128A11831203139E
:100350002808B7002908B8002A08B9000A168A1127
:100360006C220A128A1183120313340883160313B2
:10037000D00083120313350883160313D1008312B0
:100380000313360883160313D200831203130810D5
:1003900087150D30DE00FB30DD00DD0BCD29DE0BD7
:1003A000CD29D22906300A168A1587250A128A1104
:1003B000831203135408E1005508E2005608E300D5
:1003C0006108B4006208B5006308B6008930840093
:1003D0000A168A1500200A128A11A0000A168A1528
:1003E00000200A128A11A100893084000A168A1599
:1003F00000200A128A11DD000A168A1500200A124E
:100400008A11DE00833084000A168A1500200A1241
:100410008A11DF000A168A1500200A128A11E000EC
:100420005D085F07A2005E0803185E0A6007A3006C
:100430000A128A150D200A128A1183120313210849
:10044000A9002008A8000A168A1525210A128A1177
:10045000831203132808B7002908B8002A08B90036
:100460000A168A116C220A128A11831203133408A5
:1004700083160313D3008312031335088316031363
:10048000D40083120313360883160313D5000330F8
:100490000A168A1587250A128A1183120313540833
:1004A000E1005508E2005608E3006108B400620864
:1004B000B5006308B600893084000A168A1500204A
:1004C0000A128A11A0000A168A1500200A128A113F
:1004D000A100893084000A168A1500200A128A11A8
:1004E000DD000A168A1500200A128A11DE00853006
:1004F00084000A168A1500200A128A11DF000A16E3
:100500008A1500200A128A11E0005D085F07A20028
:100510005E0803185E0A6007A3000A128A150D2000
:100520000A128A11831203132108A9002008A800C7
:100530000A168A1525210A128A1183120313280824
:10054000B7002908B8002A08B9000A168A116C22D7
:100550000A128A1183120313340883160313D60078
:1005600083120313350883160313D7008312031372
:10057000360883160313D80004300A168A15872517
:100580000A128A11831203135408E1005508E2008D
:100590005608E3006108B4006208B5006308B600BD
:1005A000893084000A168A1500200A128A11A000D8
:1005B0000A168A1500200A128A11A10089308400C7
:1005C0000A168A1500200A128A11DD000A168A15F9
:1005D00000200A128A11DE00873084000A168A156C
:1005E00000200A128A11DF000A168A1500200A125A
:1005F0008A11E0005D085F07A2005E0803185E0A2A
:100600006007A3000A128A150D200A128A118312AC
:1006100003132108A9002008A8000A168A1525211D
:100620000A128A11831203132808B7002908B80098
:100630002A08B9000A168A116C228312031334089F
:1006400083160313D900831203133508831603138B
:10065000DA0083120313360883160313DB008312B8
:10066000031387110711080083120313CC00CC1F5A
:10067000912CCC09CC0A4C08803A123E031C002C69
:100680000330C7004708B0000A30A7000030A800B8
:100690004C08A200A301A21BA3036430A0000030F9
:1006A000A1000A168A1568230A128A1183120313FD
:1006B0002108AA002008A9000A168A1503240A1294
:1006C0008A11831203132708093E0A168A11012092
:1006D0000A128A11293E84000A168A1500200A127D
:1006E0008A1183120313B4000A168A1500200A1215
:1006F0008A11B5000A168A1500200A128A11B6005E
:100700000330C8004808B0006430A7000030A800DB
:100710004C08A900AA01A91BAA030A168A150324DA
:100720000A128A11831203132708123E0A168A112D
:1007300001200A128A11293E84000A168A15002017
:100740000A128A1183120313B7000A168A150020B1
:100750000A128A11B8000A168A1500200A128A1194
:10076000B9000A168A116C220A128A118312031325
:100770003408C9003508CA003608CB000330C7006A
:100780004708B0004C08A200A301A21BA3030A3033
:10079000A0000030A1000A168A1568230A128A11E7
:1007A0008312031320080A168A1101200A128A11E3
:1007B000293E84000A168A1500200A128A11831223
:1007C0000313B4000A168A1500200A128A11B50014
:1007D0000A168A1500200A128A11B6004908B700C5
:1007E0004A08B8004B08B9000A168A116C22831215
:1007F00003133408C4003508C5003608C6000800D5
:100800004C08803A753E031C722C0330C700470821
:10081000B0004C08A200A301A21BA3030A30A00051
:100820000030A1000A168A1568230A128A11831261
:10083000031320080A168A1101200A128A11293E80
:1008400084000A168A1500200A128A1183120313E3
:10085000B4000A168A1500200A128A11B5000A1679
:100860008A1500200A128A11B6000330C800480811
:10087000B0000A30A7000030A8004C08A900AA0167
:10088000A91BAA030A168A1503240A128A118312C5
:1008900003132708093E0A168A1101200A128A1139
:1008A000293E84000A168A1500200A128A11831232
:1008B0000313B7000A168A1500200A128A11B8001D
:1008C0000A168A1500200A128A11B9000A168A111E
:1008D0006C22831203133408C4003508C50036089F
:1008E000C60008000330C7004708B0004C080A16CD
:1008F0008A1101200A128A11293E84000A168A15DB
:1009000000200A128A1183120313C4000A168A15E2
:1009100000200A128A11C5000A168A150020C60096
:1009200008004C08803A123E031C562D0330C700C5
:100930004708B0000A30A7000030A8004C08A20009
:10094000A301A21BA3036430A0000030A1000A167B
:100950008A1568230A128A11831203132108AA0038
:100960002008A9000A168A1503240A128A11831284
:1009700003132708093E0A168A1101200A128A1158
:10098000503E84000A168A1500200A128A1183122A
:100990000313B4000A168A1500200A128A11B50042
:1009A0000A168A1500200A128A11B6000330C80000
:1009B0004808B0006430A7000030A8004C08A90027
:1009C000AA01A91BAA030A168A1503240A128A116E
:1009D000831203132708123E0A168A1101200A12F5
:1009E0008A11503E84000A168A1500200A128A11C4
:1009F00083120313B7000A168A1500200A128A11FF
:100A0000B8000A168A1500200A128A11B9000A16BF
:100A10008A116C220A128A11831203133408C90046
:100A20003508CA003608CB000330C7004708B000BD
:100A30004C08A200A301A21BA3030A30A0000030AF
:100A4000A1000A168A1568230A128A118312031359
:100A500020080A168A1101200A128A11503E8400C9
:100A60000A168A1500200A128A1183120313B40091
:100A70000A168A1500200A128A11B5000A168A156C
:100A800000200A128A11B6004908B7004A08B800C7
:100A90004B08B9000A168A116C228312031334081A
:100AA000C4003508C5003608C60008004C08803A66
:100AB000753E031CC82D0330C7004708B0004C0822
:100AC000A200A301A21BA3030A30A0000030A100D2
:100AD0000A168A1568230A128A1183120313200842
:100AE0000A168A1101200A128A11503E84000A1641
:100AF0008A1500200A128A1183120313B4000A1601
:100B00008A1500200A128A11B5000A168A150020DB
:100B10000A128A11B6000330C8004808B0000A3033
:100B2000A7000030A8004C08A900AA01A91BAA032D
:100B30000A168A1503240A128A118312031327083E
:100B4000093E0A168A1101200A128A11503E8400B9
:100B50000A168A1500200A128A1183120313B7009D
:100B60000A168A1500200A128A11B8000A168A1578
:100B700000200A128A11B9000A168A116C22831207
:100B800003133408C4003508C5003608C600080041
:100B90000330C7004708B0004C080A168A1101202C
:100BA0000A128A11503E84000A168A1500200A1281
:100BB0008A1183120313C4000A168A1500200A1230
:100BC0008A11C5000A168A150020C60008000E2FDB
:100BD0000B3083160313BD003D08C6000C30BD006A
:100BE0003D08C7000F30CA3E840083130008C000D0
:100BF000840A0008C100840A0008C2006008C3001B
:100C00006108C40062080C2F83160313C601C60ACC
:100C10000230BD003D08C7004A08C0004B08C100B3
:100C20004C08C2000330CA3E8400831300088312BC
:100C30000313D400840A0008D500840A0008D600F3
:100C4000831603134A0883120313A00083160313A9
:100C50004B0883120313A100831603134C0883125D
:100C60000313E82E033083160313BD003D08C600AE
:100C70000430BD003D08C7000630CA3E840083131F
:100C8000000883120313D400840A0008D500840AE4
:100C90000008D6000330CA3E84000008A000840A81
:100CA0000008A100840A0008A2000A168A15B120D3
:100CB0000A128A11831203132008D7002108D800D2
:100CC0002208D9000A168A111E240A128A118312D8
:100CD0000313540883160313C0008312031355082B
:100CE00083160313C10083120313560883160313DC
:100CF000C2000930CA3E8400831300088312031324
:100D0000D400840A0008D500840A0008D600063002
:100D1000DF2E053083160313BD003D08C6000630E4
:100D2000BD003D08C7000C30CA3E84008313000894
:100D300083120313D400840A0008D500840A000833
:100D4000D6000930CA3E84000008A000840A0008CA
:100D5000A100840A0008A2000A168A15B1200A120E
:100D60008A11831203132008D7002108D800220813
:100D7000D9000A168A111E240A128A11831203133B
:100D8000540883160313C0008312031355088316F7
:100D90000313C10083120313560883160313C20002
:100DA0000F30CA3E84008313000883120313D4005B
:100DB000840A0008D500840A0008D6000C30CA3E18
:100DC00084000008A000840A0008A100840A00082A
:100DD000A2000A168A15B1200A128A11831203137F
:100DE0002008D7002108D8002208D9000A168A1145
:100DF0001E240A128A118312031354088316031344
:100E0000C30083120313550883160313C40083120F
:100E10000313560883160313C500232F83120313ED
:100E20006E08003A0319152F232F6D08003A031995
:100E3000E82D013A0319042E033A0319322E013A20
:100E40000319892E232F8B3083160313BD003D0811
:100E500083120313E700831603134608BE00BF0185
:100E60003E0883120313E800831603133F0883121E
:100E70000313E90083160313400883120313EA00E7
:100E800083160313410883120313EB008316031325
:100E9000420883120313EC00A0300A128A154B207B
:100EA0000A128A1100300A168A15F6220A128A11CD
:100EB000A0300A168A1595210A128A118B308316E2
:100EC0000313BD003D0883120313E70083160313C9
:100ED0004708BE00BF013E0883120313E8008316D3
:100EE00003133F0883120313E90083160313430817
:100EF00083120313EA0083160313440883120313B7
:100F0000EB0083160313450883120313EC009030A3
:100F10000A128A154B200A128A1110300A168A15F5
:100F2000F6220A128A1190300A168A1595210800B5
:100F3000003083120313AC000030AB000030AA0075
:100F40000030A90023082204210420040319EF2FF4
:100F5000AD01AD0AA31BBA2F0130A8000310A00DEC
:100F6000A10DA20DA30DA80BAE2F0130A8002808DB
:100F7000AD07AA2F0130A8000310A90DAA0DAB0DD3
:100F8000AC0DA80BBC2F23082702031DD12F22086C
:100F90002602031DD12F21082502031DD12F200871
:100FA0002402031CE22F2008A4022108031C210FA5
:100FB000A5022208031C220FA6022308031C230FEC
:100FC000A702291401300310A30CA20CA10CA00C41
:100FD000FF3E031DE32F0130AD02031DBA2F2C0885
:100FE000A3002B08A2002A08A1002908A0000800DD
:100FF00064008001840A0406031900340406F92FF2
:1010020083160313811201168111073081048B1696
:101012000B110B178B17080083120313A501A601EE
:101022002008210403194628A701A70AA11B252885
:1010320001300310A00DA10DFF3E031D1A2801303F
:10104200A4002408A707172801300310A50DA60D38
:10105200FF3E031D262821082302031D32282008F3
:101062002202031C3B282008A2022108031CA3031E
:10107200A302251401300310A10CA00CFF3E031D96
:101082003C280130A702031D25282608A1002508B7
:10109200A000080083160313B6006830A0002008E1
:1010A200A900013083120313E707FF3067078400AA
:1010B2000A168A1500200A128A1583160313A00045
:1010C2002008BC003C080319FB2F25303C060319FD
:1010D20076283C08A0003608840020088317800088
:1010E2000130A0002008B6075228AA01AB018312E2
:1010F2000313670884000A168A1500200A128A154B
:101102002E3A031DDA28831603132B170130A00091
:10111200200883120313E70783160313B701B801EC
:101122008312670884000A168A1500200A128A159B
:101132000A168A15DA200A128A15031CE728831672
:101142000313380883120313A1008316031337080D
:1011520083120313A0000A30A2000030A3000A1673
:101162008A15B8210A128A158312031367088400AC
:101172000A168A1500200A128A15200783160313FD
:10118200A0000030031801308312031321078316D5
:101192000313A1002008D03EB70021080318013E26
:1011A200FF3EB8000130A000200883120313E707B6
:1011B200912883160313B701B8012B16E7282B15C4
:1011C2000029C030AA040030AB0400290130831288
:1011D2000313E707FF30670784000A168A15002009
:1011E2000A128A1583160313BC00003A0319FB2F57
:1011F200663A0319E028133A0319E228522800300C
:101202002A05A00007302B05A1002008210403199C
:10121200DA2E2B1E10290630B7000030B80029083C
:10122200840083130008B900840A0008BA00840A03
:101232000008BB000330A0002008A9073908831268
:101242000313A000831603133A0883120313A100A9
:10125200831603133B0883120313A2000030A3007A
:101262000030A4000030A5000A168A15BA240A121A
:101272008A15031869298316031339088312031385
:10128200A000831603133A0883120313A1008316E6
:1012920003133B0883120313A2000A168A15B12016
:1012A2000A128A1583120313200883160313B90046
:1012B20083120313210883160313BA008312031344
:1012C200220883160313BB000330AA040030AB04C8
:1012D20083160313B001B1013B083A043904031920
:1012E200892AB930840083130008A000840A000808
:1012F200A100840A0008A200840A0008A3000F309B
:101302000310A30CA20CA10CA00CFF3E031D81290B
:10131200FF302005A40000302105A5002408823EEC
:10132200B00025080318013EFF3EB100FF30B007B0
:101332000318B10AFF30B107033083120313A00070
:101342000030A10083160313310883120313A30094
:1013520083160313300883120313A2000A168A1598
:10136200B8210A128A158312031321088316031364
:10137200B10083120313200883160313B0000A304E
:1013820083120313A7000030A80083160313310849
:1013920083120313AA008316031330088312031364
:1013A200A9000A168A1503240A128A158312031346
:1013B200280883160313B100831203132708831628
:1013C2000313B000B11FEB29FF30B0070318B10AB5
:1013D200FF30B1073003FF3A0A128A1134230A128E
:1013E2008A1583120313440883160313B20083126F
:1013F2000313450883160313B3008312031346082D
:1014020083160313B400390883120313B40083163E
:1014120003133A0883120313B500831603133B0820
:1014220083120313B60083160313320883120313C5
:10143200B70083160313330883120313B80083160D
:101442000313340883120313B9000A168A116C229B
:101452000A128A1583120313340883160313B20087
:1014620083120313350883160313B3008312031385
:10147200360883160313B400320883120313A00044
:1014820083160313330883120313A1008316031375
:10149200340883120313A2000030A3008030A4009A
:1014A2003F30A5000A168A15BA240A128A150318B3
:1014B200622AFF3083160313B0070318B10AFF3004
:1014C200882A83160313320883120313A00083169B
:1014D2000313330883120313A10083160313340882
:1014E20083120313A2000030A3002030A400413075
:1014F200A5000A168A15BA240A128A15031C892A1B
:10150200013083160313B0070318B10A0030B10784
:10151200831603133808803AFF0080307F02031DD0
:10152200942A0D3037020318CF2A83160313370883
:101532000A168A115A260A128A15831203134408BC
:10154200D4004508D5004608D6008316031339088F
:1015520083120313D700831603133A08831203136B
:10156200D800831603133B0883120313D9000A160B
:101572008A111E240A128A15831203135408831631
:101582000313B90083120313550883160313BA0019
:1015920083120313560883160313BB008316031327
:1015A2003108803AFF0080307F02031DDA2A0A30B8
:1015B200300203180D2B831603133B083A04390437
:1015C2000319942B390883120313CD0083160313D6
:1015D2003A0883120313CE00831603133B088312C7
:1015E2000313CF000A168A1511260A128A158312CE
:1015F200031350084F044E044D04031D942B83160D
:1016020003133108803AFF0080307F02031D0B2B49
:1016120002303002031C942B831603133208831208
:101622000313A00083160313330883120313A100CC
:1016320083160313340883120313A2007030A3002D
:101642008930A4004030A5000A168A15BA240A126D
:101652008A1503182E2BF7302F2BF830831603131D
:10166200B0070318B10AFF30B10730080A128A1115
:1016720034230A128A1583120313440883160313B0
:10168200B20083120313450883160313B3008312B7
:101692000313460883160313B40039088312031395
:1016A200A000831603133A0883120313A1008316C2
:1016B20003133B0883120313A20083160313320899
:1016C20083120313A3008316031333088312031335
:1016D200A40083160313340883120313A5000A1609
:1016E2008A1114200A128A158312031323088316FF
:1016F2000313AF0083120313220883160313AE00F1
:1017020083120313210883160313AD0083120313FC
:10171200200883160313AC000030B9000030BA0071
:101722000030BB00112C83160313390883120313F4
:10173200CD00831603133A0883120313CE008316D7
:1017420003133B0883120313CF000A168A151126CE
:101752000A128A1583120313500883160313AF006B
:10176200831203134F0883160313AE00831203136D
:101772004E0883160313AD00831203134D0883161C
:101782000313AC002F0883120313AB008316031359
:101792002E0883120313AA00831603132D08831243
:1017A2000313A900831603132C0883120313A80042
:1017B2000A168A1558220A128A1583120313280858
:1017C200E1002908E2002A08E3008316031339081E
:1017D20083120313E400831603133A0883120313DC
:1017E200E500831603133B0883120313E6000A166F
:1017F2008A1574210A128A1583120313610883164B
:101802000313B90083120313620883160313BA0089
:1018120083120313630883160313BB00B001B101E3
:10182200BC01BC0A0A303C060319532C3C08A00038
:1018320001300310A00DFF3E031D1A2C0310200DD2
:10184200013E84000A168A1500200A128A15A10098
:101852000A168A1500200A128A15A2000A168A158B
:1018620000200A128A15A3000A168A1500200A12FD
:101872008A15A40024082F02031D492C23082E02D6
:10188200031D492C22082D02031D492C21082C027C
:10189200031C532C0130A0002008BC070A303C0670
:1018A200031D172C03302A05A00000302B05A100D0
:1018B200200821040319682C2D30A000360884006A
:1018C2002008831780000130A0002008B607FF30EF
:1018D200A0002008BC073C0A03191F2D3C08A000E9
:1018E20001300310A00DFF3E031D722C0310200DCA
:1018F200013E84000A168A1500200A128A158312F4
:101902000313A0000A168A1500200A128A15A100E4
:101912000A168A1500200A128A15A2000A168A15CA
:1019220000200A128A15A300831603132F088312BC
:101932000313A700831603132E0883120313A600B2
:10194200831603132D0883120313A50083160313B2
:101952002C0883120313A4000A128A1198270A1270
:101962008A1583120313230883160313B500831207
:101972000313220883160313B400831203132108EE
:1019820083160313B3008312031320088316031371
:10199200B200003083120313B1000030B0000030F7
:1019A200AF000A30AE008316031335088312031307
:1019B200B50083160313340883120313B40083168D
:1019C2000313330883120313B3008316031332087D
:1019D20083120313B2000A168A15B5230A128A1556
:1019E20083120313310883160313B5008312031302
:1019F200300883160313B400831203132F088316CF
:101A02000313B300831203132E0883160313B200C9
:101A12003208303E5E2C303083160313A0003608A5
:101A220084002008831780000130A0002008B60738
:101A3200FF30B0070318B10AFF30B1073108803A0E
:101A4200FF0080307F02031D282D01303002031871
:101A52000C2D831603133808803AFF0080307F0272
:101A6200031D352D09303702031C3B2D0830831628
:101A720003133E2D831603133708A0002008BC0071
:101A82003C08A000A101A01BA1032008B702210865
:101A9200031CB803B8023C0803195A2D2E30A000CB
:101AA200360884002008831780000130A000200837
:101AB200B6073C080A128A1134230A128A158312C5
:101AC2000313440883160313A60083120313450865
:101AD20083160313A7008312031346088316031306
:101AE200A800260883120313B700831603132708DE
:101AF20083120313B80083160313280883120313F7
:101B0200B90083160313390883120313B400831632
:101B120003133A0883120313B500831603133B0819
:101B220083120313B6000A168A116C220A128A154E
:101B3200831203133408CD003508CE003608CF00D7
:101B42000A168A1511260A128A15831203135008DF
:101B520083160313AF00831203134F088316031374
:101B6200AE00831203134E0883160313AD008312D3
:101B720003134D0883160313AC00FF30A0002008A6
:101B8200BC073C0A0319D52E3C08A0000130031003
:101B9200A00DFF3E031DC82D0310200D013E840041
:101BA2000A168A1500200A128A1583120313A0004E
:101BB2000A168A1500200A128A15A1000A168A1529
:101BC20000200A128A15A2000A168A1500200A129B
:101BD2008A15A300831603132F0883120313A70089
:101BE200831603132E0883120313A600831603130E
:101BF2002D0883120313A500831603132C088312E6
:101C02000313A4000A128A1198270A128A15831252
:101C12000313230883160313B50083120313220848
:101C220083160313B40083120313210883160313CC
:101C3200B30083120313200883160313B20000308B
:101C420083120313B1000030B0000030AF000A303D
:101C5200AE0083160313350883120313B5008316EF
:101C62000313340883120313B400831603133308D7
:101C720083120313B3008316031332088312031370
:101C8200B2000A168A15B5230A128A1583120313A3
:101C9200310883160313B500831203133008831629
:101CA2000313B400831203132F0883160313B30024
:101CB200831203132E0883160313B2003208303E38
:101CC200A000360884002008831780000130A0009D
:101CD2002008B6073C08A00001300310A00DFF3E0B
:101CE200031D6E2E0310200D013E84000A168A1574
:101CF20000200A128A1583120313AE000A168A15EF
:101D020000200A128A15AF000A168A1500200A124C
:101D12008A15B0000A168A1500200A128A15B10027
:101D2200831603132F0883120313B50083160313BC
:101D32002E0883120313B400831603132D08831293
:101D42000313B300831603132C0883120313B20088
:101D52000A168A15B5230A128A158312031331084B
:101D620083160313AF008312031330088316031381
:101D7200AE00831203132F0883160313AD008312E0
:101D820003132E08BB2D3030A00036088400200833
:101D9200831780000130A0002008B607FF30B70784
:101DA2000318B80AFF30B807370838040319522855
:101DB200C42E2908840083130008A000840A0008A6
:101DC200A1002008AC002108AD00AE01AF01023035
:101DD200A0002008A90737083804031DFC2E2F088D
:101DE2002E042D042C04031DFC2E0130B70703180A
:101DF200B80A0030B807BC01BC0A0A303C06031915
:101E02003E2F3C08A00001300310A00DFF3E031D31
:101E1200052F0310200D013E84000A168A150020AA
:101E22000A128A15A1000A168A1500200A128A15BA
:101E3200A2000A168A1500200A128A15A3000A16A1
:101E42008A1500200A128A15A40024082F02031DF5
:101E5200342F23082E02031D342F22082D02031DC6
:101E6200342F21082C02031C3E2F0130A000200831
:101E7200BC070A303C06031D022F3C08A000A1014A
:101E8200A01BA1032108803AA2003808803A22024E
:101E9200031D4D2F370820020318562F83160313F4
:101EA2003708A0002008BC00702F831603133C08DB
:101EB200A000A101A01BA1033808803AA2002108BA
:101EC200803A2202031D672F200837020318702F61
:101ED200831603133C08B700B801B71BB8030330DD
:101EE200831603132A05A00000302B05A100200849
:101EF20021040319872F2D30A00036088400200802
:101F0200831780000130A0002008B607FF30B70712
:101F12000318B80AFF30B807370A0319380A031939
:101F22005228003083120313B1000030B000003099
:101F3200AF000A30AE00831603133708A000013049
:101F42000310A00DFF3E031DA12F0310200D013E23
:101F520084000A168A1500200A128A1583120313B6
:101F6200A0000A168A1500200A128A15A1000A1674
:101F72008A1500200A128A15A2000A168A15002064
:101F82000A128A15A300831603132F088312031360
:101F9200A700831603132E0883120313A6008316C9
:101FA20003132D0883120313A500831603132C08B1
:101FB20083120313A4000A128A1198270A128A159F
:101FC200831203132308B5002208B4002108B300CA
:101FD2002008B2000A168A15B5230A128A1583123E
:101FE20003132E08303E83160313A1002108BC0000
:0E1FF2003C087D2F360884008317800108000C
:1020020083120313B300B201331C0B283008B10052
:102012003108B2070310B00D0310B30C3308031DCF
:10202200052832080800831203132008A60021089D
:10203200A7002208A8000310270D280DA9002908CF
:10204200AF002F08031D2E280030A3000030A2008D
:102052000030A1000030A00008002308A6002408D8
:10206200A7002508A8000310270D280DA90029089C
:10207200AE002E08031D46280030A3000030A20047
:102082000030A1000030A0000800A117FF30A00519
:10209200FF30A1050030A205A417FF30A305FF30D1
:1020A200A4050030A5050030AD000030AC000030C2
:1020B200AB000030AA007F30AF0298302E07A60096
:1020C2002608AF021830A6002608AE000130A6008E
:1020D2000310AA0DAB0DAC0DAD0DA60B692825089A
:1020E2002202031D7A2824082102031D7A282308CC
:1020F2002002031C87282308A0022408031C240FA3
:10210200A1022508031C250AA2022A140130031089
:10211200A00DA10DA20DFF3E031D88280130AE02C5
:10212200031D6728AF1FB3282F08803A973E031874
:10213200A3280030A3000030A2000030A10000302C
:10214200A000080001300310AD0CAC0CAB0CAA0CC3
:10215200FF3E031DA4280130A6002608AF0703197D
:10216200CE28A32818302F02031CCB280030A3004E
:102172000030A2000030A1000030A00008000130B1
:10218200A6000310AA0DAB0DAC0DAD0DA60BC22817
:102192000130AF022F08031DC0282D08A3002C0810
:1021A200A2002B08A1002A08A00008008312031332
:1021B200881407150D30D500FB30D400D40BDF286E
:1021C200D50BDF28E42883160313E301E40183120D
:1021D2000313D601D7015708803AFF0080307F02EF
:1021E200031DF5280B30560203181E2902300A1669
:1021F2008A152F230A168A118312031320088316C5
:102202000313E3070318E40A831203132108831656
:102212000313E407013083120313D6070318D70A06
:102222000030D7075708803AFF0080307F02031D35
:102232001C290B305602031CF7280A3083120313A1
:10224200A0000030A1008316031364088312031355
:10225200A30083160313630883120313A2000A1256
:102262008A150D200A168A11831203132108831678
:102272000313E40083120313200883160313E300FD
:102282008312031388100711831603136408831241
:102292000313A90083160313630883120313A80010
:1022A2000A168A1525210A168A1183120313280891
:1022B200C4002908C5002A08C600C030B4007F3017
:1022C200B5004430B6007A3084000A168A15002020
:1022D2000A168A11B7000A168A1500200A168A11F0
:1022E200B8000A168A1500200A168A11B9000A16C1
:1022F2008A116C220A168A11831203133408C7004A
:102302003508C8003608C9000A168A1548278312FC
:102312000313440883160313E900831203134508C9
:1023220083160313EA00831203134608831603136A
:10233200EB00080083120313D901DA01D701D80197
:102342005808803AFF0080307F02031DAA290B3013
:1023520057020318CB2907300A168A152F230A16AB
:102362008A11831203132008D9070318DA0A2108F5
:10237200DA070130D7070318D80A0030D8075808FF
:10238200803AFF0080307F02031DC9290B305702BB
:10239200031CAC290A3083120313A0000030A100F1
:1023A2005A08A3005908A2000A128A150D200A161B
:1023B2008A11831203132108DA002008D900C030E1
:1023C200C4007F30C5004430C60083160313690879
:1023D20083120313B400831603136A0883120313D0
:1023E200B500831603136B0883120313B6005A0851
:1023F200A9005908A8000A168A1525210A168A1169
:10240200831203132808B7002908B8002A08B90064
:102412000A168A116C220A168A11831203133408CF
:10242200C7003508C8003608C9000A168A154827A9
:102432000A168A11831203134408D4004508D500F2
:102442004608D60083160313660883120313B400EA
:1024520083160313670883120313B500831603134D
:10246200680883120313B6007C080A168A155621DF
:102472000A168A11831203132808B7002908B80024
:102482002A08B9000A168A116C220A168A118312C6
:1024920003133408C4003508C5003608C6005408C2
:1024A200C7005508C8005608C9000A168A154827E9
:1024B20083120313440883160313E00083120313E9
:1024C200450883160313E10083120313460883169B
:1024D2000313E2000800831203133408BA0035081C
:1024E200BB003608BC0003103B0D3C0DBD003D088F
:1024F200BE003E08031D842A0030B4000030B5003F
:102502000030B60008003708BA003808BB003908A6
:10251200BC0003103B0D3C0DBD003D08C300430849
:10252200031D9A2A0030B4000030B5000030B60016
:10253200080043087B3EBA003A08BE073408BA00D6
:102542003508BB003608BC0010300310BC0CBB0CB5
:10255200BA0CFF3E031DA62A3A08BD003D08C3007F
:102562003708BA003808BB003908BC001030031025
:10257200BC0CBB0CBA0CFF3E031DB82A3A08BD00C6
:102582003D08C3068030BA003A08C305B517B8172C
:10259200FF30B705FF30B8050030B9050030BF0085
:1025A2000030C0000030C1000730BA003A08C20053
:1025B200341CE92A3708BF07380803110318380A00
:1025C200031DC007390803110318390A031DC10787
:1025D20001300310B60CB50CB40CFF3E031DEA2A01
:1025E20001300310B70DB80DB90DFF3E031DF22ADD
:1025F2000130C202031DD92A0930BA003A08C200CA
:10260200341C112B3708BF07380803110318380A86
:10261200031DC007390803110318390A031DC10736
:1026220001300310B60CB50CB40CFF3E031D122B87
:1026320001300310C10CC00CBF0CFF3E031D1A2B4E
:102642000130C202031D012B3F08A0004008A10077
:102652004108A2003E08BA003A08A3004308BB00A2
:102662003B08A4000A168A151925831203132008B1
:10267200B4002108B5002208B60008008312031333
:10268200EB000030EF000030EE000030ED000030D3
:10269200EC000D2C0108780783160313DC0079087F
:1026A2000318790F0310DD007A0803187A0F03105C
:1026B200DE007B0803187B0ADF000030831203135D
:1026C200DE000030DD000030DC000130DB000800FD
:1026D2007808DF007908E0007A08E1007B08E20070
:1026E200831603135C0983120313E3008316031397
:1026F2005D0983120313E400831603135E09831238
:102702000313E500831603135F0983120313E60024
:10271200E30A0319E40A0319E50A0319E60A0108A0
:10272200E700E801E901EA016708E307680803181E
:10273200680F9C2B9D2BE40769080318690FA22BD5
:10274200A32BE5076A0803186A0AE6076308DF078E
:1027520064080318640FAE2BAF2BE007650803185B
:10276200650FB42BB52BE10766080318660AE2076A
:102772006208EF006108EE006008ED005F08EC00FF
:102782006F08AB006E08AA006D08A9006C08A800CB
:102792000A168A1558220A168A1183120313280868
:1027A200B7002908B8002A08B900773084000A1651
:1027B2008A1500200A168A11B4000A168A1500200A
:1027C2000A168A11B5000A168A1500200A168A11FD
:1027D200B6000A168A116C220A168A118312031392
:1027E2003408CD003508CE003608CF000A168A1507
:1027F2001126831203135008EF004F08EE004E0813
:10280200ED004D08EC006F08DE006E08DD006D087B
:10281200DC006C08DB0008006B08003A03194B2B44
:10282200013A0319692B152C0030DE000030DD005F
:102832000030DC000030DB00080083120313540870
:10284200DA005508DB005608DC0003105B0D5C0D56
:10285200DD005D08E0005708DA005808DB0059087F
:10286200DC0003105B0D5C0DDD005D08DF0060081D
:102872000319472C5F08600203184E2C6003FF3ACD
:102882005F07DA0019305A02031C4E2C5708D40095
:102892005808D5005908D60008005F080319080037
:1028A20060085F0203185D2C5F03FF3A6007DA00DD
:1028B20019305A02031808000630DA005A08DE00FE
:1028C200D61BDE17D91B5E17D517FF30D405FF3094
:1028D200D5050030D605D817FF30D705FF30D8050B
:1028E2000030D9055F08600203189D2C01300310E7
:1028F200D70DD80DD90DFF3E031D782C0130DF0214
:102902005F0860060319982C0130DE025E08073961
:102912000319982C772C01300310D60CD50CD40C4B
:10292200FF3E031D8D2C0130DA005A08E0076008D3
:102932005F060319C62C8C2C60085F020318C62C94
:1029420001300310D40DD50DD60DFF3E031DA22C70
:102952000130E0025F0860060319C22C0130DE027A
:102962005E0807390319C22CA12C01300310D90CBF
:10297200D80CD70CFF3E031DB72C0130DA005A08E1
:10298200DF0760085F06031DB62CDE1FD82CFF3060
:10299200D406FF30D506FF30D6060130D40700300A
:1029A20003180130D507003003180130D6075E1F27
:1029B200EA2CFF30D706FF30D806FF30D9060130A7
:1029C200D707003003180130D80700300318013050
:1029D200D907DE015408D707550803110318550A11
:1029E200031DD807560803110318560A031DD907F9
:1029F200D91F0D2DFF30D706FF30D806FF30D9067C
:102A02000130D707003003180130D807003003180F
:102A12000130D907DE01DE0A5708A0005808A100DC
:102A22005908A2006008DA005A08A3005E08DB0019
:102A32005B08A4000A168A151925831203132008BD
:102A4200D4002108D5002208D600080020308400D6
:102A52008313000883120313A600840A0008A70048
:102A6200840A0008A800840A0008A9000310280D9F
:102A7200290DAA002A08B3003308031D492D00308E
:102A8200A3000030A2000030A1000030A000080026
:102A9200233084000008A600840A0008A700840AE4
:102AA2000008A800840A0008A9000310280D290DB7
:102AB200AA002A08B2003208031D682D0030A300C4
:102AC2000030A2000030A1000030A0000800203039
:102AD200840000308004840A00308004840A80303C
:102AE2008004840A0030800420308400FF30800596
:102AF200840AFF308005840AFF308005840A003092
:102B020080052330840000308004840A0030800471
:102B1200840A80308004840A0030800423308400D8
:102B2200FF308005840AFF308005840AFF3080056B
:102B3200840A003080050030B1000030B00000305F
:102B4200AF000030AE007F30B302A0303207A600E3
:102B52002608B3022030A6002608B2000130A600E3
:102B62000310AE0DAF0DB00DB10DA60BB12D23307C
:102B720084000008A600840A0008A700840A00084E
:102B8200A800840A0008A900203084000008AA00D6
:102B9200840A0008AB00840A0008AC00840A00081A
:102BA200AD0029082D02031DE02D28082C02031D6B
:102BB200E02D27082B02031DE02D26082A02031C04
:102BC200052E233084000008A600840A0008A7000E
:102BD200840A0008A800840A0008A90020308400A2
:102BE20026088002840A2708031C270F8002840A11
:102BF2002808031C280F8002840A2908031C290ABA
:102C02008002033084022E14203084000310800DD1
:102C1200840A800D840A800D840A800D8403840353
:102C220084030130B202031DAF2DB31F362E3308C9
:102C3200803A9F3E0318262E0030A3000030A200E7
:102C42000030A1000030A000080001300310B10CD8
:102C5200B00CAF0CAE0CFF3E031D272E0130A600B8
:102C62002608B3070319512E262E20303302031CE7
:102C72004E2E0030A3000030A2000030A100003030
:102C8200A00008000130A6000310AE0DAF0DB00D7C
:102C9200B10DA60B452E0130B3023308031D432E9E
:102CA2003108A3003008A2002F08A1002E08A000BE
:102CB200080083120313D3006E305302031C402F0B
:102CC2000330C7004708B0000A30A7000030A80050
:102CD2005308C800C9014808A2004908A30064308B
:102CE200A0000030A1000A168A1568230A168A116C
:102CF200831203132108AA002008A9000A168A15C4
:102D020003240A168A11831203132708093E0A169E
:102D12008A1101200A168A11293E84000A168A1590
:102D220000200A168A1183120313B4000A168A15A8
:102D320000200A168A11B5000A168A1500200A1602
:102D42008A11B6000330CA004A08B0006430A700F6
:102D52000030A8005308CB00CC014B08A9004C0856
:102D6200AA000A168A1503240A168A11831203136B
:102D72002708123E0A168A1101200A168A11293ED4
:102D820084000A168A1500200A168A118312031378
:102D9200B7000A168A1500200A168A11B8000A1608
:102DA2008A1500200A168A11B9000A168A116C22A5
:102DB2000A168A11831203133408D0003508D10091
:102DC2003608D2000330C7004708B0005308C800D5
:102DD200C9014808A2004908A3000A30A000003037
:102DE200A1000A168A1568230A168A118312031390
:102DF20020080A168A1101200A168A11293E840027
:102E02000A168A1500200A168A1183120313B400C7
:102E12000A168A1500200A168A11B5000A168A15A2
:102E220000200A168A11B6005008B7005108B800EF
:102E32005208B9000A168A116C220A168A118312E4
:102E420003133408CD003508CE003608CF00003019
:102E5200B4000030B5003F30B6004D08B7004E0850
:102E6200B8004F08B9000A168A116C2283120313A4
:102E72003408C4003508C5003608C60008000B3007
:102E82005302031CCE2F0330C7004708B00053087B
:102E9200C800C9014808A2004908A3000A30A000DE
:102EA2000030A1000A168A1568230A168A118312B5
:102EB200031320080A168A1101200A168A11293ED4
:102EC20084000A168A1500200A168A118312031337
:102ED200B4000A168A1500200A168A11B5000A16CD
:102EE2008A1500200A168A11B6000330CA004A0861
:102EF200B0000A30A7000030A8005308CB00CC0174
:102F02004B08A9004C08AA000A168A1503240A16BF
:102F12008A11831203132708093E0A168A11012017
:102F22000A168A11293E84000A168A1500200A16FA
:102F32008A1183120313B7000A168A1500200A1693
:102F42008A11B8000A168A1500200A168A11B900D9
:102F52000A168A116C220A168A1183120313340884
:102F6200D0003508D1003608D2000030B40000305D
:102F7200B5003F30B6005008B7005108B8005208FB
:102F8200B9000A168A116C22831203133408C40092
:102F92003508C5003608C60008000030B40000300D
:102FA200B5003F30B6000330C7004708B0005308F1
:102FB2000A168A1101200A168A11293E84000A166D
:102FC2008A1500200A168A1183120313B7000A1603
:102FD2008A1500200A168A11B8000A168A150020DE
:102FE2000A168A11B9000A168A116C228312031377
:102FF2003408C4003508C5003608C6000800183079
:103002008A000408840A8207003401340034003440
:1030120000340A34003400340034643400340034A0
:103022000034E834033400340034103427340034DC
:103032000034A034863401340034403442340F3436
:10304200003480349634983400340034E134F5345A
:1030520005340034CA349A343B34003480343F346B
:10306200CD34CC343D34D73423343C34123483341D
:103072003A34B734D1343834C63427343734383458
:1030820086343534C034D6343334CC342B343234F1
:10309200703489343034E734DB342E34E5343C3454
:1030A2001E344234A2340D34003480343F340034B0
:1030B200203441340034C834423400347A34443445
:1030C20040341C3446345034C334473424347434CA
:1030D2004934973418344B34BC34BE344C346B34DA
:1030E2006E344E340334153450347934AD34603494
:1030F200F33449347134123403343E349E348F3401
:103102003F34983408345C341234103427346C342D
:10311200393420344E347C346034983408342534C5
:1031220075343A34203425342E3432346634203423
:1031320020342034203420342034203420342034ED
:02314200003457
:10315600D73423343C346634863440348312031324
:10316600220821042004031908008030A206080062
:103176008130831203139F007030831603139F0060
:10318600831203139E01831603139E010800831204
:10319600031386140330A1009730A000A00BD1289A
:1031A600A10BD128D6288312031386100800831298
:1031B6000313A100A0013A3021020318E828303099
:1031C6002102031CE828A001A00A200C0800831293
:1031D6000313A20022080A168A150D210A168A155B
:1031E60083120313061088130A168A15CA200800CC
:1031F6000A168A15DB210A168A1577088312031325
:10320600FF0076088A0075088400740E8300FE0E9F
:103216007E0E090083120313A000201E1429061532
:1032260015290611A01E192986151A298611201F8F
:103236001E2906161F290612A01F23298616080016
:1032460086120800831203132808A0002908A1008B
:10325600A2018E30AB002B08A300A4010A168A1522
:103266001925831203132008A8002108A9002208A3
:10327600AA00080083120313A00064302002031C76
:103286004D29051764302006031D4B2985130800B8
:1032960085170800051319302006031D54298513C8
:1032A60008008517080083120313AF002F08AB0030
:1032B600AC01AD012B08A0002C08A1002D08A2002E
:1032C6008E30AE002E08A300A4010A168A15192511
:1032D600831203132008A8002108A9002208AA00C7
:1032E60008008312031363086204610403197D292D
:1032F6008030E3066408D4006508D5006608D60069
:103306006108D7006208D8006308D9000A168A1136
:103316001E24831203135408E1005508E2005608E0
:10332600E300080083120313A800A601A7012608DC
:103336002807A5002508840083170008031908003C
:1033460026082807A50025088400831700080A1602
:103356008A1503220A168A15013083120313A6075B
:103366000318A70A0030A7079A2983120313A4019A
:10337600A501201CC4292208A4070318A50A2308AE
:10338600A50701300310A20DA30DFF3E031DC5299D
:1033960001300310A10CA00CFF3E031DCC29200810
:1033A6002104031DBC292508A1002408A00008004B
:1033B6000B1D08008B1E0800FF30F0000030F100E6
:1033C6000030F2000030F3007808F007790803189F
:1033D600790FEE29EF29F1077A0803187A0FF429F5
:1033E600F529F2077B0803187B0AF3077308FB002D
:1033F6007208FA007108F9007008F8000B1108004D
:1034060083120313A40024080A168A150D210A162E
:103416008A158312031306140A168A15CA200A1679
:103426008A15831203132408A20003300310A20D89
:10343600FF3E031D192A0310220DA3002308A40032
:1034460024080A168A150D210A168A150A168A15DF
:10345600CA20080083120313A40024080A168A153A
:103466000D210A168A1583120313061088130A16ED
:103476008A15CA200A168A15831203132408A20085
:1034860003300310A20DFF3E031D442A0310220D34
:10349600A3002308A40024080A168A150D210A167B
:1034A6008A150A168A15CA2008008E30831203135D
:1034B600AC002C08AD00FF302B050319702A013033
:1034C6000310AB0CAA0CA90CA80CFF3E031D632A23
:1034D6000130AC002C08AD075E2A2808A000290898
:1034E600A1002A08A2002D08AC002C08A300A40104
:1034F6000A168A151925831203132008A800210825
:10350600A9002208AA0008000A168A15BE220A1671
:103516008A15831203130816C8300A168A153D2128
:103526000A168A150A168A11D7200A168A150A1645
:103536008A119B210A168A150A128A1159200A161F
:103546008A150A168A155E240A168A158316031327
:103556006508C800C901480883120313ED008316E5
:103566000313490883120313EE000A128A11E72592
:103576000A168A15952A7030831603138F040F10C6
:103586003F3085008601870120308800073089009A
:10359600FF3091008312031385018601870188019C
:1035A60089010730831603139C04831203178701CE
:1035B60009128312031397019D01831603138117C2
:1035C600831203130811081307140A168A15BB2061
:1035D6000A168A150A128A1501200A168A150A166B
:1035E6008A159F26080083120313A500251E152B96
:1035F600C0300A168A15EA200A168A1583120313A2
:103606002508A30003300310A30DFF3E031D062B60
:103616000310230DA4002408A50025080A168A1500
:10362600EA20080080300A168A15EA200A168A154A
:10363600831203132508A30003300310A30DFF3ED6
:10364600031D202B0310230DA4002408A500250824
:103656000A168A15EA20080083120313A400240818
:10366600A200A20DA20D1F082206E33922069F0022
:103676001F140630A200A20B3E2B00008312031378
:103686009F14A501A6019F18462B1E08A200A301A0
:103696002208A5002308A6002508A300A2012208E7
:1036A600A5002308A6002508831603131E0483120B
:1036B6000313A2002608A3002208A5002308A600DB
:1036C6002608A1002508A000080083120313A601FE
:1036D600A31F742BA209A309A20A0319A30AA60110
:1036E600A60AA11F7B2BA009A109A00A0319A10AFA
:1036F600200821040319A82BA501A50AA11B8F2BBD
:1037060001300310A00DA10DFF3E031D842B0130D7
:10371600A4002408A507812B21082302031D952B4D
:1037260020082202031C9D2B2008A2022108031C4C
:10373600A303A30201300310A10CA00CFF3E031D3E
:103746009E2B0130A502031D8F2B26080319B02BD3
:10375600A209A309A20A0319A30A2308A1002208A1
:10376600A000080083120313310830042F042E042E
:103776000319FA2BB701B70AB11BCF2B0130B600DC
:103786000310AE0DAF0DB00DB10DB60BC32B01304E
:10379600B6003608B707BF2B31083502031DDD2BEF
:1037A60030083402031DDD2B2F083302031DDD2BE9
:1037B6002E083202031CED2B2E08B2022F08031C22
:1037C6002F0FB3023008031C300FB4023108031C5C
:1037D600310FB50201300310B10CB00CAF0CAE0CBA
:1037E600FF3E031DEE2B0130B702031DCF2B35081C
:1037F600B1003408B0003308AF003208AE0008004C
:1038060083120313AD01A81F0F2CA709A809A70A45
:103816000319A80AAD01AD0AAA1F1A2CA909AA09FB
:10382600A90A0319AA0A0130AB002B08AD06AE019E
:10383600AF01270828040319512CAC01AC0AA81BB8
:10384600302C01300310A70DA80DFF3E031D252CBB
:103856000130AB002B08AC07222C01300310AE0D53
:10386600AF0DFF3E031D312C28082A02031D3D2CF7
:1038760027082902031C462C2708A9022808031C2E
:10388600AA03AA022E1401300310A80CA70CFF3EAF
:10389600031D472C0130AC02031D302C2D080319E3
:1038A600592CAE09AF09AE0A0319AF0A2F08A800B2
:1038B6002E08A700080083120313881A0800823016
:1038C60083160313A100DD30A000A00B682CA10B0A
:1038D600682C6D2C83120313881A080000300A1610
:1038E6008A113F230A168A1583120313881AAE2CEF
:1038F60001300A168A113F230A168A15831203130A
:103906005E08031D932C5D08031D932C03305C0297
:10391600031D912CE8305B02031D912C031C772CB0
:103926000A168A159F260A168A1583120313871408
:10393600023083160313A2000430A100BA30A0009F
:10394600A00BA32CA10BA32CA20BA32C000083126B
:10395600031387100800013083160313A000200804
:10396600E50704306502031C0800E5010800831220
:103976000313A21FE32C0030A6000030A7008030FE
:10398600A8002009A9002109AA002209AB00A90A5A
:103996000319AA0A0319AB0A2908A6072A08031855
:1039A6002A0FD62CD72CA7072B0803182B0FDC2C95
:1039B600DD2CA8072608A0002708A1002808A200D9
:1039C600A51F0A2D0030A6000030A7008030A800F1
:1039D6002309A9002409AA002509AB00A90A03198D
:1039E600AA0A0319AB0A2908A6072A0803182A0FE8
:1039F600FD2CFE2CA7072B0803182B0F032D042DD7
:103A0600A8072608A3002708A4002808A5008030D8
:103A1600A2068030A50625082202031D08002408F8
:103A26002102031D08002308200208008312031345
:103A360023080319232D220821042004031D362DF3
:103A46000030A0000030A1000030A20008000130C4
:103A5600A5002508A30701300310A20CA10CA00C99
:103A6600FF3E031D2F2DFE3022050319512D2A2D51
:103A76000130A5002508A3070130A0070030031870
:103A86000130A107003003180130A20701300310EE
:103A9600A20CA10CA00CFF3E031D4A2DFF302205EF
:103AA6000319642D3B2D02302302031C662D0130C1
:103AB600A30201300310A00DA10DA20DFF3E031DB0
:103AC6005D2DA11F562D23186E2DFF30A0057F30CA
:103AD600A105FF30A2050310A30C2308A500A6012B
:103AE600A70110300310A50DA60DA70DFF3E031D5F
:103AF600752D2508A0042608A1042708A204240879
:103B060003190800A217080083120313D800DB016B
:103B1600DC01D901DA015A08803AFF0080307F02C1
:103B2600031D972D0B3059020318BA2D8312031368
:103B360058080A168A152F230A168A1583120313A4
:103B46002008DB070318DC0A2108DC070130D90747
:103B56000318DA0A0030DA075A08803AFF00803084
:103B66007F02031DB82D0B305902031C992D0A3014
:103B760083120313A0000030A1005C08A3005B08B9
:103B8600A2000A128A150D200A168A15831203133B
:103B96002108DC002008DB00C030C4007F30C500EF
:103BA6004430C60083160313690883120313B40056
:103BB600831603136A0883120313B50083160313CF
:103BC6006B0883120313B6005C08A9005B08A80003
:103BD6000A168A1525210A168A1583120313280840
:103BE600B7002908B8002A08B9000A168A116C22FB
:103BF6000A168A15831203133408C7003508C8004D
:103C06003608C9000A168A15482783120313440882
:103C1600D4004508D5004608D600080083120313D1
:103C26004D08D1004E08D2004F08D3000310520DA4
:103C3600530DD4005408DA005A08031D2B2E003009
:103C4600D0000030CF000030CE000030CD0008009C
:103C56004D08D1004E08D2004F08D300173003108C
:103C6600D30CD20CD10CFF3E031D322E5108D400CA
:103C76005408D500CE17FF30CD05FF30CE050030F5
:103C8600CF054D08D6004E08D7004F08D800D901F9
:103C96008E30DA02DA1F6D2E5A08803A8F3E0318EC
:103CA6005D2E0030D0000030CF000030CE00003056
:103CB600CD00080001300310D90CD80CD70CD60C57
:103CC600FF3E031D5E2E0130D1005108DA070319AD
:103CD600882E5D2E18305A02031C852E0030D00027
:103CE6000030CF000030CE000030CD00080001309B
:103CF600D1000310D60DD70DD80DD90DD10B7C2EC2
:103D06000130DA025A08031D7A2E55080319962E39
:103D1600D609D709D809D909D60A0319D70A031922
:103D2600D80A0319D90A5908D0005808CF005708ED
:103D3600CE005608CD000800831203130610881320
:103D460000300A168A150D210A168A1502308312CA
:103D56000313A7000430A600BA30A500A50BB12EA8
:103D6600A60BB12EA70BB12E000030300A168A150D
:103D76000D210A168A154E3083120313A600EB3066
:103D8600A500A50BC42EA60BC42E0A168A15CA209A
:103D96000A168A151A3083120313A600F830A500F6
:103DA600A50BD32EA60BD32E00000A168A15CA2001
:103DB6000A168A151A3083120313A600F830A500D6
:103DC600A50BE32EA60BE32E00000A168A15CA20C1
:103DD6000A168A151A3083120313A600F830A500B6
:103DE600A50BF32EA60BF32E000020300A168A151B
:103DF6000D210A168A150A168A15CA200A168A1568
:103E060028300A168A152D220A168A151A308312A8
:103E16000313A600F830A500A50B0F2FA60B0F2F36
:103E2600000010300A168A152D220A168A151A3035
:103E360083120313A600F830A500A50B202FA60BAE
:103E4600202F00000F300A168A152D220A168A1511
:103E56001A3083120313A600F830A500A50B312FE4
:103E6600A60B312F000006300A168A152D220A16D7
:103E76008A151A3083120313A600F830A500A50B85
:103E8600422FA60B422F0000080083120313470897
:103E9600CA004808CB004908CC0003104B0D4C0D56
:103EA600CD004D08D2005208031D602F0030C4001B
:103EB6000030C5000030C60008004408CA004508A6
:103EC600CB004608CC0003104B0D4C0DCD004D0821
:103ED600D3005308031D762F0030C4000030C50000
:103EE6000030C60008000030CF000030D00000309F
:103EF600D10089305307CA004A08D2024708CA00CF
:103F06004808CB004908CC0010300310CC0CCB0C71
:103F1600CA0CFF3E031D882F4A08CD004D08D3006A
:103F26004408CA004508CB004608CC0010300310F0
:103F3600CC0CCB0CCA0CFF3E031D9A2F4A08CD00B1
:103F46004D08D3068030CA004A08D305C817FF308B
:103F5600C705FF30C8050030C905C517FF30C405C1
:103F6600FF30C5050030C6051830CA004A08CE0025
:103F760001300310CF0DD00DD10DFF3E031DBC2F18
:103F860046084902031DCD2F45084802031DCD2FC3
:103F960044084702031CDA2F4408C7024508031CDD
:103FA600450FC8024608031C460AC9024F140130D1
:103FB6000310C70DC80DC90DFF3E031DDB2F0130D1
:103FC600CE02031DBB2F4F08A0005008A1005108C8
:103FD600A2005208CA004A08A3005308CB004B08A7
:103FE600A4000A168A151925831203132008C40093
:0A3FF6002108C5002208C6000800DB
:02400E00F4E4D8
:00000001FF
